:100000000C945E000C9486000C9486000C94860080
:100010000C9486000C9486000C9486000C94860048
:100020000C9486000C9486000C9486000C94860038
:100030000C9486000C9486000C9486000C94860028
:100040000C949A020C9486000C9486000C94860002
:100050000C9486000C9486000C9486000C94860008
:100060000C94E4020C9486000000000800020100D9
:100070000003040700000000000000000000000072
:10008000250028002B0000000000240027002A0083
:10009000040404040404040402020202020203032E
:1000A0000303030301020408102040800102040836
:1000B00010200102040810200304EC0411241FBEC8
:1000C000CFEFD8E0DEBFCDBF21E0A0E2B1E001C0BC
:1000D0001D92A33DB207E1F711E0A0E0B1E0E4E733
:1000E000FEE002C005900D92A032B107D9F710E0F2
:1000F000CDE5D0E004C02197FE010E942C05CC354F
:10010000D107C9F70E944B040C942D070C940000F2
:100110000895CF93DF93AC01E091BB01F091BC0156
:100120003097F1F09091BA018091B9019817C0F021
:1001300090E0292F30E02617370754F4D901A05E4C
:10014000BE4F240F351FE90128812C939F5FF1CF0B
:100150001092BA016093B901CB01DF91CF9109945C
:10016000DF91CF91089590E0FC01E859FF4F249171
:10017000FC01EC55FF4F3491FC01E057FF4FE49137
:10018000EE23C9F0222339F0233001F1A8F4213005
:1001900019F1223029F1F0E0EE0FFF1FE458FF4F74
:1001A000A591B4918FB7F894EC91611126C0309568
:1001B0003E233C938FBF08952730A9F02830C9F023
:1001C000243049F7809180008F7D03C080918000AA
:1001D0008F7780938000DFCF84B58F7784BDDBCFAE
:1001E00084B58F7DFBCF8091B0008F778093B00076
:1001F000D2CF8091B0008F7DF9CF3E2BDACF3FB7C1
:10020000F8948091AC019091AD01A091AE01B091B4
:10021000AF0126B5A89B05C02F3F19F00196A11D7F
:10022000B11D3FBFBA2FA92F982F8827BC01CD0140
:10023000620F711D811D911D42E0660F771F881F9F
:10024000991F4A95D1F708958F929F92AF92BF92CE
:10025000CF92DF92EF92FF920E94FF004B015C0170
:1002600084EFC82EDD24D394E12CF12C0E94FF00F2
:10027000681979098A099B09683E734081059105CF
:10028000A8F321E0C21AD108E108F10888EE880E2F
:1002900083E0981EA11CB11CC114D104E104F10437
:1002A00029F7FF90EF90DF90CF90BF90AF909F9095
:1002B0008F90089585ED8093BC008091BC0084FDF3
:1002C000FCCF1092B601089520916001260F3327CC
:1002D000331F21323105ECF42091B601FC0190E08E
:1002E00080E0243069F082E00895A09160012191BE
:1002F000AC01405C5E4FA40FB52FB11D2C9301964D
:10030000861798F380916001680F6093600180E028
:10031000089581E008950895E091BA018091B901AE
:10032000E81730F4F0E0E05EFE4F808190E0089541
:100330008FEF9FEF08959091BA018091B9012FEF4F
:100340003FEF981748F4E92FF0E0E05EFE4F208180
:1003500030E09F5F9093BA01C90108958091B9017F
:100360009091BA01891B990B0895CF93DF93CB012C
:10037000EA01642F0E946401CE01DF91CF910895BC
:10038000CF93DF931F92CDB7DEB7698361E0CE01D3
:1003900001960E94640181E090E00F90DF91CF917F
:1003A000089590E080E00895CF93DF93EC01809171
:1003B000C9019091CA01009759F02091CB01309169
:1003C000CC012C173D0720F081E0DF91CF910895FB
:1003D000BE016F5F7F4F0E945706009789F0909390
:1003E000CA018093C901D093CC01C093CB01209165
:1003F000CD013091CE01232B39F7FC011082E4CFDF
:1004000080E0E3CF0F931F93CF93DF9300D0CDB75E
:10041000DEB79091B9018091BA01981729F18DEB5F
:1004200091E00E949B0189831A820091CD01109175
:10043000CE010F5F1F4FC8010E94D401882349F3EA
:100440002091C9013091CA018091CD019091CE01D6
:10045000BE016F5F7F4F820F931F0E94260710938C
:10046000CE010093CD01D5CF8091CD019091CE01E9
:10047000892BA1F068E171E08091C9019091CA01D6
:100480000E941D07892B51F460E08CE00E94B300AC
:100490000E94240161E08CE00E94B3008091CD01B4
:1004A0009091CE01892BA1F06BE171E08091C9019F
:1004B0009091CA010E941D07892B51F461E08CE0E4
:1004C0000E94B3000E94240160E08CE00E94B3000F
:1004D00090E080E00E94D4012091C9013091CA01CE
:1004E000811119C02115310519F0C9010E94CE05ED
:1004F0001092CA011092C9011092CE011092CD0142
:100500001092CC011092CB010F900F90DF91CF9100
:100510001F910F9108951092CE011092CD016EE1BE
:1005200071E0C9010F900F90DF91CF911F910F9152
:100530000C9426071F920F920FB60F9211242F933F
:100540003F938F939F93AF93BF938091A801909116
:10055000A901A091AA01B091AB013091A70123E0BC
:10056000230F2D3758F50196A11DB11D2093A7012A
:100570008093A8019093A901A093AA01B093AB0125
:100580008091AC019091AD01A091AE01B091AF010D
:100590000196A11DB11D8093AC019093AD01A09374
:1005A000AE01B093AF01BF91AF919F918F913F91F9
:1005B0002F910F900FBE0F901F90189526E8230FD4
:1005C0000296A11DB11DD2CF1F920F920FB60F92AE
:1005D00011242F933F934F935F936F937F938F9348
:1005E0009F93AF93BF93EF93FF938091B900887F60
:1005F000803609F44AC0F0F5883209F4A7C018F52E
:10060000803109F49BC0B8F4882309F4F9C088301C
:1006100009F494C0FF91EF91BF91AF919F918F9199
:100620007F916F915F914F913F912F910F900FBEEE
:100630000F901F901895883109F488C0803251F7C7
:100640008093830114C0803409F49DC040F480334A
:10065000B9F38833F9F68093830185ECB0C0803517
:1006600009F485C0883509F496C0883499F60E944B
:100670005A01D0CF883909F48CC038F5883729F071
:1006800050F4883611F0803729F683E08093B60164
:100690001092820157C0883809F47BC0803919F064
:1006A000803809F0B7CF80918201803208F071C0A4
:1006B000E091820181E08E0F809382018091BB00E6
:1006C000F0E0EE59FE4F80833DC0803B39F0E0F40E
:1006D000803A09F479C0883A09F09CCF84E080938D
:1006E000B6011092610110926001E091B201F091A7
:1006F000B30109958091600181110FC081E0809361
:1007000060011092400109C0803C09F4A6CF883CEA
:1007100009F4A3CF883B09F07DCFE091610181E02E
:100720008E0F80936101F0E0E05CFE4F808180934A
:10073000BB00909161018091600129C08091A60168
:100740008093BB0085EC8093BC0064CF9091A501A1
:100750008091A401981758F5E091A50181E08E0FD2
:100760008093A501F0E0EC57FE4F8081E9CFE09146
:10077000A50181E08E0F8093A5018091BB00F0E080
:10078000EC57FE4F80839091A5018091A4019817AA
:10079000C8F285E8D8CFE091A50181E08E0F809363
:1007A000A5018091BB00F0E0EC57FE4F8083809163
:1007B000B50181115CCF81E08093B40184EA80931C
:1007C000BC001092B60126CF85EC8093BC0010923D
:1007D000B60180918201803230F4E0918201F0E034
:1007E000EE59FE4F10826091820170E0E091B001FD
:1007F000F091B10182E691E00995109282010ACF51
:100800001092830134CF1092C0011092BF0188EE84
:1008100093E0A0E0B0E08093C1019093C201A09367
:10082000C301B093C4018AE091E09093BE0180932C
:10083000BD011092CA011092C9011092CC01109210
:10084000CB011092CE011092CD0190E080E00E9489
:10085000D4012091C9013091CA01811113C0211521
:10086000310519F0C9010E94CE051092CA011092FB
:10087000C9011092CE011092CD011092CC011092BC
:10088000CB0108951092CE011092CD016EE171E07E
:10089000C9010C942607789484B5826084BD84B520
:1008A000816084BD85B5826085BD85B5816085BD6B
:1008B00080916E00816080936E0010928100809123
:1008C00081008260809381008091810081608093AB
:1008D0008100809180008160809380008091B100D0
:1008E00084608093B1008091B00081608093B000FB
:1008F00080917A00846080937A0080917A0082608F
:1009000080937A0080917A00816080937A00809150
:100910007A00806880937A001092C100E1EBF0E0E9
:100920002491EDE9F0E08491882399F090E0880F1C
:10093000991FFC01EA57FF4FA591B491FC01E458BF
:10094000FF4F859194918FB7F894EC91E22BEC9343
:100950008FBF1092BA011092B9011092B801109293
:10096000B7011092B60181E08093B5011092B401F5
:1009700061E082E10E94B30061E083E10E94B30084
:100980008091B9008E7F8093B9008091B9008D7FEE
:100990008093B90088E48093B80085E48093BC001C
:1009A00088E890E09093B3018093B20189E890E0E9
:1009B0009093B1018093B00180E18093BA0082E00E
:1009C00092E09093BC018093BB01C0E0D0E02097FF
:1009D000F1F30E940000FBCF8091C9019091CA0100
:1009E000009711F00C94CE0508952F923F924F92EC
:1009F0005F926F927F928F929F92AF92BF92CF92AF
:100A0000DF92EF92FF920F931F93CF93DF93CDB7B7
:100A1000DEB7CA1BDB0B0FB6F894DEBF0FBECDBF2F
:100A200009942A88398848885F846E847D848C8400
:100A30009B84AA84B984C884DF80EE80FD800C8109
:100A40001B81AA81B981CE0FD11D0FB6F894DEBFEC
:100A50000FBECDBFED010895EE0FFF1F0590F4917D
:100A6000E02D09940F931F93CF93DF93823091056C
:100A700010F482E090E0E091D101F091D20130E0F9
:100A800020E0B0E0A0E0309799F42115310509F499
:100A90004AC0281B390B24303105D8F58A819B8147
:100AA0006115710589F1FB0193838283FE0111C0F9
:100AB000408151810281138148175907E0F048179E
:100AC000590799F4109761F012960C9312971396A8
:100AD0001C933296CF01DF91CF911F910F91089512
:100AE0000093D1011093D201F4CF2115310551F0BB
:100AF0004217530738F0A901DB019A01BD01DF015C
:100B0000F801C1CFEF01F9CF9093D2018093D101C9
:100B1000CDCFFE01E20FF31F819391932250310953
:100B200039832883D7CF2091CF013091D001232B57
:100B300041F420910201309103013093D0012093C0
:100B4000CF0120910001309101012115310541F4BF
:100B50002DB73EB74091040150910501241B350B80
:100B6000E091CF01F091D001E217F307A0F42E1B22
:100B70003F0B2817390778F0AC014E5F5F4F241701
:100B8000350748F04E0F5F1F5093D0014093CF01BF
:100B9000819391939FCFF0E0E0E09CCFCF93DF93E0
:100BA0000097E9F0FC01329713821282A091D101E3
:100BB000B091D201ED0130E020E01097A1F4208146
:100BC0003181820F931F2091CF013091D0012817DE
:100BD000390709F061C0F093D001E093CF01DF91B4
:100BE000CF910895EA01CE17DF07E8F54A815B81CE
:100BF0009E0141155105B1F7E901FB83EA83499153
:100C00005991C40FD51FEC17FD0761F480819181C4
:100C10000296840F951FE9019983888382819381CD
:100C20009B838A83F0E0E0E012968D919C9113976C
:100C30000097B9F52D913C911197CD010296820F45
:100C4000931F2091CF013091D0012817390739F631
:100C5000309751F51092D2011092D101B093D0018A
:100C6000A093CF01BCCFD383C28340815181840F35
:100C7000951FC817D90761F44E5F5F4F888199812E
:100C8000480F591F518340838A819B8193838283BC
:100C90002115310509F0B0CFF093D201E093D101D5
:100CA0009ECFFD01DC01C0CF13821282D7CFB0E00E
:100CB000A0E0EDE5F6E00C94F7048C01009751F408
:100CC000CB010E9432058C01C801CDB7DEB7E0E14F
:100CD0000C941305FC01E60FF71F9C01225031090B
:100CE000E217F30708F49DC0D901CD91DC9111976B
:100CF000C617D70798F0C530D10530F3CE01049759
:100D00008617970708F3C61BD70B2297C193D19379
:100D10006D937C93CF010E94CE05D6CF5B01AC1AB8
:100D2000BD0A4C018C0E9D1EA091D101B091D20143
:100D3000512C412CF12CE12C109731F58091CF01F1
:100D40009091D0018815990509F05CC046165706A8
:100D500008F058C08091000190910101009741F482
:100D60008DB79EB74091040150910501841B950BEE
:100D7000E817F90708F055C0F093D001E093CF01D0
:100D8000F90171836083A0CF8D919C911197129688
:100D90006C90129713967C901397A815B90559F586
:100DA0006C0142E0C40ED11CCA14DB0420F1AC017A
:100DB0004A195B09DA011296159780F062827382F4
:100DC00051834083D9016D937C93E114F10471F058
:100DD000D7011396FC93EE93129776CF22968C0F41
:100DE0009D1FF90191838083F301EFCFF093D2012E
:100DF000E093D10169CF4816590608F42C017D0112
:100E0000D3019ACFCB010E9432057C01009749F0B3
:100E1000AE01B8010E941407C8010E94CE058701E7
:100E200053CF10E000E050CFFB01DC0102C0019085
:100E30000D9241505040D8F70895FB01DC018D918F
:100E4000019080190110D9F3990B0895FB01DC0181
:100E500001900D920020E1F7089510E0CDE5D0E07B
:100E600004C0FE010E942C052196CE35D107C9F79A
:040E7000F894FFCF24
:100E74000000D301800000000000C001B501D101D1
:100E84008B01AE019B018C016F6E006F66660000E2
:107800000C94343C0C94513C0C94513C0C94513CE1
:107810000C94513C0C94513C0C94513C0C94513CB4
:107820000C94513C0C94513C0C94513C0C94513CA4
:107830000C94513C0C94513C0C94513C0C94513C94
:107840000C94513C0C94513C0C94513C0C94513C84
:107850000C94513C0C94513C0C94513C0C94513C74
:107860000C94513C0C94513C11241FBECFEFD8E036
:10787000DEBFCDBF11E0A0E0B1E0ECE9FFE702C060
:1078800005900D92A230B107D9F712E0A2E0B1E065
:1078900001C01D92AD30B107E1F70E942D3D0C945F
:1078A000CC3F0C94003C982F959595959595959582
:1078B000905D8F708A307CF0282F295A8091C0000B
:1078C00085FFFCCF9093C6008091C00085FFFCCF60
:1078D0002093C6000895282F205DF0CF982F809127
:1078E000C00085FFFCCF9093C6000895EF92FF92F1
:1078F0000F931F93EE24FF2487018091C00087FD22
:1079000017C00894E11CF11C011D111D81E4E8164B
:1079100082E4F8068FE0080780E0180770F3E09132
:107920000401F091050109958091C00087FFE9CF1E
:107930008091C6001F910F91FF90EF9008950E94D3
:10794000763C982F8091C00085FFFCCF9093C600B5
:1079500091362CF490330CF09053892F089597555D
:10796000892F08951F930E949F3C182F0E949F3CCF
:107970001295107F810F1F9108951F93182F882350
:1079800021F00E94763C1150E1F71F9108951F935A
:10799000182F0E94763C803249F0809103018F5F5E
:1079A000809303018530C1F01F9108958091C0003C
:1079B00085FFFCCF84E18093C6008091C00085FFE5
:1079C000FCCF1093C6008091C00085FFFCCF80E102
:1079D0008093C6001F910895E0910401F091050184
:1079E00009951F9108950E94763C803241F0809164
:1079F00003018F5F80930301853081F008958091AA
:107A0000C00085FFFCCF84E18093C6008091C00058
:107A100085FFFCCF80E18093C6000895E0910401CA
:107A2000F09105010995089540E951E08823A1F0FE
:107A30002D9A28EE33E0FA013197F1F721503040CA
:107A4000D1F72D9828EE33E0FA013197F1F7215064
:107A50003040D1F7815061F708953F924F925F9285
:107A60006F927F928F929F92AF92BF92CF92DF924E
:107A7000EF92FF920F931F93CF93DF93000080E16B
:107A80008093C4001092C50088E18093C10086E015
:107A90008093C2005098589A259A81E00E94143D24
:107AA00024E1F22E9EE1E92E85E9D82E0FE0C02ECA
:107AB00010E1B12EAA24A394B1E49B2EA6E58A2E50
:107AC000F2E57F2EE0E26E2E79E4572E63E5462E36
:107AD00050E5352E0E94763C8033B1F18133B9F107
:107AE000803409F46FC0813409F476C0823409F41B
:107AF00085C0853409F488C0803531F1823521F1A3
:107B0000813511F1853509F485C0863509F48DC0BC
:107B1000843609F496C0843709F403C1853709F423
:107B200072C1863709F466C0809103018F5F80932C
:107B30000301853079F6E0910401F0910501099582
:107B40000E94763C803351F60E94F33CC3CF0E94E2
:107B5000763C803249F78091C00085FFFCCFF092DF
:107B6000C6008091C00085FFFCCF9092C600809136
:107B7000C00085FFFCCF8092C6008091C00085FFC9
:107B8000FCCF7092C6008091C00085FFFCCF609250
:107B9000C6008091C00085FFFCCF5092C600809146
:107BA000C00085FFFCCF4092C6008091C00085FFD9
:107BB000FCCF3092C6008091C00085FFFCCFB09210
:107BC000C60088CF0E94763C863808F4BDCF0E945C
:107BD000763C0E94F33C7ECF0E94763C803809F4CC
:107BE0009CC0813809F40BC1823809F43CC1883942
:107BF00009F48FC080E00E94C73C6CCF84E10E94F2
:107C0000BD3C0E94F33C66CF85E00E94BD3C0E94D3
:107C1000F33C60CF0E94763C809306010E94763C44
:107C2000809307010E94F33C55CF0E94763C80333D
:107C300009F41DC183E00E94BD3C80E00E94C73C66
:107C400049CF0E94763C809309020E94763C809343
:107C5000080280910C028E7F80930C020E94763C79
:107C6000853409F415C18091080290910902892B8D
:107C700089F000E010E00E94763CF801E85FFE4FDA
:107C800080830F5F1F4F80910802909109020817AF
:107C9000190788F30E94763C803209F045CF809125
:107CA0000C0280FF01C16091060170910701660F0F
:107CB000771F7093070160930601A0910802B091AD
:107CC00009021097C9F0E8E0F1E09B01AD014E0F09
:107CD0005F1FF999FECF32BD21BD819180BDFA9A17
:107CE000F99A2F5F3F4FE417F50799F76A0F7B1F4B
:107CF00070930701609306018091C00085FFFCCF5F
:107D0000F092C6008091C00085FFFCCFB092C60003
:107D1000E1CE83E00E94C73CDDCE82E00E94C73CFA
:107D2000D9CE0E94763C809309020E94763C8093D3
:107D300008028091060190910701880F991F909386
:107D40000701809306010E94763C853409F4A6C0A1
:107D500080910C028E7F80930C020E94763C8032D0
:107D600009F0B8CE8091C00085FFFCCFF092C6002C
:107D7000609108027091090261157105B9F140E046
:107D800050E080910C02A82FA170B82FB27011C0E2
:107D9000BB2309F45CC0E0910601F0910701319624
:107DA000F0930701E09306014F5F5F4F46175707B7
:107DB000E8F4AA2369F3F999FECF209106013091E6
:107DC000070132BD21BDF89A90B58091C00085FFB2
:107DD000FCCF9093C6002F5F3F4F30930701209355
:107DE00006014F5F5F4F4617570718F38091C00099
:107DF00085FDE5CE8091C00085FFF8CFE0CE81E023
:107E00000E94C73C67CE0E94763C803209F08CCE3F
:107E10008091C00085FFFCCFF092C6008091C00029
:107E200085FFFCCFE092C6008091C00085FFFCCFAB
:107E3000D092C6008091C00085FFFCCFC092C600E2
:107E40008091C00085FFFCCFB092C60043CEE09188
:107E50000601F091070194918091C00085FFFCCF4D
:107E60009093C6009CCF80E10E94C73C33CE0E9415
:107E7000763C0E94763C182F0E94763C112309F430
:107E800083C0113009F484C08FE00E94C73C22CE29
:107E900080910C02816080930C02E5CE80910C02EF
:107EA000816080930C0259CF809107018823880F4D
:107EB000880B8A2180930B02809106019091070123
:107EC000880F991F90930701809306018091080203
:107ED00080FF09C080910802909109020196909359
:107EE000090280930802F894F999FECF1127E091D6
:107EF0000601F0910701C8E0D1E08091080290915D
:107F00000902103091F40091570001700130D9F34B
:107F100003E000935700E89500915700017001308D
:107F2000D9F301E100935700E89509901990009169
:107F3000570001700130D9F301E000935700E89534
:107F40001395103498F011270091570001700130FB
:107F5000D9F305E000935700E895009157000170B0
:107F60000130D9F301E100935700E895329602976A
:107F700009F0C7CF103011F00296E5CF112480919F
:107F8000C00085FFB9CEBCCE8EE10E94C73CA2CD19
:0C7F900085E90E94C73C9ECDF894FFCF0D
:027F9C00800063
:040000030000780081
:00000001FF
