:100000000C9412010C943A010C943A010C943A01AC
:100010000C943A010C943A010C943A010C943A0174
:100020000C943A010C943A010C943A010C943A0164
:100030000C943A010C943A010C943A010C943A0154
:100040000C94C6080C943A010C9494080C946E0815
:100050000C943A010C943A010C943A010C943A0134
:100060000C9410090C943A015258204661756C7436
:1000700020636F6D6D616E643A2000536574206E6D
:100080006F6465527373695065616B203D20302C3D
:10009000206E6F6465527373694E61646972203DAE
:1000A000204D617800536574205258206672657146
:1000B000203D20004572726F723A20576972652E9A
:1000C000617661696C61626C652829206F6E2061C0
:1000D000207265616420726571756573742E0045C8
:1000E00072726F723A207278206279746520636F41
:1000F000756E7420616E6420776972652061766127
:10010000696C61626C6520646F6E27742061677230
:100110006565004572726F723A206E6F2062797465
:10012000657320666F72206120726563656976650C
:100130003F00636F6D6D616E6420646F6573206E48
:100140006F74206D6174636800696E76616C6964B8
:1001500020636865636B73756D004E6F7468696EBC
:100160006720417669616C61626C65005458204675
:1001700061756C7420636F6D6D616E643A20000070
:100180000000080002010000030407000000000056
:1001900000000052656164793A200043726F737306
:1001A000696E67203D2046616C73650043726F7312
:1001B00073696E67203D2054727565004E65772027
:1001C0006E6F6465527373694E61646972203D207D
:1001D000004E6577206E6F64655273736950656178
:1001E0006B203D200000000000250028002B0000AF
:1001F000000000240027002A00040404040404046E
:1002000004020202020202030303030303010204C5
:100210000810204080010204081020010204081088
:1002200020002F0A11241FBECFEFD8E0DEBFCDBFC4
:1002300011E0A0E0B1E0ECE8FCE102C005900D9215
:10024000A834B107D9F726E0A8E4B1E001C01D92B7
:10025000AD3DB207E1F711E0C2E1D1E004C0219762
:10026000FE010E943E0EC131D107C9F70E94970AD4
:100270000C94440E0C94000090E0FC01E35FFD4FF1
:10028000249187509E4FFC018491882399F090E03F
:10029000880F991FFC01E151FE4FA591B491FC011B
:1002A000EB51FE4F859194918FB7F894EC91E22B2E
:1002B000EC938FBF0895FC01538D448D252F30E0C2
:1002C000842F90E0821B930B541710F0CF96089563
:1002D00001970895FC01918D828D981761F0A28D90
:1002E000AE0FBF2FB11D5D968C91928D9F5F9F7356
:1002F000928F90E008958FEF9FEF0895FC01918D0C
:10030000828D981731F0828DE80FF11D858D90E078
:1003100008958FEF9FEF0895FC01918D228D892F15
:1003200090E0805C9F4F821B91098F7399270895FD
:10033000FC01A48DA80FB92FB11DA35ABF4F2C915A
:10034000848D90E001968F739927848FA689B78951
:100350002C93A089B1898C91837080648C93938D48
:10036000848D981306C00288F389E02D80818F7DEB
:1003700080830895EF92FF920F931F93CF93DF93A3
:10038000EC0181E0888F9B8D8C8D98131AC0E889D1
:10039000F989808185FF15C09FB7F894EE89FF89A0
:1003A0006083E889F98980818370806480839FBF3E
:1003B00081E090E0DF91CF911F910F91FF90EF903E
:1003C0000895F62E0B8D10E00F5F1F4F0F7311274E
:1003D000E02E8C8D8E110CC00FB607FCFACFE88989
:1003E000F989808185FFF5CFCE010E949801F1CF78
:1003F000EB8DEC0FFD2FF11DE35AFF4FF0829FB7FD
:10040000F8940B8FEA89FB8980818062CFCF0F93AC
:100410001F93CF93DF938C01D0E0C0E0F801EC0F85
:10042000FD1F6491662341F083E394E00E94BA01CA
:10043000892B11F02196F2CFCE01DF91CF911F9140
:100440000F910895CF93DF93EC01888D8823B9F045
:10045000AA89BB89E889F9898C9185FD03C08081CF
:1004600086FD0DC00FB607FCF7CF8C9185FFF2CF4C
:10047000808185FFEDCFCE010E949801E9CFDF9109
:10048000CF91089583E394E00E948C0121E0892BB1
:1004900009F420E0822F089580E090E0892B29F074
:1004A0000E94420281110C9400000895E09106021E
:1004B000F0910702309729F0109201021092000289
:1004C00009940895CF93DF93AC01E0910402F09179
:1004D00005023097F1F09091030280910202981783
:1004E000C0F090E0292F30E02617370754F4D901E7
:1004F000A359BE4F240F351FE90128812C939F5F1C
:10050000F1CF1092030260930202CB01DF91CF91F1
:100510000994DF91CF910895AF92BF92CF92DF926D
:10052000EF92FF920F931F93CF93DF936C017B01A8
:100530008B01040F151FEB015E01AE18BF08C01739
:10054000D10759F06991D601ED91FC910190F081AC
:10055000E02DC6010995892B79F7C501DF91CF916F
:100560001F910F91FF90EF90DF90CF90BF90AF90D1
:10057000089590E0FC01E158FE4F2491FC01E35FF7
:10058000FD4F3491FC01E750FE4FE491EE23C9F09A
:10059000222339F0233001F1A8F4213019F122305F
:1005A00029F1F0E0EE0FFF1FEB51FE4FA591B49142
:1005B0008FB7F894EC91611126C030953E233C939F
:1005C0008FBF08952730A9F02830C9F0243049F7AB
:1005D000809180008F7D03C0809180008F77809311
:1005E0008000DFCF84B58F7784BDDBCF84B58F7D6E
:1005F000FBCF8091B0008F778093B000D2CF8091F5
:10060000B0008F7DF9CF3E2BDACF3FB7F8948091C1
:10061000F5019091F601A091F701B091F80126B58E
:10062000A89B05C02F3F19F00196A11DB11D3FBF2A
:10063000BA2FA92F982F8827BC01CD01620F711DF9
:10064000811D911D42E0660F771F881F991F4A95F3
:10065000D1F708958F929F92AF92BF92CF92DF927F
:10066000EF92FF920E9405036B017C0192E0892EBC
:10067000912CA12CB12C0E9405036C197D098E09C7
:100680009F09683E734081059105A8F328EEC20ECC
:1006900023E0D21EE11CF11C8A9489288A288B2829
:1006A00029F0812C912C54018394E5CFFF90EF9099
:1006B000DF90CF90BF90AF909F908F90089585ED81
:1006C0008093BC008091BC0084FDFCCF1092FF01A0
:1006D00008952091AD01260F3327331F21323105B4
:1006E000ECF42091FF01FC0190E080E0243069F0FF
:1006F00082E00895A091AD012191AC0143575E4F76
:10070000A40FB52FB11D2C930196861798F38091F5
:10071000AD01680F6093AD0180E0089581E0089518
:100720000895E091030280910202E81730F4F0E0AE
:10073000E359FE4F808190E008958FEF9FEF089579
:1007400090910302809102022FEF3FEF981748F437
:10075000E92FF0E0E359FE4F208130E09F5F909356
:100760000302C90108958091020290910302891B3E
:10077000990B0895CF93DF93CB01EA01642F0E9478
:100780006903CE01DF91CF910895CF93DF931F923C
:10079000CDB7DEB7698361E0CE0101960E9469039F
:1007A00081E090E00F90DF91CF91089590E080E09C
:1007B00008950F931F93E4E0F1E08781A8E0B2E091
:1007C0008C934485558566857785008511852285BE
:1007D0003385400F511F621F731F7695679557959C
:1007E000479511964D935D936D937C9314978089F3
:1007F00015968C93159716968C9116978F5F169673
:100800008C93108217828FEF808B1F910F91089528
:1008100020916B0130916C01F901E65BFE4F9083F2
:10082000A9014E5F5F4F50936C0140936B01255BB4
:100830003E4FF9018083089520916B0130916C0146
:10084000A9014F5F5F4F50936C0140936B01265B92
:100850003E4FF90180830895CF93DF93CBE8D1E039
:10086000CE010197F1F761E08AE00E94B902219779
:10087000F1F7DF91CF910895CF93DF93CBE8D1E0EB
:10088000CE010197F1F760E08AE00E94B90221975A
:10089000F1F7DF91CF910895CF93DF9360E08DE082
:1008A0000E94B902CBEAD4E0CE010197F1F760E0F3
:1008B0008BE00E94B902CE010197F1F761E08DE073
:1008C0000E94B902CE010197F1F760E08DE00E942D
:1008D000B9022197F1F7DF91CF910895CF93DF937C
:1008E00060E08DE00E94B902CBEAD4E0CE0101972E
:1008F000F1F761E08BE00E94B902CE010197F1F7B8
:1009000061E08DE00E94B902CE010197F1F760E04D
:100910008DE00E94B9022197F1F7DF91CF91089500
:100920001F93CF93DF938F5D9140EC01D695C795D0
:10093000CF71DD2736E0969587953A95E1F7969544
:10094000982F882797958795C80FD91F0E942C0448
:100950000E942A030E943C040E944C040E944C0402
:100960000E944C040E946E040E944C0414E10E94F8
:100970004C041150E1F70E942C040E942A030E94AB
:100980003C040E942C040E943C040E946E040E94BD
:100990004C040E944C040E944C040E946E0410E11E
:1009A000C0FF21C00E946E04D695C7951150C1F7B3
:1009B0000E944C040E944C040E944C040E944C046F
:1009C0000E942C040E942A0360E08AE00E94B9027F
:1009D00060E08DE00E94B90260E08BE0DF91CF9192
:1009E0001F910C94B9020E944C04DECF8F929F920B
:1009F000AF92BF920F931F93CF93DF93CDB7DEB724
:100A0000A1970FB6F894DEBF0FBECDBF19A242303A
:100A100008F44AE08E010F5D1F4F842E912CB12CFB
:100A2000A12CA50194010E941C0EE62FB901CA0158
:100A3000EA3044F5E05DD801EE938D01232B242BA1
:100A4000252B79F790E080E0109769F0FD01019087
:100A50000020E9F73197AF014A1B5B0BBD0183E32F
:100A600094E00E948C02A1960FB6F894DEBF0FBEF0
:100A7000CDBFDF91CF911F910F91BF90AF909F900D
:100A80008F900895E95CD7CF42E050E064E471E0D4
:100A900083E394E00C948C02CF93DF930E940702CF
:100AA000EC010E9444058C0F9D1FDF91CF910895AA
:100AB000CF93DF93462F682F70E090E080E00E9494
:100AC000F604EC010E9444058C0F9D1FDF91CF912D
:100AD0000895CF92DF92EF92FF9210926C011092E4
:100AE0006B0180916A01833209F423C1D0F4833011
:100AF00009F45BC070F4882309F453C08CE691E0DC
:100B00000E94070280916A0160E170E00E9458052E
:100B1000D2C0853009F450C0823281F782E195E27B
:100B200048C0813309F4FFC028F4843239F780913A
:100B3000160138C0823309F4F9C08333F9F68FB750
:100B4000F89440910F02509110026091110270913F
:100B500012028FBF80916B0190916C01C72EDD2432
:100B6000EE24FF24FC01E65BFE4FC0826B01EE2405
:100B7000FF24FC01E55BFE4FC082C52ED62EE72E7A
:100B8000FF24FC01E45BFE4FC0829C012C5F3F4FC1
:100B900030936C0120936B01835B9E4FFC0140837B
:100BA0008AC086E10E941C0486C080910001909159
:100BB00001010E9408047FC08FB7F894C0900F0213
:100BC000D0901002E0901102F09012028FBF80913D
:100BD0000E020E941C048091090290910A02A091C9
:100BE0000B02B0910C029601281B390BC9010E941F
:100BF0000804809105010E941C04809115010E9447
:100C00001C04809108020E941C048091180190919C
:100C10001901A0911A01B0911B010E940804809152
:100C200004010E941C0480910D020E941C0480910A
:100C300016010E941C0480911C02882309F461C0E3
:100C400080911D020E941C0480911E0290911F023F
:100C5000A0912002B0912102F601E81BF90BCF010F
:100C60000E9408048091220290912302A091240204
:100C7000B09125029601281B390BC9010E94080476
:100C800010921C0280912B02882309F446C08091A7
:100C90002C020E941C0480912D0290912E02A091A2
:100CA0002F02B0913002F601E81BF90BCF010E9430
:100CB000080410922B0210926A0140916B0150912E
:100CC0006C0114161506C4F580E030E020E0F9014F
:100CD000E65BFE4F9081890F2F5F3F4F421753070E
:100CE000B1F70E941C0440916B0150916C016AE4C1
:100CF00071E080ED94E0FF90EF90DF90CF900C9446
:100D0000BA0380E00E941C0490E080E00E94080486
:100D100090E080E00E940804B5CF80E00E941C04AF
:100D200090E080E046CF809102013CCF80910301AA
:100D300039CF8091150136CFFF90EF90DF90CF90A3
:100D40000895CF92DF92EF92FF92CF93DF936C01E1
:100D5000990FEE08FF08F7FE1DC06DE283E394E0F3
:100D60000E94BA01EC0166277727CB016C197D0937
:100D70008E099F094AE00E94F604C80FD91F0E94FD
:100D800044058C0F9D1FDF91CF91FF90EF90DF9076
:100D9000CF9008954AE0C701B6010E94F604EC0125
:100DA000EECFDF92EF92FF920F931F93CF93DF93DB
:100DB000D82E8B0110926C0110926B011092490198
:100DC00010924801E090020280910302E81609F4B3
:100DD00062C0F12CC0916B01D0916C018091030233
:100DE000E816D9F080ED94E00E94A0039E012F5FE9
:100DF0003F4F30936C0120936B01C65BDE4F8883BD
:100E000082E090E00130110511F083E090E082175C
:100E1000930704F78881F80EDDCFFE01E75BFE4FF4
:100E20008081F81213C022970C171D0779F4F8017E
:100E3000E65BFE4F8081D81229C081E0DF91CF911F
:100E40001F910F91FF90EF90DF90089589E491E05A
:100E50000E944C056AE070E08F2D0E945805E091D9
:100E60006B01F0916C01E75BFE4F80816AE070E0FE
:100E70000E94580580916B0190916C0102970E942D
:100E8000A106C8010E94A10680E0D8CF82E391E0CC
:100E90000E944C05F9CF8AE591E0FACF1F93CF93DA
:100EA000DF93EC010E94060E182FCE0101960E94DE
:100EB000060E90E0982F8827810F911DDF91CF912A
:100EC0001F9108951F93CF93DF93EC01172F0E947A
:100ED0000E0E612FCE010196DF91CF911F910C94E0
:100EE0000E0ECF93DF93009731F483E191E0DF9111
:100EF000CF910C944C052091020230910302231BE8
:100F0000330B8217930721F08FED90E00E944C0580
:100F100080ED94E00E94A00380936A0180916A01B1
:100F2000813508F4BEC0C0916A01C13709F479C0A7
:100F300028F4C135F1F010926A0110C0C23709F4EB
:100F400091C0C837C1F70E94D90361E070E088E71B
:100F50000E94D10610926A01811160C088E690E07B
:100F60000E94070260E170E08C2FDF91CF910C941A
:100F7000580562E070E081E50E94D1068823D9F22D
:100F8000C0910001D09101018091480190914901E7
:100F9000FC01E65BFE4F2081AC014E5F5F4F50933A
:100FA000490140934801855B9E4FFC018081922F4F
:100FB00090930101809300018091000190910101C3
:100FC0000E94900481E08093170185EA90E00E94DE
:100FD0000702609100017091010190E080E04AE019
:100FE0000E94F6040E944405809100019091010145
:100FF000C817D90789F0609100017091010190E054
:1010000080E00E946207109215018FEF8093160115
:101010008BE790E00E944C0510926A01DF91CF911E
:10102000089561E070E081E70E94D106882309F409
:1010300082CF80914801909149019C012F5F3F4FE1
:101040003093490120934801865B9E4FFC018081CB
:10105000809302016091020170E082E090E00E94C2
:101060006207DACF61E070E082E70E94D106882350
:1010700009F461CF80914801909149019C012F5F53
:101080003F4F3093490120934801865B9E4FFC01FE
:101090008081809303016091030170E084E090E01F
:1010A000DECF9091020280910302981709F4B6CF27
:1010B00084EB90E00E94070280916A0160E170E099
:1010C0000E9458059091020280910302981709F43A
:1010D000A5CF80ED94E00E94A003F4CF1F920F9261
:1010E0000FB60F9211242F933F934F935F936F93FB
:1010F0007F938F939F93AF93BF93EF93FF9383E37C
:1011000094E00E949801FF91EF91BF91AF919F9160
:101110008F917F916F915F914F913F912F910F90A0
:101120000FBE0F901F9018951F920F920FB60F923F
:1011300011242F938F939F93EF93FF93E091430498
:10114000F09144048081E0914904F0914A0482FDC9
:101150001BC0908180914C048F5F8F7320914D0450
:10116000821741F0E0914C04F0E0ED5CFB4F958F6D
:1011700080934C04FF91EF919F918F912F910F904D
:101180000FBE0F901F9018958081F4CF1F920F9281
:101190000FB60F9211242F933F938F939F93AF938A
:1011A000BF9380910F0290911002A0911102B09113
:1011B00012023091F40123E0230F2D3758F50196E8
:1011C000A11DB11D2093F40180930F029093100292
:1011D000A0931102B09312028091F5019091F60153
:1011E000A091F701B091F8010196A11DB11D809366
:1011F000F5019093F601A093F701B093F801BF9128
:10120000AF919F918F913F912F910F900FBE0F90B3
:101210001F90189526E8230F0296A11DB11DD2CF6D
:101220001F920F920FB60F9211242F933F934F935B
:101230005F936F937F938F939F93AF93BF93EF933E
:10124000FF938091B900887F803609F44AC0F0F599
:10125000883209F4A7C018F5803109F49BC0B8F4AE
:10126000882309F4F9C0883009F494C0FF91EF9104
:10127000BF91AF919F918F917F916F915F914F91AE
:101280003F912F910F900FBE0F901F9018958831AE
:1012900009F488C0803251F78093D00114C08034A3
:1012A00009F49DC040F48033B9F38833F9F6809394
:1012B000D00185ECB0C0803509F485C0883509F4CB
:1012C00096C0883499F60E945F03D0CF883909F41C
:1012D0008CC038F5883729F050F4883611F0803703
:1012E00029F683E08093FF011092CF0157C0883820
:1012F00009F47BC0803919F0803809F0B7CF8091AC
:10130000CF01803208F071C0E091CF0181E08E0FF3
:101310008093CF018091BB00F0E0E155FE4F8083C8
:101320003DC0803B39F0E0F4803A09F479C0883A56
:1013300009F09CCF84E08093FF011092AE011092DF
:10134000AD01E091FB01F091FC0109958091AD01A7
:1013500081110FC081E08093AD0110928D0109C011
:10136000803C09F4A6CF883C09F4A3CF883B09F060
:101370007DCFE091AE0181E08E0F8093AE01F0E071
:10138000E357FE4F80818093BB009091AE01809126
:10139000AD0129C08091F3018093BB0085EC80935F
:1013A000BC0064CF9091F2018091F101981758F53B
:1013B000E091F20181E08E0F8093F201F0E0EF52B4
:1013C000FE4F8081E9CFE091F20181E08E0F8093A2
:1013D000F2018091BB00F0E0EF52FE4F80839091CC
:1013E000F2018091F1019817C8F285E8D8CFE09119
:1013F000F20181E08E0F8093F2018091BB00F0E05A
:10140000EF52FE4F80838091FE0181115CCF81E01D
:101410008093FD0184EA8093BC001092FF0126CFE7
:1014200085EC8093BC001092FF018091CF01803247
:1014300030F4E091CF01F0E0E155FE4F1082609171
:10144000CF0170E0E091F901F091FA018FEA91E0AB
:1014500009951092CF010ACF1092D00134CF10928B
:1014600036041092350488EE93E0A0E0B0E080935B
:10147000370490933804A0933904B0933A0424E2DB
:1014800031E0309334042093330425EC30E0309382
:10149000400420933F0424EC30E030934204209336
:1014A000410420EC30E0309344042093430421ECC9
:1014B00030E0309346042093450422EC30E0309332
:1014C00048042093470426EC30E030934A042093EC
:1014D000490410924C0410924D0410924E04109244
:1014E0004F041092D3041092D2048093D4049093AA
:1014F000D504A093D604B093D70486E391E09093EB
:10150000D1048093D0048FEF8093DC049FE7909305
:10151000DD048093DE04EEEDF5E01292DF01A150D0
:10152000BF4F1C9284E0EF3DF807B9F70895CF93C1
:10153000DF9300D000D0CDB7DEB7789484B5826059
:1015400084BD84B5816084BD85B5826085BD85B567
:10155000816085BD80916E00816080936E001092E5
:101560008100809181008260809381008091810060
:1015700081608093810080918000816080938000F1
:101580008091B10084608093B1008091B00081604F
:101590008093B00080917A00846080937A0080917B
:1015A0007A00826080937A0080917A0081608093D3
:1015B0007A0080917A00806880937A001092C1004E
:1015C0008AE00E943C018BE00E943C018DE00E9479
:1015D0003C0161E08AE00E94B90283E991E00E9447
:1015E000070286E190E00E94A10610920302109289
:1015F000020210920102109200021092FF0181E09B
:101600008093FE011092FD0161E082E10E94B90227
:1016100061E083E10E94B9028091B9008E7F8093DE
:10162000B9008091B9008D7F8093B90088E48093E0
:10163000B80085E48093BC0086E592E09093FC01BD
:101640008093FB0182E692E09093FA018093F90186
:101650008CE28093BA0081E797E090930502809333
:10166000040289E695E090930702809306028DE2DA
:101670008093BA0080917A00846080937A00809190
:101680007A008D7F80937A0080917A008E7F80939C
:101690007A0088E090E00E944E078632954309F078
:1016A000B4C090E080E00E944E07909301018093C7
:1016B000000182E090E00E944E078093020184E0E6
:1016C00090E00E944E078093030180910001909169
:1016D00001010E9490041092080210920E021092D2
:1016E000090210920A0210920B0210920C020E9440
:1016F000050360931C0170931D0180931E0190935C
:101700001F0110E49AE0492E512C612C712C20E02D
:10171000222E20E0322E0FEF8FB7F894C0900F02E8
:10172000D0901002E0901102F09012028FBF8091D1
:101730002F0490913004A0913104B09132048C15A3
:101740009D05AE05BF0508F04DC2C0922F04D09292
:101750003004E0923104F092320410937C008091C6
:101760007A00806480937A0080917A0086FDFCCFB5
:101770008091780020917900322F282F211542E0A6
:10178000340714F02FEF31E035952795922F809193
:10179000DE04882319F081508093DE048091DC04FC
:1017A000811102C00093DC04E091DC04E150E0937D
:1017B000DC04F0E0E452FB4F4381941709F450C07D
:1017C0002383EDEDF6E08FEF81505291451711F034
:1017D0008111FACFE82FF0E0DF01A252BA4F2C932B
:1017E000491780F5E1E0E80FF0E0E252FA4F8E3F52
:1017F000B9F1A82FB0E0A252BA4F9C9120812917CD
:1018000078F52C9391938F5FF2CF609100017091E6
:10181000010190E080E00E9462076091020170E0A7
:1018200082E090E00E9462076091030170E084E032
:1018300090E00E94620766E275E388E090E00E9413
:10184000620743CFE352FA4F55E0ED3DF50741F013
:1018500080819181981720F4908381833197F4CF10
:1018600080912E0494E0899FF0011124EE5CFD4FDD
:10187000C082D182E282F3828F5F8F3708F07FC00F
:1018800080932E048091DE04811172C18091170132
:10189000882309F46DC18091050180930601E091D0
:1018A000DD04F0E0E252FA4F808180930501E0917F
:1018B0002E0424E0E29FF0011124EE5CFD4F8081B4
:1018C0009181A281B3818093070190930801A09335
:1018D0000901B0930A018091050190910601891BCD
:1018E000990B181619060CF04DC020910501209394
:1018F0001302409107015091080160910901709114
:101900000A01409318025093190260931A027093CF
:101910001B024093140250931502609316027093B9
:1019200017022091310227FF79C020912B02222338
:1019300039F03091260220912C02321708F06EC047
:1019400021E020932B022091260220932C0240912B
:101950002702509128026091290270912A02409337
:101960002D0250932E0260932F0270933002803824
:10197000910514F08FE790E0809331026AC01092D5
:101980002E0480CF009709F450C0209105012093C8
:101990002602409107015091080160910901709160
:1019A0000A01409327025093280260932902709302
:1019B0002A022091310212168CF520911C0222235A
:1019C00031F03091130220911D02231738F521E0E8
:1019D00020931C022091130220931D0240911402B7
:1019E00050911502609116027091170240931E02E9
:1019F00050931F02609320027093210240911802BD
:101A00005091190260911A0270911B0240932202B8
:101A100050932302609324027093250281383FEF94
:101A200093070CF0A4CF81E8A7CF8091310218165C
:101A300084F48091070190910801A0910901B0916F
:101A40000A018093180290931902A0931A02B0938E
:101A50001B029091050180911501891770F4809106
:101A600005018093150181ED91E00E9407028091AC
:101A700015016AE070E00E9458059091050180917F
:101A80001601981770F480910501809316018CEB74
:101A900091E00E940702809116016AE070E00E94C6
:101AA00058058091040181110DC09091050180912C
:101AB0000201981738F081E0809304018CEA91E0EC
:101AC0000E944C059091050180910B01981750F1EF
:101AD0008091070190910801A0910901B0910A013C
:101AE0008093100190931101A0931201B093130100
:101AF0009091050180910B018917A0F48091050157
:101B000080930B018091100190911101A09112011D
:101B1000B091130180930C0190930D01A0930E01DD
:101B2000B0930F019091050180911401981708F06E
:101B300065C0809105018093140180910401882380
:101B4000B9F09091050180910B01891708F059C0F7
:101B50008091050180930B01909105018091030113
:101B6000981730F48BE991E00E944C050E94D9034C
:101B70000E94050380901C0190901D01A0901E0101
:101B8000B0901F019B01AC01281939094A095B0972
:101B9000209318013093190140931A0150931B01AF
:101BA00060931C0170931D0180931E0190931F018F
:101BB00080910401811128C0C701B60124E630E0FC
:101BC00040E050E00E941C0ECA01B901A30192013D
:101BD0000E941C0E672B682B692BB1F060E08DE032
:101BE0000E94B9022114310409F496CD0E944202E8
:101BF000882309F491CD0E9400008ECD80911401BC
:101C00009ACF80910B01A6CF61E0E9CFF999FECF81
:101C100092BD81BDF89A992780B50895262FF9992C
:101C2000FECF1FBA92BD81BD20BD0FB6F894FA9ABF
:101C3000F99A0FBE01960895A1E21A2EAA1BBB1BAA
:101C4000FD010DC0AA1FBB1FEE1FFF1FA217B30788
:101C5000E407F50720F0A21BB30BE40BF50B661F9E
:101C6000771F881F991F1A9469F760957095809562
:101C700090959B01AC01BD01CF010895EE0FFF1FB0
:0C1C80000590F491E02D0994F894FFCF3A
:101C8C00A8166050000000000000000000000000DA
:101C9C0000000000FF00FF0000000000000000003A
:101CAC0000000000BA018C025B0122028C016A0167
:101CBC007E0100000000C503BA03D6039003B303F2
:081CCC00A00391030D0A0000C2
:107800000C94343C0C94513C0C94513C0C94513CE1
:107810000C94513C0C94513C0C94513C0C94513CB4
:107820000C94513C0C94513C0C94513C0C94513CA4
:107830000C94513C0C94513C0C94513C0C94513C94
:107840000C94513C0C94513C0C94513C0C94513C84
:107850000C94513C0C94513C0C94513C0C94513C74
:107860000C94513C0C94513C11241FBECFEFD8E036
:10787000DEBFCDBF11E0A0E0B1E0ECE9FFE702C060
:1078800005900D92A230B107D9F712E0A2E0B1E065
:1078900001C01D92AD30B107E1F70E942D3D0C945F
:1078A000CC3F0C94003C982F959595959595959582
:1078B000905D8F708A307CF0282F295A8091C0000B
:1078C00085FFFCCF9093C6008091C00085FFFCCF60
:1078D0002093C6000895282F205DF0CF982F809127
:1078E000C00085FFFCCF9093C6000895EF92FF92F1
:1078F0000F931F93EE24FF2487018091C00087FD22
:1079000017C00894E11CF11C011D111D81E4E8164B
:1079100082E4F8068FE0080780E0180770F3E09132
:107920000401F091050109958091C00087FFE9CF1E
:107930008091C6001F910F91FF90EF9008950E94D3
:10794000763C982F8091C00085FFFCCF9093C600B5
:1079500091362CF490330CF09053892F089597555D
:10796000892F08951F930E949F3C182F0E949F3CCF
:107970001295107F810F1F9108951F93182F882350
:1079800021F00E94763C1150E1F71F9108951F935A
:10799000182F0E94763C803249F0809103018F5F5E
:1079A000809303018530C1F01F9108958091C0003C
:1079B00085FFFCCF84E18093C6008091C00085FFE5
:1079C000FCCF1093C6008091C00085FFFCCF80E102
:1079D0008093C6001F910895E0910401F091050184
:1079E00009951F9108950E94763C803241F0809164
:1079F00003018F5F80930301853081F008958091AA
:107A0000C00085FFFCCF84E18093C6008091C00058
:107A100085FFFCCF80E18093C6000895E0910401CA
:107A2000F09105010995089540E951E08823A1F0FE
:107A30002D9A28EE33E0FA013197F1F721503040CA
:107A4000D1F72D9828EE33E0FA013197F1F7215064
:107A50003040D1F7815061F708953F924F925F9285
:107A60006F927F928F929F92AF92BF92CF92DF924E
:107A7000EF92FF920F931F93CF93DF93000080E16B
:107A80008093C4001092C50088E18093C10086E015
:107A90008093C2005098589A259A81E00E94143D24
:107AA00024E1F22E9EE1E92E85E9D82E0FE0C02ECA
:107AB00010E1B12EAA24A394B1E49B2EA6E58A2E50
:107AC000F2E57F2EE0E26E2E79E4572E63E5462E36
:107AD00050E5352E0E94763C8033B1F18133B9F107
:107AE000803409F46FC0813409F476C0823409F41B
:107AF00085C0853409F488C0803531F1823521F1A3
:107B0000813511F1853509F485C0863509F48DC0BC
:107B1000843609F496C0843709F403C1853709F423
:107B200072C1863709F466C0809103018F5F80932C
:107B30000301853079F6E0910401F0910501099582
:107B40000E94763C803351F60E94F33CC3CF0E94E2
:107B5000763C803249F78091C00085FFFCCFF092DF
:107B6000C6008091C00085FFFCCF9092C600809136
:107B7000C00085FFFCCF8092C6008091C00085FFC9
:107B8000FCCF7092C6008091C00085FFFCCF609250
:107B9000C6008091C00085FFFCCF5092C600809146
:107BA000C00085FFFCCF4092C6008091C00085FFD9
:107BB000FCCF3092C6008091C00085FFFCCFB09210
:107BC000C60088CF0E94763C863808F4BDCF0E945C
:107BD000763C0E94F33C7ECF0E94763C803809F4CC
:107BE0009CC0813809F40BC1823809F43CC1883942
:107BF00009F48FC080E00E94C73C6CCF84E10E94F2
:107C0000BD3C0E94F33C66CF85E00E94BD3C0E94D3
:107C1000F33C60CF0E94763C809306010E94763C44
:107C2000809307010E94F33C55CF0E94763C80333D
:107C300009F41DC183E00E94BD3C80E00E94C73C66
:107C400049CF0E94763C809309020E94763C809343
:107C5000080280910C028E7F80930C020E94763C79
:107C6000853409F415C18091080290910902892B8D
:107C700089F000E010E00E94763CF801E85FFE4FDA
:107C800080830F5F1F4F80910802909109020817AF
:107C9000190788F30E94763C803209F045CF809125
:107CA0000C0280FF01C16091060170910701660F0F
:107CB000771F7093070160930601A0910802B091AD
:107CC00009021097C9F0E8E0F1E09B01AD014E0F09
:107CD0005F1FF999FECF32BD21BD819180BDFA9A17
:107CE000F99A2F5F3F4FE417F50799F76A0F7B1F4B
:107CF00070930701609306018091C00085FFFCCF5F
:107D0000F092C6008091C00085FFFCCFB092C60003
:107D1000E1CE83E00E94C73CDDCE82E00E94C73CFA
:107D2000D9CE0E94763C809309020E94763C8093D3
:107D300008028091060190910701880F991F909386
:107D40000701809306010E94763C853409F4A6C0A1
:107D500080910C028E7F80930C020E94763C8032D0
:107D600009F0B8CE8091C00085FFFCCFF092C6002C
:107D7000609108027091090261157105B9F140E046
:107D800050E080910C02A82FA170B82FB27011C0E2
:107D9000BB2309F45CC0E0910601F0910701319624
:107DA000F0930701E09306014F5F5F4F46175707B7
:107DB000E8F4AA2369F3F999FECF209106013091E6
:107DC000070132BD21BDF89A90B58091C00085FFB2
:107DD000FCCF9093C6002F5F3F4F30930701209355
:107DE00006014F5F5F4F4617570718F38091C00099
:107DF00085FDE5CE8091C00085FFF8CFE0CE81E023
:107E00000E94C73C67CE0E94763C803209F08CCE3F
:107E10008091C00085FFFCCFF092C6008091C00029
:107E200085FFFCCFE092C6008091C00085FFFCCFAB
:107E3000D092C6008091C00085FFFCCFC092C600E2
:107E40008091C00085FFFCCFB092C60043CEE09188
:107E50000601F091070194918091C00085FFFCCF4D
:107E60009093C6009CCF80E10E94C73C33CE0E9415
:107E7000763C0E94763C182F0E94763C112309F430
:107E800083C0113009F484C08FE00E94C73C22CE29
:107E900080910C02816080930C02E5CE80910C02EF
:107EA000816080930C0259CF809107018823880F4D
:107EB000880B8A2180930B02809106019091070123
:107EC000880F991F90930701809306018091080203
:107ED00080FF09C080910802909109020196909359
:107EE000090280930802F894F999FECF1127E091D6
:107EF0000601F0910701C8E0D1E08091080290915D
:107F00000902103091F40091570001700130D9F34B
:107F100003E000935700E89500915700017001308D
:107F2000D9F301E100935700E89509901990009169
:107F3000570001700130D9F301E000935700E89534
:107F40001395103498F011270091570001700130FB
:107F5000D9F305E000935700E895009157000170B0
:107F60000130D9F301E100935700E895329602976A
:107F700009F0C7CF103011F00296E5CF112480919F
:107F8000C00085FFB9CEBCCE8EE10E94C73CA2CD19
:0C7F900085E90E94C73C9ECDF894FFCF0D
:027F9C00800063
:040000030000780081
:00000001FF
