:100000000C945D000C9485000C9485000C94850084
:100010000C9485000C9485000C9485000C9485004C
:100020000C9485000C9485000C9485000C9485003C
:100030000C9485000C9485000C9485000C9485002C
:100040000C9486080C9485000C9454080C942E088B
:100050000C9485000C9485000C9485000C9485000C
:100060000C94D0080C9485000000000800020100E8
:100070000003040700000000000000000000000072
:10008000250028002B0000000000240027002A0083
:10009000040404040404040402020202020203032E
:1000A0000303030301020408102040800102040836
:1000B0001020010204081020EF0911241FBECFEF09
:1000C000D8E0DEBFCDBF11E0A0E0B1E0E8E9FCE19F
:1000D00002C005900D92A836B107D9F726E0A8E630
:1000E000B1E001C01D92AB3EB207E1F710E0CDE5F3
:1000F000D0E004C02197FE010E94440ECC35D10708
:10010000C9F70E94300A0C944A0E0C94000090E04B
:10011000FC01EC55FF4F249180579F4FFC018491C7
:10012000882399F090E0880F991FFC01EA57FF4F50
:10013000A591B491FC01E458FF4F859194918FB73C
:10014000F894EC91E22BEC938FBF0895AF92BF929D
:10015000CF92DF92EF92FF920F931F93CF93DF9393
:100160006C017B018B01040F151FEB015E01AE18C2
:10017000BF08C017D10759F06991D601ED91FC91E4
:100180000190F081E02DC6010995892B79F7C50111
:10019000DF91CF911F910F91FF90EF90DF90CF9063
:1001A000BF90AF900895FC01538D448D252F30E012
:1001B000842F90E0821B930B541710F0CF96089574
:1001C00001970895FC01918D828D981761F0A28DA1
:1001D000AE0FBF2FB11D5D968C91928D9F5F9F7367
:1001E000928F90E008958FEF9FEF0895FC01918D1D
:1001F000828D981731F0828DE80FF11D858D90E08A
:1002000008958FEF9FEF0895FC01918D228D892F26
:1002100090E0805C9F4F821B91098F73992708950E
:1002200084E196E00E94040121E0892B09F420E09A
:10023000822F0895FC01A48DA80FB92FB11DA35AD8
:10024000BF4F2C91848D90E001968F739927848FF6
:10025000A689B7892C93A089B1898C918370806419
:100260008C93938D848D981306C00288F389E02DBA
:1002700080818F7D80830895EF92FF920F931F936B
:10028000CF93DF93EC0181E0888F9B8D8C8D981349
:100290001AC0E889F989808185FF15C09FB7F89455
:1002A000EE89FF896083E889F989808183708064A1
:1002B00080839FBF81E090E0DF91CF911F910F91EC
:1002C000FF90EF900895F62E0B8D10E00F5F1F4FFB
:1002D0000F731127E02E8C8D8E110CC00FB607FC0A
:1002E000FACFE889F989808185FFF5CFCE010E9498
:1002F0001A01F1CFEB8DEC0FFD2FF11DE35AFF4FEB
:10030000F0829FB7F8940B8FEA89FB898081806225
:10031000CFCFCF93DF93EC01888D8823B9F0AA89E2
:10032000BB89E889F9898C9185FD03C0808186FDB0
:100330000DC00FB607FCF7CF8C9185FFF2CF8081FF
:1003400085FFEDCFCE010E941A01E9CFDF91CF9159
:10035000089590E0FC01E859FF4F2491FC01EC5511
:10036000FF4F3491FC01E057FF4FE491EE23C9F0B9
:10037000222339F0233001F1A8F4213019F1223081
:1003800029F1F0E0EE0FFF1FE458FF4FA591B49163
:100390008FB7F894EC91611126C030953E233C93C1
:1003A0008FBF08952730A9F02830C9F0243049F7CD
:1003B000809180008F7D03C0809180008F77809333
:1003C0008000DFCF84B58F7784BDDBCF84B58F7D90
:1003D000FBCF8091B0008F778093B000D2CF809117
:1003E000B0008F7DF9CF3E2BDACF3FB7F8948091E4
:1003F000000290910102A0910202B091030226B581
:10040000A89B05C02F3F19F00196A11DB11D3FBF4C
:10041000BA2FA92F982F8827BC01CD01620F711D1B
:10042000811D911D42E0660F771F881F991F4A9515
:10043000D1F708958F929F92AF92BF92CF92DF92A1
:10044000EF92FF924B015C010E94F5016B017C0170
:100450000E94F5016C197D098E099F09683E734061
:1004600081059105A8F321E0821A9108A108B1083D
:1004700088EEC80E83E0D81EE11CF11C81149104A3
:10048000A104B10429F7FF90EF90DF90CF90BF90C7
:10049000AF909F908F90089585ED8093BC008091E0
:1004A000BC0084FDFCCF1092D90108952091B301C6
:1004B000260F3327331F21323105ECF42091D90167
:1004C000FC0190E080E0243069F082E00895A09182
:1004D000B3012191AC014F565E4FA40FB52FB11D52
:1004E0002C930196861798F38091B301680F60935F
:1004F000B30180E0089581E00895E0918F01F091CB
:100500009001309729F010928E0110928D0109947C
:100510000895CF93DF93AC01E0918B01F0918C01B2
:100520003097F1F090918A01809189019817C0F07D
:1005300090E0292F30E02617370754F4D901A75946
:10054000BE4F240F351FE90128812C939F5FF1CF07
:1005500010928A0160938901CB01DF91CF910994B8
:10056000DF91CF9108950895E0918A0180918901EA
:10057000E81730F4F0E0E759FE4F808190E00895ED
:100580008FEF9FEF089590918A01809189012FEF5D
:100590003FEF981748F4E92FF0E0E759FE4F20812C
:1005A00030E09F5F90938A01C9010895809189018D
:1005B00090918A01891B990B0895CF93DF93CB010A
:1005C000EA01642F0E945602CE01DF91CF91089577
:1005D000CF93DF931F92CDB7DEB7698361E0CE0181
:1005E00001960E94560281E090E00F90DF91CF913A
:1005F000089590E080E008952FB7F894EAE2F1E0E2
:100600008781A0E0B1E08C93408551856285738538
:100610008485958596958795480F591F611D711D95
:1006200011964D935D936D937C93149786851596E3
:100630008C93159716968C9116978F5F16968C93C0
:100640002FBF108217828FEF86870895FC01AAE2E0
:10065000B1E011968C911197808313968D919D91A5
:100660000D90BC91A02D81839283A383B4831682C5
:100670001582089590911D01992391F02FB7F89458
:1006800090911E019F3F69F487E0E6E1F1E0AEE161
:10069000B1E001900D928A95E1F710921D012FBFF4
:1006A00008958823E1F39091160180911E01981717
:1006B00058F39091160180911E019813EECF80910E
:1006C000170190911801A0911901B0911A01E091C0
:1006D0001B01F0911C0140911F015091200160917C
:1006E0002101709122018E0F9F1F841B950B909307
:1006F000240180932301D1CF90910E01992391F091
:100700002FB7F89490910F0191110DC087E0E7E0A9
:10071000F1E0AFE0B1E001900D928A95E1F710921F
:100720000E012FBF08958823E1F390910701809176
:100730000F01891758F39091070180910F019813C9
:10074000EECF8091080190910901A0910A01B0912A
:100750000B01E0910C01F0910D01409110015091BD
:10076000110160911201709113018E0F9F1F841B64
:10077000950B9093150180931401D1CF909168014E
:10078000882349F091110DC081E08093680161E0F8
:100790008DE00C94A901992321F01092680160E08A
:1007A000F7CF0895CF93C82F81E00E94BE038091B8
:1007B000BC008A7B8093BC0060E082E10E94A901BA
:1007C00060E083E10E94A901CC2331F06AEF70E080
:1007D00080E090E00E941A0280E00E94BE03109226
:1007E0008A011092890110928E0110928D0110924F
:1007F000D90181E08093DB011092DA0161E082E1AE
:100800000E94A90161E083E10E94A9018091B900E1
:100810008E7F8093B9008091B9008D7F8093B9005D
:1008200088E48093B80085E48093BC008DE792E073
:100830009093B2018093B10189E892E09093B60160
:100840008093B5018CE28093BA008EEA97E0909392
:100850008C0180938B0187ED96E0909390018093BB
:100860008F018DE28093BA00CF910895CF93DF93EB
:10087000CBE8D1E0CE010197F1F761E08AE00E9478
:10088000A9012197F1F7DF91CF910895CF93DF93DD
:10089000CBE8D1E0CE010197F1F760E08AE00E9459
:1008A000A9012197F1F7DF91CF910895CF93DF93BD
:1008B00060E08DE00E94A901CBEAD4E0CE0101976F
:1008C000F1F760E08BE00E94A901CE010197F1F7FA
:1008D00061E08DE00E94A901CE010197F1F760E08F
:1008E0008DE00E94A9012197F1F7DF91CF91089542
:1008F000CF93DF9360E08DE00E94A901CBEAD4E0C2
:10090000CE010197F1F761E08BE00E94A901CE01D1
:100910000197F1F761E08DE00E94A901CE010197F6
:10092000F1F760E08DE00E94A9012197F1F7DF91D6
:10093000CF9108951F93CF93DF938F5D9140EC018A
:10094000D695C795CF71DD2736E0969587953A9570
:10095000E1F79695982F882797958795C80FD91F07
:100960000E94360462E070E080E090E00E941A028B
:100970000E9446040E9456040E9456040E94560497
:100980000E9478040E94560414E10E9456041150FB
:10099000E1F70E94360462E070E080E090E00E949F
:1009A0001A020E9446040E9436040E9446040E94D5
:1009B00078040E9456040E9456040E9456040E9425
:1009C000780410E1C0FF25C00E947804D695C79531
:1009D0001150C1F70E9456040E9456040E9456040A
:1009E0000E9456040E94360462E070E080E090E0CD
:1009F0000E941A0260E08AE00E94A90160E08DE096
:100A00000E94A90160E08BE0DF91CF911F910C94CF
:100A1000A9010E945604DACFDC011196EC911197DE
:100A2000AE0FB11D12967C9322E02E0FDC011196C1
:100A30002C93EF5FE80FF92FF11D628308954F9219
:100A40005F926F927F92BF92CF92DF92EF92FF926E
:100A50000F931F93CF93DF93EC01B62E1A828881F8
:100A6000833209F489C140F5833009F461C0C0F4D0
:100A7000882309F458C08A81882309F489C1AE010A
:100A80004D5F5F4FFA0190E0282F30E0BF01641BFB
:100A9000750B621773070CF074C16191960FF6CF56
:100AA000853009F44AC066E175E2823221F7CE0151
:100AB00001960E940C05FCC0813309F455C128F44D
:100AC0008432C9F680913A0151C1823309F451C18F
:100AD000833389F62FB7F894809104029091050230
:100AE000A0910602B09107022FBF4A819E01240FF8
:100AF000311DF901B38321E0240F2C0F3D2F311D4F
:100B0000F901A38322E0240F2C0F3D2F311DF901A1
:100B1000938324E0240F2A83E3E0E40FEC0FFD2FFE
:100B2000F11D8383C5C081E08A8386E18B83C0C0C9
:100B30006091260170912701BACF8FB7F894C090C9
:100B40000402D0900502E0900602F09007028FBFE9
:100B5000809106018E010F5F1F4FEA8191E09E0F89
:100B60009A83EC0FFD2FF11D8383809101019091F9
:100B70000201A0910301B0910401B601681B790B39
:100B8000C8010E940C0520912B01EA8131E03E0F43
:100B90003A83CE018E0F911DDC0113962C93809128
:100BA0003901DE01A30FB11D13968C9380910001D2
:100BB00093E09E0F9A83EE5FEC0FFD2FF11D838370
:100BC00060913C0170913D0180913E0190913F0107
:100BD000C8010E940C0590912A0180910F01882381
:100BE000D1F080911E018F3FA9F0409010015090EC
:100BF0001101609012017090130140911F015091FA
:100C0000200160912101709122014416550666066B
:100C1000770608F492608A81FE01E80FF11D938344
:100C200020910501A2E0A80FAA83E1E0E80FEC0FF4
:100C3000FD2FF11D238320913A01E3E0E80FEA83C1
:100C4000AC0FBD2FB11D13962C938C5FEC0FFD2FB5
:100C5000F11D91FF35C090910F018A83938380919C
:100C6000100190911101A0911201B0911301B601F0
:100C7000681B790BC8010E940C054091100150912E
:100C800011016091120170911301809114019091F2
:100C90001501B601641B750B681B790BC8010E9416
:100CA0000C0510920F0180910F06806280930F0651
:100CB00080910F06B11063C0806180930F06DBCE78
:100CC00090911E019F3FC9F090910F01992311F15E
:100CD00040901F01509020016090210170902201EE
:100CE0004091100150911101609112017091130116
:100CF000441655066606770668F08A83138270E00C
:100D000060E0C8010E940C0570E060E0C8010E942C
:100D10000C05C9CF90911E018A83938380911F0196
:100D200090912001A0912101B0912201B601681B90
:100D3000790BC8010E940C0540911F0150912001C0
:100D400060912101709122018091230190912401F1
:100D5000B601641B750B681B790BC8010E940C055A
:100D60008FEF80931E019FCF8091280191E09A839D
:100D7000DDCE80912901FACF80913901F7CF8065CE
:100D80009CCF8F5F8A832C0F3D1FD90113969C93B4
:100D90001882DF91CF911F910F91FF90EF90DF901C
:100DA000CF90BF907F906F905F904F90089560E0DC
:100DB00084ED96E00E941F054091D606442349F039
:100DC00050E067ED76E081EB96E00E94DD02109244
:100DD000D60608951F93CF93DF93EC01162F198247
:100DE00088818137C9F138F4813561F01882DF914B
:100DF000CF911F9108958237E1F18837B9F70E94AA
:100E0000FC0222C08B8192E099839C8189279827DC
:100E100089279C01245631092C3A3642A8F42091A6
:100E20002601309127012817390749F020910F0634
:100E30009093270180932601226020930F068091D2
:100E40000F06816080930F0680910F0611111EC05E
:100E5000806180930F06CACF81E089839B81809156
:100E60002801891789F380910F06909328018460E7
:100E7000E9CF81E089839B8180912901891721F342
:100E800080910F06909329018860DCCF8065E1CFC7
:100E9000833730F4813730F4813531F08FEF0895A6
:100EA0008837E1F781E0089582E0089584E196E0D3
:100EB0000E94E200E091BF06E11121C08093BD06CF
:100EC000813550F00E9448078823C1F01092BE0679
:100ED0008F5F8093BF06089561E08DEB96E00E94DE
:100EE0001F054091BF06442349F050E060EC76E0D6
:100EF00084E196E00E94A6001092BF06089520911A
:100F0000BE0691E0920F9093BE0630E0D901A35443
:100F1000B94F13968C93E913F1CFADEBB6E080E0B7
:100F2000AD014D5B56404217530734F413969C9124
:100F30001397890F1196F4CFF0E0E354F94F9281A3
:100F40009813DACF61E08DEB96E00E94EA06D4CFE9
:100F50000E94100181110C9456070895CF93DF93DE
:100F6000892B09F446C081EB96E00E94C30280936E
:100F7000D406813508F440C00E944807C82F882352
:100F8000B1F11092D606E091D606CE1780F4A4ED0A
:100F9000B6E020E0D0E0AD01445D56404C175D075F
:100FA000DCF413963C911397230F1196F4CF909194
:100FB000890180918A019817D1F081EB96E00E9417
:100FC000C3029091D606E92FF0E0EC52F94F8383EB
:100FD0009F5F9093D606D7CFF0E0EC52F94F828115
:100FE000821305C060E084ED96E00E94EA0610924C
:100FF000D606DF91CF910895C091890180918A0131
:10100000C817B9F380918A01C81799F381EB96E06C
:101010000E94C302F7CF1F93CF93DF93EC010E948E
:10102000E40D182FCE0101960E94E40D90E0982F58
:101030008827810F911DDF91CF911F9108951F93F4
:10104000CF93DF93EC01172F0E94EC0D612FCE019F
:101050000196DF91CF911F910C94EC0D1F920F928E
:101060000FB60F9211242F933F934F935F936F937B
:101070007F938F939F93AF93BF93EF93FF9384E1FD
:1010800096E00E941A01FF91EF91BF91AF919F915D
:101090008F917F916F915F914F913F912F910F9021
:1010A0000FBE0F901F9018951F920F920FB60F92C0
:1010B00011242F938F939F93EF93FF93E091240636
:1010C000F09125068081E0912A06F0912B0682FDA1
:1010D0001BC0908180912D068F5F8F7320912E060B
:1010E000821741F0E0912D06F0E0EC5EF94F958F0C
:1010F00080932D06FF91EF919F918F912F910F90EB
:101100000FBE0F901F9018958081F4CF1F920F9201
:101110000FB60F9211242F933F938F939F93AF930A
:10112000BF938091040290910502A0910602B091B4
:1011300007023091FF0123E0230F2D3758F5019668
:10114000A11DB11D2093FF0180930402909305021D
:10115000A0930602B09307028091000290910102D1
:10116000A0910202B09103020196A11DB11D8093CE
:10117000000290930102A0930202B0930302BF9178
:10118000AF919F918F913F912F910F900FBE0F9034
:101190001F90189526E8230F0296A11DB11DD2CFEE
:1011A0001F920F920FB60F9211242F933F934F93DC
:1011B0005F936F937F938F939F93AF93BF93EF93BF
:1011C000FF938091B900887F803609F44AC0F0F51A
:1011D000883209F4A7C018F5803109F49BC0B8F42F
:1011E000882309F4F9C0883009F494C0FF91EF9185
:1011F000BF91AF919F918F917F916F915F914F912F
:101200003F912F910F900FBE0F901F90189588312E
:1012100009F488C0803251F78093D80114C080341B
:1012200009F49DC040F48033B9F38833F9F6809314
:10123000D80185ECB0C0803509F485C0883509F443
:1012400096C0883499F60E944C02D0CF883909F4B0
:101250008CC038F5883729F050F4883611F0803783
:1012600029F683E08093D9011092D70157C08838BE
:1012700009F47BC0803919F0803809F0B7CF80912C
:10128000D701803208F071C0E091D70181E08E0F64
:101290008093D7018091BB00F0E0E954FE4F80833A
:1012A0003DC0803B39F0E0F4803A09F479C0883AD7
:1012B00009F09CCF84E08093D9011092B401109280
:1012C000B301E091B101F091B20109958091B301B0
:1012D00081110FC081E08093B3011092910109C088
:1012E000803C09F4A6CF883C09F4A3CF883B09F0E1
:1012F0007DCFE091B40181E08E0F8093B401F0E0E6
:10130000EF56FE4F80818093BB009091B401809195
:10131000B30129C08091FE018093BB0085EC8093CE
:10132000BC0064CF9091FD018091FC01981758F5A5
:10133000E091FD0181E08E0F8093FD01F0E0E45229
:10134000FE4F8081E9CFE091FD0181E08E0F809317
:10135000FD018091BB00F0E0E452FE4F808390914C
:10136000FD018091FC019817C8F285E8D8CFE09183
:10137000FD0181E08E0F8093FD018091BB00F0E0C4
:10138000E452FE4F80838091DB0181115CCF81E0CC
:101390008093DA0184EA8093BC001092D90126CFB1
:1013A00085EC8093BC001092D9018091D7018032E6
:1013B00030F4E091D701F0E0E954FE4F10826091E3
:1013C000D70170E0E091B501F091B60187EB91E0B3
:1013D00009951092D7010ACF1092D80134CFE4E1D9
:1013E000F6E01382128288EE93E0A0E0B0E08483FE
:1013F0009583A683B78328E431E03183208325ECED
:1014000030E03587248724EC30E03787268720ECCE
:1014100030E0318B208B21EC30E0338B228B22ECBF
:1014200030E0358B248B26EC30E0378B268B118E09
:10143000128E138E148EE1EBF6E0138212828483F7
:101440009583A683B7838AE591E091838083E4ED59
:10145000F6E011821282EDEBF6E01182128208951D
:10146000789484B5826084BD84B5816084BD85B57F
:10147000826085BD85B5816085BD80916E0081608B
:1014800080936E0010928100809181008260809331
:101490008100809181008160809381008091800033
:1014A0008160809380008091B10084608093B1005E
:1014B0008091B00081608093B00080917A00846058
:1014C00080937A0080917A00826080937A00809184
:1014D0007A00816080937A0080917A00806880939E
:1014E0007A001092C1008AE00E9487008BE00E947F
:1014F00087008DE00E94870061E08AE00E94A901D8
:1015000080E00E94D20380917A00846080937A0008
:1015100080917A008D7F80937A0080917A008E7F0F
:1015200080937A0088E090E00E940B088632954311
:1015300009F0B5C090E080E00E940B08909327016D
:101540008093260182E090E00E940B08809328019E
:1015500084E090E00E940B0880932901809126018D
:10156000909127010E949A048FEF809309049FE7CE
:1015700090930A0480930B04EBE0F5E08CE094E098
:101580001292DF01A150BF4F1C928E179F07C1F727
:101590000E94F501609340017093410180934201E4
:1015A0009093430190ED492E97E0592E612C712CB8
:1015B00024E6222E312C11E00FEF8FB7F894C09063
:1015C0000402D0900502E0900602F09007028FBF5F
:1015D0008091100690911106A0911206B091130609
:1015E0008C159D05AE05BF0508F0D8C230E43093D8
:1015F0007C0080917A00806480937A0080917A00E8
:1016000086FDFCCF8091780040917900542F482FBF
:10161000411582E0580714F04FEF51E0559547957A
:10162000342F80910B04882319F0815080930B0490
:1016300080910904811102C000930904E09109041A
:10164000E150E0930904F0E0E75FFB4F6381361758
:1016500009F451C04383EAE0F6E02FEF2150829174
:10166000681711F02111FACF822F90E0FC01E55F9D
:10167000FA4F4083631780F5E1E0E20FF0E0E55FA9
:10168000FA4F2E3FC1F1A22FB0E0A55FBA4F8C9167
:101690009081981780F59C9381932F5FF2CF609192
:1016A00026017091270190E080E00E941F08609160
:1016B000280170E082E090E00E941F0860912901FB
:1016C00070E084E090E00E941F0866E275E388E025
:1016D00090E00E941F0842CFFC01E65FFA4F95E0C0
:1016E000EA30F90741F080819181981720F49083C6
:1016F00081833197F4CF8091080424E0829FF00128
:101700001124E85FFD4FC082D182E282F3828F5FB5
:1017100087FD45C08093080480910B04811191C01E
:1017200080913B01882309F48CC020912B012093E8
:101730002C01E0910A04F0E0E55FFA4F808180938C
:101740002B01E091080434E0E39FF0011124E85FED
:10175000FD4F80819181A281B38180932D0190936F
:101760002E01A0932F01B0933001C0912B01C21B19
:10177000DD0B1C161D06B4F481E00E947C0387E09B
:1017800091E00E94260380912501181614F0109311
:101790001D01C038D105D4F0CFE7D0E017C01092BA
:1017A0000804BACF209709F4BAC081E00E943A0336
:1017B00086E191E00E9426038091250187FF109326
:1017C0000E01C1384FEFD40724F7C1E8C0932501BB
:1017D00080E00E947C0380E00E943A0390912B01FC
:1017E00080913901891720F480912B018093390170
:1017F00090912B0180913A01981720F480912B0150
:1018000080933A0180912A01811107C090912B01A8
:1018100080912801981708F006C180912A01811152
:1018200005C180912A0190912B01882309F445C1BB
:1018300080913101891708F003C181E391E00E9492
:1018400026030E94F5018090400190904101A090F4
:101850004201B09043019B01AC01281939094A09A2
:101860005B0949015A0180923C0190923D01A0928E
:101870003E01B0923F01609340017093410180931B
:1018800042019093430180902A018FB7F894C09150
:101890000F06DC2FD071D0930F068FBF90903B01C5
:1018A000C0FF25C08FB7F894A0902601B090270103
:1018B0008FBFC5010E949A0410933B01C1FF17C05E
:1018C000B50190E080E00E941F0810922A0110925A
:1018D0003101009338011092390100933A011092BE
:1018E0000E0110920F0110921D0100931E018091B4
:1018F0003B01811103C0C5FD10933B0180910E0691
:10190000882309F426C1DD2309F4E3C0C0920A0646
:10191000D0920B06E0920C06F0920D06F4C03091C6
:101920002B012091070132133DC0409108015091D5
:10193000090160910A0170910B01409108015091D9
:10194000090160910A0170910B014C015D01841A3B
:10195000950AA60AB70AB501A401411551056140CF
:101960007105E8F4409108015091090160910A0164
:1019700070910B01841B950B90930D0180930C01CA
:1019800080910C0190910D01019609F002CF81E048
:101990000E947C0387E091E00E942603FACE8FEF3D
:1019A0009FEFEACF30912B01209116013213F1CE37
:1019B00040911701509118016091190170911A011D
:1019C00040911701509118016091190170911A010D
:1019D0004C015D01841A950AA60AB70AB501A40153
:1019E0004115510561407105D8F44091170150919E
:1019F00018016091190170911A01841B950B909345
:101A00001C0180931B0180911B0190911C01019688
:101A100009F0BFCE81E00E943A0386E191E0BCCF9D
:101A20008FEF9FEFECCF10932A01FBCE90912B010B
:101A300080912901981708F0F4CE0E94FC02F1CEA3
:101A400090912B01809131019813FBCE809132014E
:101A500090913301A0913401B091350180912D0115
:101A600090912E01A0912F01B0913001409132014F
:101A70005091330160913401709135014C015D0149
:101A8000841A950AA60AB70AB501A40141155105A1
:101A90006140710578F440913201509133016091B9
:101AA000340170913501841B950B9093370180931D
:101AB0003601C7CE8FEF9FEFF8CF8091380198178E
:101AC00028F480912B0180933801BBCE809138019E
:101AD000FACF80910A0690910B06A0910C06B09166
:101AE0000D06A7019601281B390B4A0B5B0BDA0187
:101AF000C90189389341A105B10528F010920E065D
:101B000081E00E94D203C2FF07C06091280170E00B
:101B100082E090E00E941F08C3FF07C06091290186
:101B200070E084E090E00E941F0849EEC41643E094
:101B3000D406E104F104B0F4C601B1010E94FA0D2B
:101B40006B7F81E06330710509F480E00E94BE0381
:101B50001DC09920C1F2C5FFD6CFC6FDD4CF1093CA
:101B60000E06D4CEC701B60124E130E040E050E0DB
:101B70000E940E0E672B51F481E08110E7CFDD2328
:101B8000A9F081E00E94BE0310920F06C0921006D9
:101B9000D0921106E0921206F09213060E941001F4
:101BA000882309F40ACD0E94560705CDC701B60166
:101BB000A30192010E940E0E21E0672B682B692B76
:101BC00009F020E0822FC2CFF999FECF92BD81BDEE
:101BD000F89A992780B50895262FF999FECF1FBA54
:101BE00092BD81BD20BD0FB6F894FA9AF99A0FBE46
:101BF0000196089597FB072E16F4009407D077FD01
:101C000009D00E94300E07FC05D03EF490958195D6
:101C10009F4F0895709561957F4F0895A1E21A2E08
:101C2000AA1BBB1BFD010DC0AA1FBB1FEE1FFF1F80
:101C3000A217B307E407F50720F0A21BB30BE40BD0
:101C4000F50B661F771F881F991F1A9469F7609517
:101C50007095809590959B01AC01BD01CF010895D1
:101C6000AA1BBB1B51E107C0AA1FBB1FA617B707C2
:101C700010F0A61BB70B881F991F5A95A9F78095DE
:101C80009095BC01CD010895EE0FFF1F0590F491D2
:081C9000E02D0994F894FFCF48
:101C98000000000000FF000000000000000000003D
:101CA800000000000000FF00000000000000FF002E
:101CB800000000000000A8166050000000000000AE
:101CC8000000000000000000FF00FF00000000000E
:101CD80000000000000000003C01A600D3008901BC
:101CE8000401E200F60000000000E802DD02F9024B
:081CF800B302D602C302B402DC
:107800000C94343C0C94513C0C94513C0C94513CE1
:107810000C94513C0C94513C0C94513C0C94513CB4
:107820000C94513C0C94513C0C94513C0C94513CA4
:107830000C94513C0C94513C0C94513C0C94513C94
:107840000C94513C0C94513C0C94513C0C94513C84
:107850000C94513C0C94513C0C94513C0C94513C74
:107860000C94513C0C94513C11241FBECFEFD8E036
:10787000DEBFCDBF11E0A0E0B1E0ECE9FFE702C060
:1078800005900D92A230B107D9F712E0A2E0B1E065
:1078900001C01D92AD30B107E1F70E942D3D0C945F
:1078A000CC3F0C94003C982F959595959595959582
:1078B000905D8F708A307CF0282F295A8091C0000B
:1078C00085FFFCCF9093C6008091C00085FFFCCF60
:1078D0002093C6000895282F205DF0CF982F809127
:1078E000C00085FFFCCF9093C6000895EF92FF92F1
:1078F0000F931F93EE24FF2487018091C00087FD22
:1079000017C00894E11CF11C011D111D81E4E8164B
:1079100082E4F8068FE0080780E0180770F3E09132
:107920000401F091050109958091C00087FFE9CF1E
:107930008091C6001F910F91FF90EF9008950E94D3
:10794000763C982F8091C00085FFFCCF9093C600B5
:1079500091362CF490330CF09053892F089597555D
:10796000892F08951F930E949F3C182F0E949F3CCF
:107970001295107F810F1F9108951F93182F882350
:1079800021F00E94763C1150E1F71F9108951F935A
:10799000182F0E94763C803249F0809103018F5F5E
:1079A000809303018530C1F01F9108958091C0003C
:1079B00085FFFCCF84E18093C6008091C00085FFE5
:1079C000FCCF1093C6008091C00085FFFCCF80E102
:1079D0008093C6001F910895E0910401F091050184
:1079E00009951F9108950E94763C803241F0809164
:1079F00003018F5F80930301853081F008958091AA
:107A0000C00085FFFCCF84E18093C6008091C00058
:107A100085FFFCCF80E18093C6000895E0910401CA
:107A2000F09105010995089540E951E08823A1F0FE
:107A30002D9A28EE33E0FA013197F1F721503040CA
:107A4000D1F72D9828EE33E0FA013197F1F7215064
:107A50003040D1F7815061F708953F924F925F9285
:107A60006F927F928F929F92AF92BF92CF92DF924E
:107A7000EF92FF920F931F93CF93DF93000080E16B
:107A80008093C4001092C50088E18093C10086E015
:107A90008093C2005098589A259A81E00E94143D24
:107AA00024E1F22E9EE1E92E85E9D82E0FE0C02ECA
:107AB00010E1B12EAA24A394B1E49B2EA6E58A2E50
:107AC000F2E57F2EE0E26E2E79E4572E63E5462E36
:107AD00050E5352E0E94763C8033B1F18133B9F107
:107AE000803409F46FC0813409F476C0823409F41B
:107AF00085C0853409F488C0803531F1823521F1A3
:107B0000813511F1853509F485C0863509F48DC0BC
:107B1000843609F496C0843709F403C1853709F423
:107B200072C1863709F466C0809103018F5F80932C
:107B30000301853079F6E0910401F0910501099582
:107B40000E94763C803351F60E94F33CC3CF0E94E2
:107B5000763C803249F78091C00085FFFCCFF092DF
:107B6000C6008091C00085FFFCCF9092C600809136
:107B7000C00085FFFCCF8092C6008091C00085FFC9
:107B8000FCCF7092C6008091C00085FFFCCF609250
:107B9000C6008091C00085FFFCCF5092C600809146
:107BA000C00085FFFCCF4092C6008091C00085FFD9
:107BB000FCCF3092C6008091C00085FFFCCFB09210
:107BC000C60088CF0E94763C863808F4BDCF0E945C
:107BD000763C0E94F33C7ECF0E94763C803809F4CC
:107BE0009CC0813809F40BC1823809F43CC1883942
:107BF00009F48FC080E00E94C73C6CCF84E10E94F2
:107C0000BD3C0E94F33C66CF85E00E94BD3C0E94D3
:107C1000F33C60CF0E94763C809306010E94763C44
:107C2000809307010E94F33C55CF0E94763C80333D
:107C300009F41DC183E00E94BD3C80E00E94C73C66
:107C400049CF0E94763C809309020E94763C809343
:107C5000080280910C028E7F80930C020E94763C79
:107C6000853409F415C18091080290910902892B8D
:107C700089F000E010E00E94763CF801E85FFE4FDA
:107C800080830F5F1F4F80910802909109020817AF
:107C9000190788F30E94763C803209F045CF809125
:107CA0000C0280FF01C16091060170910701660F0F
:107CB000771F7093070160930601A0910802B091AD
:107CC00009021097C9F0E8E0F1E09B01AD014E0F09
:107CD0005F1FF999FECF32BD21BD819180BDFA9A17
:107CE000F99A2F5F3F4FE417F50799F76A0F7B1F4B
:107CF00070930701609306018091C00085FFFCCF5F
:107D0000F092C6008091C00085FFFCCFB092C60003
:107D1000E1CE83E00E94C73CDDCE82E00E94C73CFA
:107D2000D9CE0E94763C809309020E94763C8093D3
:107D300008028091060190910701880F991F909386
:107D40000701809306010E94763C853409F4A6C0A1
:107D500080910C028E7F80930C020E94763C8032D0
:107D600009F0B8CE8091C00085FFFCCFF092C6002C
:107D7000609108027091090261157105B9F140E046
:107D800050E080910C02A82FA170B82FB27011C0E2
:107D9000BB2309F45CC0E0910601F0910701319624
:107DA000F0930701E09306014F5F5F4F46175707B7
:107DB000E8F4AA2369F3F999FECF209106013091E6
:107DC000070132BD21BDF89A90B58091C00085FFB2
:107DD000FCCF9093C6002F5F3F4F30930701209355
:107DE00006014F5F5F4F4617570718F38091C00099
:107DF00085FDE5CE8091C00085FFF8CFE0CE81E023
:107E00000E94C73C67CE0E94763C803209F08CCE3F
:107E10008091C00085FFFCCFF092C6008091C00029
:107E200085FFFCCFE092C6008091C00085FFFCCFAB
:107E3000D092C6008091C00085FFFCCFC092C600E2
:107E40008091C00085FFFCCFB092C60043CEE09188
:107E50000601F091070194918091C00085FFFCCF4D
:107E60009093C6009CCF80E10E94C73C33CE0E9415
:107E7000763C0E94763C182F0E94763C112309F430
:107E800083C0113009F484C08FE00E94C73C22CE29
:107E900080910C02816080930C02E5CE80910C02EF
:107EA000816080930C0259CF809107018823880F4D
:107EB000880B8A2180930B02809106019091070123
:107EC000880F991F90930701809306018091080203
:107ED00080FF09C080910802909109020196909359
:107EE000090280930802F894F999FECF1127E091D6
:107EF0000601F0910701C8E0D1E08091080290915D
:107F00000902103091F40091570001700130D9F34B
:107F100003E000935700E89500915700017001308D
:107F2000D9F301E100935700E89509901990009169
:107F3000570001700130D9F301E000935700E89534
:107F40001395103498F011270091570001700130FB
:107F5000D9F305E000935700E895009157000170B0
:107F60000130D9F301E100935700E895329602976A
:107F700009F0C7CF103011F00296E5CF112480919F
:107F8000C00085FFB9CEBCCE8EE10E94C73CA2CD19
:0C7F900085E90E94C73C9ECDF894FFCF0D
:027F9C00800063
:040000030000780081
:00000001FF
