:020000040000FA
:100000000C9462000C948A000C948A000C948A0070
:100010000C948A000C948A000C948A000C948A0038
:100020000C948A000C948A000C948A000C948A0028
:100030000C948A000C948A000C948A000C948A0018
:100040000C9421100C948A000C94EF0F0C94C90F9F
:100050000C948A000C948A000C948A000C948A00F8
:100060000C946B100C948A00000000002400270000
:100070002A0000000000250028002B0000000000DE
:1000800023002600290004040404040404040202DA
:100090000202020203030303030301020408102007
:1000A0004080010204081020010204081020000012
:1000B0000008000201000003040700000000000027
:1000C00000008A1111241FBECFEFD8E0DEBFCDBFE4
:1000D00011E0A0E0B1E0E8EFFCE202C005900D9273
:1000E000A63FB107D9F727E0A6EFB1E001C01D9206
:1000F000A73EB207E1F710E0C2E6D0E004C02197C6
:10010000FE010E947416C136D107C9F70E94D812A9
:100110000C947A160C940000AF92BF92CF92DF92AB
:10012000EF92FF920F931F93CF93DF936C017B01AC
:100130008B01040F151FEB015E01AE18BF08C0173D
:10014000D10759F06991D601ED91FC910190F081B0
:10015000E02DC6010995892B79F7C501DF91CF9173
:100160001F910F91FF90EF90DF90CF90BF90AF90D5
:100170000895FC01538D448D252F30E0842F90E0AD
:10018000821B930B541710F0CF9608950197089592
:10019000FC01918D828D981761F0A28DAE0FBF2F5B
:1001A000B11D5D968C91928D9F5F9F73928F90E0B1
:1001B00008958FEF9FEF0895FC01918D828D981720
:1001C00031F0828DE80FF11D858D90E008958FEF5D
:1001D0009FEF0895FC01918D228D892F90E0805C26
:1001E0009F4F821B91098F73992708958AEA92E0A5
:1001F0000E94EA0021E0892B09F420E0822F089573
:10020000FC01A48DA80FB92FB11DA35ABF4F2C918B
:10021000848D90E001968F739927848FA689B78982
:100220002C93A089B1898C91837080648C93938D79
:10023000848D981306C00288F389E02D80818F7D1C
:1002400080830895EF92FF920F931F93CF93DF93D4
:10025000EC0181E0888F9B8D8C8D98131AC0E88902
:10026000F989808185FF15C09FB7F894EE89FF89D1
:100270006083E889F98980818370806480839FBF6F
:1002800081E090E0DF91CF911F910F91FF90EF906F
:100290000895F62E0B8D10E00F5F1F4F0F7311277F
:1002A000E02E8C8D8E110CC00FB607FCFACFE889BA
:1002B000F989808185FFF5CFCE010E940001F1CF41
:1002C000EB8DEC0FFD2FF11DE35AFF4FF0829FB72E
:1002D000F8940B8FEA89FB8980818062CFCFCF931E
:1002E000DF93EC01888D8823B9F0AA89BB89E8895E
:1002F000F9898C9185FD03C0808186FD0DC00FB604
:1003000007FCF7CF8C9185FFF2CF808185FFEDCF81
:10031000CE010E940001E9CFDF91CF910895833093
:1003200081F028F4813099F08230A9F00895873067
:10033000A9F08830C9F08430B1F4809180008F7DBD
:1003400003C0809180008F7780938000089584B5EA
:100350008F7784BD089584B58F7DFBCF8091B000E9
:100360008F778093B00008958091B0008F7DF9CF92
:10037000CF93DF93282F30E0F901E255FF4F8491AE
:10038000F901E656FF4FD491F901EA57FF4FC491A6
:10039000CC23A1F081110E948F01EC2FF0E0EE0F31
:1003A000FF1FE458FF4FA591B491EC91ED2381E03C
:1003B00090E009F480E0DF91CF91089580E090E033
:1003C000FACF1F93CF93DF93282F30E0F901E25546
:1003D000FF4F8491F901E656FF4FD491F901EA5796
:1003E000FF4FC491CC23A9F0162F81110E948F01D9
:1003F000EC2FF0E0EE0FFF1FEE58FF4FA591B491E8
:100400008FB7F894EC91111108C0D095DE23DC93DE
:100410008FBFDF91CF911F910895DE2BF8CFCF933F
:10042000DF9390E0FC01E656FF4F24918A579F4FDF
:10043000FC0184918823D1F090E0880F991FFC0182
:10044000E859FF4FA591B491FC01EE58FF4FC591BB
:10045000D491623071F49FB7F8943C91822F8095CB
:1004600083238C93E8812E2B28839FBFDF91CF912C
:1004700008958FB7F894EC912E2B2C938FBFF6CF65
:100480003FB7F89480919C0290919D02A0919E02AA
:10049000B0919F0226B5A89B05C02F3F19F0019689
:1004A000A11DB11D3FBFBA2FA92F982F8827BC01CE
:1004B000CD01620F711D811D911D42E0660F771FF6
:1004C000881F991F4A95D1F708958F929F92AF92F6
:1004D000BF92CF92DF92EF92FF924B015C010E949C
:1004E00040026B017C010E9440026C197D098E095B
:1004F0009F09683E734081059105A8F321E0821AA7
:100500009108A108B10888EEC80E83E0D81EE11C4E
:10051000F11C81149104A104B10429F7FF90EF901C
:10052000DF90CF90BF90AF909F908F9008952FB79E
:10053000F894609198027091990280919A0290913A
:100540009B022FBF089520914B02260F3327331FA4
:1005500021323105ECF420917102FC0190E080E041
:10056000243069F082E00895A0914B022191AC0102
:10057000475D5D4FA40FB52FB11D2C9301968617D3
:1005800098F380914B02680F60934B0280E00895CE
:1005900081E00895ECEBF0E080818A7B808360E06D
:1005A00082E10E94E10160E083E10C94E10110929C
:1005B000710281E0809373021092720261E082E125
:1005C0000E94E10161E083E10E94E101E9EBF0E0DA
:1005D00080818E7F808380818D7F808388E480937B
:1005E000B80085E48093BC000895E0912102F09169
:1005F0002202309729F01092200210921F020994D3
:100600000895CF93DF93AC01E0911D02F0911E029B
:100610003097F1F090911C0280911B029817C0F066
:1006200090E0292F30E02617370754F4D901A55060
:10063000BE4F240F351FE90128812C939F5FF1CF16
:1006400010921C0260931B02CB01DF91CF910994A1
:10065000DF91CF9108950895E0911C0280911B02D3
:10066000E81730F4F0E0E550FE4F808190E0089507
:100670008FEF9FEF089590911C0280911B022FEF46
:100680003FEF981748F4E92FF0E0E550FE4F208146
:1006900030E09F5F90931C02C901089580911B0276
:1006A00090911C02891B990B0895CF93DF93CB0186
:1006B000EA01642F0E94A302CE01DF91CF91089539
:1006C000CF93DF931F92CDB7DEB7698361E0CE0190
:1006D00001960E94A30281E090E00F90DF91CF91FC
:1006E000089590E080E008959091FA01882349F000
:1006F00091110DC081E08093FA0161E08DE00C94CE
:10070000E101992321F01092FA0160E0F7CF0895FA
:10071000CF93C82F81E00E9474030E94CA02CC23A9
:1007200031F06AEF70E080E090E00E94650280E0C6
:100730000E947403C091000110921C0210921B02CF
:100740001092200210921F020E94D70285EF92E0C1
:1007500090934A028093490281E093E090934E0285
:1007600080934D02CC0FC093BA008DEA94E0909331
:100770001E0280931D028EE399E0909322028093E3
:10078000210280910001880F81608093BA00CF918F
:100790000895EF92FF920F931F93CF93DF93EC0195
:1007A000162F19828881883709F483C0A0F5813714
:1007B00009F43FC0823709F44DC0813591F58B8132
:1007C00092E099839C818927982789279C01245648
:1007D00031092C3A3642B8F4E0910101F09102015E
:1007E000EA5DFB4F208131812817390739F02091CC
:1007F000A5029183808322602093A5028091A502A7
:1008000081608093A5028091A5021111A4C080612E
:100810008093A50206C08A3771F108F489C08E372B
:1008200091F31882DF91CF911F910F91FF90EF907C
:10083000089581E089839B81E0910101F09102019B
:10084000E85DFB4F80818917F1F28091A5029083CA
:100850008460D7CF81E089839B81E0910101F09191
:100860000201E75DFB4F8081891769F28091A50243
:1008700090838860C6CF81E089832B8180910301BA
:10088000281708F0C0CFE0910101F09102018081AA
:10089000281709F4B8CF46E654E0249FC001259FED
:1008A000900D11248F579C4F90930201809301016A
:1008B000AACF80910101909102010FB7F8947C01B9
:1008C000EFECEE1AEBEFFE0AF7012081DC01A75AEC
:1008D000BB4F2C9397974D915D916D917C911397A0
:1008E00014962D913C91119736952795420F531FE1
:1008F000611D711D94964D935D936D937C93139739
:1009000092974C919C01225A3B4FF9014083AC01D4
:10091000415A5B4FFA0120812F5F20830FBF865D14
:100920009B4FFC011082F70110828FEF8C936BCFED
:1009300081E089838B81882329F062E08CE00E942A
:100940000F0261CF61E08CE00E940F0260E08CE05A
:100950000E94E10158CF80655BCFCF93DF93892B55
:1009600009F44DC087E493E00E943B038093530356
:10097000813508F447C081558E32E8F4E82FF0E065
:10098000EC5FFE4FC081CC23C1F110925503E09182
:100990005503CE1790F4A3E5B3E020E0D0E0AD011D
:1009A000435553404C175D07ECF413963C91139755
:1009B000230F1196F4CFCFEFE8CF90911B028091D7
:1009C0001C029817D1F087E493E00E943B039091BA
:1009D0005503E92FF0E0ED5AFC4F83839F5F90931E
:1009E0005503D5CFF0E0ED5AFC4F8281821305C04C
:1009F00060E083E593E00E94C90310925503DF9104
:100A0000CF910895C0911B0280911C02C817B9F3C1
:100A100080911C02C81799F387E493E00E943B037E
:100A2000F7CFCF93DF93FC01CB018D599F4FDB01B3
:100A30006F5F7F4F2C912132B4F086179707B9F77B
:100A400030E020E0A18181E08A0F8183AE0FBF2FCB
:100A5000B11D12961C922F5F3F4F2031310594F348
:100A6000DF91CF91089530E020E011968C91C18103
:100A700091E09C0F9183CE0FDF2FD11D8A832F5FD2
:100A80003F4F2031310561F38C91181674F3DACFA2
:100A9000DC011196EC911197AE0FB11D12967C936B
:100AA00022E02E0FDC0111962C93EF5FE80FF92F57
:100AB000F11D628308954F925F926F927F928F92A1
:100AC0009F92AF92BF92CF92DF92EF92FF920F93DD
:100AD0001F93CF93DF93CDB7DEB7E1970FB6F894AE
:100AE000DEBF0FBECDBF8C014A0180910101909104
:100AF0000201FC01E65DFB4F70808C5B9B4FDC01CB
:100B000018968D919C91DC01ED91FC910190F08102
:100B1000E02D0995811114C0E0910101F0910201CD
:100B2000EC5BFB4F82899389DC01ED91FC91019094
:100B3000F081E02D0995882309F49FC0689471F82D
:100B40007801BFEFEB1AFB0AF8018281A1E0A80F40
:100B5000A283E80FF11D73822091010130910201FF
:100B6000F901E75AFB4F958142E0480FF8014283B3
:100B7000A00FB12FB11D13969C93D901A65DBB4F59
:100B800050969C918D5F8283E40FF11D93832C5BC3
:100B90003B4FD90118968D919C91DC01ED91FC9110
:100BA0000190F081E02D09958111DCC0E0910101F7
:100BB000F0910201EC5BFB4F82899389DC01ED919E
:100BC000FC910190F081E02D0995882309F490C0F3
:100BD000E0910101F0910201EC5BFB4F8085918572
:100BE000DC01ED91FC910680F781E02D09952983C8
:100BF0003A834B835C836D837E838F839981F80175
:100C0000828121E0280F2283080F111DD80113963D
:100C10009C938A819B81AC81BD81B401681B790B57
:100C2000C7010E9448056E817F81C7010E94480567
:100C3000E0910101F0910201EC5BFB4F8085918511
:100C4000DC01ED91FC910084F185E02DE1960FB679
:100C5000F894DEBF0FBECDBFDF91CF911F910F91F2
:100C6000FF90EF90DF90CF90BF90AF909F908F90CC
:100C70007F906F905F904F900994E0910101F09107
:100C80000201EC5BFB4F80859185DC01ED91FC91CD
:100C90000680F781E02D09952BA73CA74DA75EA7FD
:100CA0006FA778AB89ABCCA4DDA4EEA4FFA4E09140
:100CB0000101F0910201EC5BFB4F82899389DC0119
:100CC000ED91FC910680F781E02D09952CA33DA3C1
:100CD0004EA35FA368A779A78AA78DA19EA1AFA104
:100CE000B8A5C816D906EA06FB0608F427CF28CF10
:100CF000E0910101F0910201EC5BFB4F8085918551
:100D0000DC01ED91FC910680F781E02D09952D8F96
:100D10003E8F4F8F58A369A37AA38BA34E8C5F8C11
:100D200068A079A0E0910101F0910201EC5BFB4F1A
:100D300082899389DC01ED91FC910680F781E02D99
:100D400009952E8B3F8B488F598F6A8F7B8F8C8FA5
:100D50008F89988DA98DBA8D481659066A067B062B
:100D600008F436CFE0910101F0910201EC5BFB4FFA
:100D700082899389DC01ED91FC910190F081E02D55
:100D80000995811184C0E0910101F0910201EC5BB1
:100D9000FB4F80859185DC01ED91FC910190F08104
:100DA000E02D09958823C9F1E0910101F09102013C
:100DB000EC5BFB4F82899389DC01ED91FC9106800D
:100DC000F781E02D099529833A834B835C836D83FA
:100DD0007E838F839981F801828121E0280F22830D
:100DE000080F111DD80113969C938A819B81AC81B9
:100DF000BD81B401681B790BC7010E9448056E8153
:100E00007F81C7010E944805E0910101F091020134
:100E1000EC5BFB4F8289938913CFE0910101F09144
:100E20000201EC5BFB4F82899389DC01ED91FC911F
:100E30000680F781E02D09952F87388B498B5A8BD7
:100E40006B8B7C8B8D8B488859886A887B88E09176
:100E50000101F0910201EC5BFB4F80859185DC0183
:100E6000ED91FC910680F781E02D0995288739875F
:100E70004A875B876C877D878E8789859A85AB8556
:100E8000BC85481659066A067B0608F48DCFF80122
:100E9000828191E0980F9283080F111DD80113965B
:100EA0001C9270E060E0C7010E94480570E060E0BD
:100EB000C701E1960FB6F894DEBF0FBECDBFDF913C
:100EC000CF911F910F91FF90EF90DF90CF90BF9047
:100ED000AF909F908F907F906F905F904F900C9409
:100EE0004805CF92DF92EF92FF920F931F93CF931B
:100EF000DF93EC018C010F5F1F4FC0900101D09078
:100F00000201760187EAE81A8BEFF80AF701868179
:100F1000EA8191E09E0F9A83EC0FFD2FF11D8383F0
:100F2000F70181819281A381B481BA01681B790B99
:100F3000C8010E944805D601A65DBB4F11969C9141
:100F400011978A8141E0480F4A839E01280F311D85
:100F5000F90193831F962C911F9792E0980F9A8323
:100F6000FE01E40FF11D2383F70120818D5F8A8349
:100F7000C90FD11D2B8352966D917D918D919C91BE
:100F80005597C801DF91CF911F910F91FF90EF907E
:100F9000DF90CF900C944805CF92DF92EF92FF92B2
:100FA0001F93CF93DF93EC01162F1A828881813330
:100FB00009F4A1C008F046C08E3009F494C040F591
:100FC000833009F46CC0B8F4882309F462C08A81C4
:100FD000882309F4E2C0FE01339650E040E090E03F
:100FE000282F30E0421753070CF0D1C06191960FC3
:100FF0004F5F5F4FF7CF853009F45AC08D3039F716
:101000000E949702AB01BC01CE010E9471075EC035
:10101000823209F47EC048F470E060E08131B9F6B4
:10102000CE0101960E94480556C0833209F474C06F
:10103000843269F6E0910101F0910201E65DFB4F17
:10104000808929C08C3309F491C088F4833309F472
:101050006BC008F457C0893309F485C0E0910101E1
:10106000F09102018A3309F0B2CF808114C08E332F
:1010700009F485C008F480C08F3309F483C06BED98
:1010800071E0803409F0A3CFCE0101960E941105D2
:1010900022C08091000191E09A838B831CC0E09173
:1010A0000101F0910201EA5DFB4F60817181B8CFCF
:1010B0000E9497026B017C01BC01A601CE010E9437
:1010C0007107B701A601CE010E945B058091A502C0
:1010D00080628093A5028091A502111156C08061A3
:1010E0008093A50274CF0E949702AB01BC01CE0190
:1010F0000E945B05F0CFE0910101F0910201E85DF3
:10110000FB4FB3CFE0910101F0910201E75DFB4F8E
:10111000ACCF63E275E284CFE0910101F09102016E
:10112000E65DFB4F8785B7CF0E949702EA81DE011B
:10113000AE0FB11D13969C93A1E0AE0FAC0FBD2F67
:10114000B11D13968C93A2E0AE0FAC0FBD2FB11D55
:1011500013967C9384E08E0F8A83ED5FEC0FFD2F56
:10116000F11D6383B8CF8091030195CFE091010118
:10117000F091020181818FCF66E871E085CF6EE941
:1011800071E082CF6EEB71E07FCF8065A9CF8F5F7A
:101190008A832C0F3D1FF90193831882DF91CF9131
:1011A0001F91FF90EF90DF90CF9008958AEA92E030
:1011B0000E94EA00892B09F45AC08AEA92E00E9450
:1011C000C800E0916C03E11129C080936A03813566
:1011D00090F081558E3268F4E82FF0E0EC5FFE4F1E
:1011E0008081882319F310926B038F5F80936C03C7
:1011F000DDCF8FEFF8CF61E08AE693E00E94CC0765
:1012000040916C03442391F250E06DE673E08AEA6A
:1012100092E00E948C0010926C03C8CF20916B0367
:1012200091E0920F90936B0330E0D901A659BC4F27
:1012300013968C93E913BACFAAE6B3E080E0AD0130
:101240004A5653404217530734F413969C91139710
:10125000890F1196F4CFF0E0E659FC4F9281981374
:10126000DACF61E08AE693E00E94C903D4CF089503
:101270000E94F60081110C94D608089560E083E581
:1012800093E00E94CC0740915503442349F050E07D
:1012900066E573E087E493E00E94550310925503DE
:1012A00008958D5F9B4FDC01ED91FC916081718110
:1012B000828193810895DC011396EC91E80FF92F58
:1012C000F11DEC5FFE4F808108950F931F93CF9324
:1012D000DF93FC018481882311F081508483828113
:1012E000811102C08FEF8283A281A150A283AE0F31
:1012F000BF2FB11D15969C9115978F010D5F1D4F46
:10130000291709F440C015962C93D8018FEF81500E
:101310003E91931711F08111FACFA82FB0E0EF01A1
:10132000CA0FDB1FCC5FDE4F28839217B0F4A1E019
:10133000A80FB0E0AC5FBE4FAE0FBF1F8E3F19F1DC
:10134000EF01C80FD11DCC5FDE4F98812C9129177A
:10135000D0F428839D938F5FF1CFAD5FBE4FAE0F6A
:10136000BF1F9F012D5F3E4FA217B30761F08C9105
:1013700011969C911197981730F49C9311968C9329
:1013800011971197F1CFEF01CB5FDB4F88819981E6
:101390000496DF01AD5FBB4F8A179B07E1F099838D
:1013A00088830990D881C02D488359836A837B83C1
:1013B000E95FFB4F80818038A1F48D919C9111975A
:1013C0000496A817B90751F08D939C93DF91CF91A4
:1013D0001F910F91089519830883E3CF0D931C93F8
:1013E000F5CF808191E0980F90838111EFCFCD935D
:1013F000DC93ECCF21E0FC018481811120E0822F7D
:1014000008950F931F93CF93DF93EC018B01E88135
:10141000F9810280F381E02D099581110EC0E881E8
:10142000F9810484F585E02DB801CE01099581E0AC
:10143000DF91CF911F910F91089580E0F9CFCF9266
:10144000DF92EF92FF920F931F93CF93DF938C0164
:101450000B5A1B4FD8012C912223A9F0F62EEFB680
:10146000F8946C01B2EBCB1ABBEFDB0AEC01CA5A61
:10147000DB4FB601888199810E94010A882361F0BF
:10148000F8011082EFBEDF91CF911F910F91FF9075
:10149000EF90DF90CF900895FF20A1F3888199818C
:1014A000DC01ED91FC910480F581E02DB6010995F8
:1014B000E7CFCF92DF92EF92FF920F931F93CF93DC
:1014C000DF938C01055B1B4FD8012C912223A9F0DF
:1014D000F62EEFB6F8946C01BCEBCB1ABBEFDB0A2F
:1014E000EC01C45BDB4FB601888199810E94010A3F
:1014F000882361F0F8011082EFBEDF91CF911F9138
:101500000F91FF90EF90DF90CF900895FF20A1F30F
:1015100088819981DC01ED91FC910480F581E02DB9
:10152000B6010995E7CF2F923F924F925F926F924B
:101530007F928F929F92AF92BF92CF92DF92EF9263
:10154000FF920F931F93CF93DF93EC017C010CED7F
:10155000E01A0BEFF00AD7018D919C91DC01ED911F
:10156000FC910280F381E02D0995F7018081918142
:10157000DC01ED91FC910190F081E02D0995FE01D7
:10158000E65DFB4F5F01882309F4D8C07196808126
:10159000882309F4D3C08E01055D1B4FD8018C91BF
:1015A0004E01B4ED8B1ABBEF9B0AF4018083D70187
:1015B0008D919C91DC01ED91FC910480F581E02DF1
:1015C0000995F8018083D7018D919C91DC01ED9103
:1015D000FC910680F781E02D09956E01B3EDCB1AE1
:1015E000BBEFDB0AF6016083718382839383D801AA
:1015F000EC90F4012081E21AFF089E01285A3B4F2B
:1016000039011E141F0424F561E0CE010E94590A1D
:10161000D8018C91FE01EC5BFB4F8083D6014D918C
:101620005D916D917C9141835283638374831682B3
:101630001582F301808118161CF081E033978083B6
:1016400020E8E216F1046CF16FE7E62EF12C29C0D8
:10165000E114F10409F4A2C061E0CE010E941F0A66
:10166000D8018C91FE01E25BFB4F8083D6014D9146
:101670005D916D917C914183528363837483168263
:101680001582F301808187FD05C081E0FE01E55BE5
:10169000FB4F8083F1E8EF16FFEFFF068CF671E851
:1016A000E72ED301EC9260E0CE010E94590A60E07F
:1016B000CE010E941F0AF8019081FE01E75CFB4FFA
:1016C0008081891718F4D8018C918083F80190816A
:1016D000FE01E65CFB4F8081981718F4D8018C91CD
:1016E0008083F5018081811109C0D8019C91FE01A0
:1016F000E85DFB4F8081981708F0D1C0F50180812B
:101700008111D1C0D5018C91882309F43FC1F80122
:101710009081FE01EF5CFB4F8081D801891708F0B2
:1017200001C18C918083D6014D915D916D917C9129
:101730004183528363837483168215820E94400220
:10174000FE01E05CFB4F00811181228133811B018E
:101750002C01201A310A420A530A92018101C45C09
:10176000DB4F088319832A833B83608371838283E1
:101770009383D5018C91DF91CF911F910F91FF90B1
:10178000EF90DF90CF90BF90AF909F908F907F9021
:101790006F905F904F903F902F9008953C914E0135
:1017A000BCEB8B1ABBEF9B0AF401208132133EC0C5
:1017B0003196208131814281538120813181428162
:1017C00053811B012C01221A330A440A550AA20133
:1017D0009101211531054140510528F520813181C4
:1017E00042815381621B730BFE01E75BFB4F7183E8
:1017F000608380819181019609F022CF61E0CE0162
:101800000E94590AF8018081D4018C93F6018081ED
:101810009181A281B381F40181839283A383B483F4
:10182000168215820DCF6FEF7FEFDECFD8013C918E
:101830004E01B2EB8B1ABBEF9B0AF40120813213ED
:10184000FFCE3196208131814281538120813181C7
:10185000428153811B012C01221A330A440A550A82
:10186000A20191012115310541405105A8F42081C3
:10187000318142815381621B730BFE01ED5AFB4F94
:101880007183608380819181019609F0D9CE61E0F6
:10189000CE010E941F0AB6CF6FEF7FEFEECF81E03F
:1018A000D5018C932FCFF8019081FE01E75DFB4FAE
:1018B0008081981708F026CF4FB7F894BE016F5C6F
:1018C0007B4FDB018C9198968C9397978D919D918E
:1018D0000D90BC91A02D9E012A5C3B4FF901208107
:1018E000318136952795820F931FA11DB11D9E0151
:1018F000265A3B4FF90180839183A283B3832252FE
:101900003109D9018C9196968C9311968C918F5FA9
:101910008C934FBFF5011082DB011C928FEFF90110
:101920008083F0CE9C918081981308CF7E01BEEC1D
:10193000EB1ABBEFFB0AF70180819181A281B38191
:10194000F60180819181A281B381F70140815181AB
:10195000628173811C012D01241A350A460A570A37
:10196000B201A101411551056140710560F440814A
:10197000518162817381841B950BFE01EA5CFB4FF0
:1019800091838083DBCE8FEF9FEFF7CFD8019C91BF
:10199000FE01E85CFB4F8081981708F0CFCE8C9158
:1019A0008083CCCE61E0FC0186810E94E1018BE165
:1019B00093E00197F1F7089560E0FC0186810E94B1
:1019C000E1018BE193E00197F1F708950F931F93E5
:1019D000CF93DF938C0160E0FC0182810E94E101E2
:1019E000CBEAD4E0CE010197F1F761E0F801848100
:1019F0000E94E101CE010197F1F760E0F8018481D6
:101A00000E94E1012197F1F7DF91CF911F910F9192
:101A100008950F931F93CF93DF938C0161E0FC0136
:101A200082810E94E101CBEAD4E0CE010197F1F777
:101A300061E0F80184810E94E101CE010197F1F794
:101A400060E0F80184810E94E1012197F1F7DF91C4
:101A5000CF911F910F910895CF92DF92EF92FF9255
:101A60001F93CF93DF93EC016A017B010E94D20C9C
:101A7000CE010E94DC0CCE010E94E60CCE010E9439
:101A8000090DCE010E94E60CCE010E94090DCE0187
:101A90000E94090D14E1CE01C0FE16C00E94090D7E
:101AA000F694E794D794C7941150A9F7CE010E94F9
:101AB000D20C60E08A81DF91CF911F91FF90EF906F
:101AC000DF90CF900C94E1010E94E60CE9CF1F93C8
:101AD000CF93DF93EC010E94D20CCE010E94DC0C6C
:101AE000CE010E94090DCE010E94090DCE010E9477
:101AF000090DCE010E94090DCE010E94090D14E1CD
:101B0000CE010E94E60C1150D9F7CE010E94D20CF2
:101B100043EF5DE06DE070E0CE01DF91CF911F916A
:101B20000C942C0DCF92DF92EF92FF920F931F93A4
:101B3000CF93DF93EC018C010F591B4FF80180818B
:101B4000882329F10E949702FE01EE59FB4FC080C5
:101B5000D180E280F380DC01CB018C199D09AE09B4
:101B6000BF0983329105A105B10578F433E2C32E94
:101B7000D12CE12CF12CA7019601281B390B4A0B23
:101B80005B0BCA01B9010E946502F80110828885C9
:101B90008E3008F08E508770806480937C00809136
:101BA0007A00806480937A0080917A0086FDFCCF71
:101BB000909178008091790089279827892781154D
:101BC000F2E09F0714F08FEF91E095958795DF91F4
:101BD000CF911F910F91FF90EF90DF90CF900895DC
:101BE000CF92DF92EF92FF920F931F93CF93DF93E9
:101BF000EC018B010E949702C090F601D090F70192
:101C0000E090F801F090F901DC01CB018C199D09FD
:101C1000AE09BF098E319105A105B10578F45EE1E9
:101C2000C52ED12CE12CF12CA7019601281B390BD4
:101C30004A0B5B0BCA01B9010E946502FE01EA5D15
:101C4000FB4F80819181AE01405A5B4F7A0187350D
:101C5000944099F44FEF5FEF6FE070E0CE010E9487
:101C60002C0D81E0F7018083DF91CF911F910F91BF
:101C7000FF90EF90DF90CF900895F7018081882347
:101C800029F0CE010E94670DF7011082B8016F5D47
:101C900071408B01169507950F71112726E07695F7
:101CA00067952A95E1F77695762F6627779567955C
:101CB000060F171FCE010E94D20CCE010E94DC0C31
:101CC000CE010E94090DCE010E94E60CCE010E94B9
:101CD000E60CCE010E94E60CCE010E94090D40E107
:101CE000F42ECE0100FF3AC00E94090D169507950B
:101CF000FA94F110F6CFCE010E94E60CCE010E94BC
:101D0000E60CCE010E94E60CCE010E94E60CCE014C
:101D10000E94D20C62E070E080E090E00E946502D8
:101D200060E08C810E94E10160E08A810E94E10113
:101D3000FE01EF59FB4F81E080830E949702CE594C
:101D4000DB4F688379838A839B836093F60170936A
:101D5000F7018093F8019093F90186CF0E94E60C79
:101D6000C5CF27E0FB01DC01129601900D922A9568
:101D7000E1F708952FEFFC0122830895CF93DF93BD
:101D800000D000D000D01F92CDB7DEB727E0FC0115
:101D90003296DE01119601900D922A95E1F7298184
:101DA0003A814B815C816D817E818F8190E02796A5
:101DB0000FB6F894DEBF0FBECDBFDF91CF9108956F
:101DC0000F931F93DC01FB01908112968C91129767
:101DD000981748F487E0129601900D928A95E1F7E2
:101DE0001F910F910895908112968C9112979813DC
:101DF000F7CF4181528163817481858196811396E9
:101E00000D911D912D913C911697401B510B480F40
:101E1000591F18965C934E931797E2CFFC0192815D
:101E200081E09F3F09F480E00895FC01928181E008
:101E30009F3F09F080E00895FC01128208950F93FE
:101E40001F93DC01FB01908112968C9112978917E8
:101E500048F487E0129601900D928A95E1F71F9160
:101E60000F910895908112968C9112979813F7CF45
:101E700041815281638174818581968113960D9190
:101E80001D912D913C911697401B510B480F591FE6
:101E900018965C934E931797E2CFFC01928181E0F4
:101EA000911101C080E00895FC01928181E09111BF
:101EB00080E00895CF93DF9385ED8093BC008091FF
:101EC000250290912602A0912702B0912802079640
:101ED000A11DB11D23E0B695A795979587952A95E5
:101EE000D1F72091BC0024FD03C0109271022BC0D9
:101EF000409125025091260260912702709128029C
:101F0000452B462B472B69F30097A105B10541F0FE
:101F100025E32A95F1F700000197A109B109E1CF66
:101F20008091240291E090932302882361F0C09174
:101F3000B800D091BA000E94CA020E94D702D09382
:101F4000BA00C093B800DF91CF9108951F93CF934B
:101F5000DF93EC010E941416182FCE0101960E9407
:101F6000141690E0982F8827810F911DDF91CF9153
:101F70001F9108951F93CF93DF93EC01172F0E94B9
:101F80001C16612FCE010196DF91CF911F910C9409
:101F90001C161F920F920FB60F9211242F933F938E
:101FA0004F935F936F937F938F939F93AF93BF9361
:101FB000EF93FF938AEA92E00E940001FF91EF9174
:101FC000BF91AF919F918F917F916F915F914F9151
:101FD0003F912F910F900FBE0F901F9018951F9259
:101FE0000F920FB60F9211242F938F939F93EF931D
:101FF000FF93E091BA02F091BB028081E091C002B0
:10200000F091C10282FD1BC090818091C3028F5F5D
:102010008F732091C402821741F0E091C302F0E077
:10202000E655FD4F958F8093C302FF91EF919F91ED
:102030008F912F910F900FBE0F901F901895808158
:10204000F4CF1F920F920FB60F9211242F933F934C
:102050008F939F93AF93BF93809198029091990231
:10206000A0919A02B0919B023091970223E0230F36
:102070002D3758F50196A11DB11D2093970280932D
:10208000980290939902A0939A02B0939B02809138
:102090009C0290919D02A0919E02B0919F02019698
:1020A000A11DB11D80939C0290939D02A0939E025E
:1020B000B0939F02BF91AF919F918F913F912F91CC
:1020C0000F900FBE0F901F90189526E8230F0296D1
:1020D000A11DB11DD2CF1F920F920FB60F921124E6
:1020E0002F933F934F935F936F937F938F939F9320
:1020F000AF93BF93EF93FF938091B900887F8036B1
:1021000009F44AC0F0F5883209F4A7C018F5803107
:1021100009F49BC0B8F4882309F4F9C0883009F4A5
:1021200094C0FF91EF91BF91AF919F918F917F915B
:102130006F915F914F913F912F910F900FBE0F9034
:102140001F901895883109F488C0803251F7809328
:10215000700214C0803409F49DC040F48033B9F398
:102160008833F9F68093700285ECB0C0803509F4AD
:1021700085C0883509F496C0883499F60E945A0FB4
:10218000D0CF883909F48CC038F5883729F050F45D
:10219000883611F0803729F683E08093710210921F
:1021A0006F0257C0883809F47BC0803919F0803835
:1021B00009F0B7CF80916F02803208F071C0E091D2
:1021C0006F0281E08E0F80936F028091BB00F0E080
:1021D000E15BFD4F80833DC0803B39F0E0F4803A05
:1021E00009F479C0883A09F09CCF84E080937102A9
:1021F00010924C0210924B02E0914902F0914A0277
:10220000099580914B0281110FC081E080934B02B0
:102210001092290209C0803C09F4A6CF883C09F439
:10222000A3CF883B09F07DCFE0914C0281E08E0F77
:1022300080934C02F0E0E75DFD4F80818093BB000E
:1022400090914C0280914B0229C08091960280931C
:10225000BB0085EC8093BC0064CF90919502809187
:102260009402981758F5E091950281E08E0F8093C3
:102270009502F0E0EC58FD4F8081E9CFE0919502A6
:1022800081E08E0F809395028091BB00F0E0EC58C6
:10229000FD4F808390919502809194029817C8F227
:1022A00085E8D8CFE091950281E08E0F809395026A
:1022B0008091BB00F0E0EC58FD4F80838091730269
:1022C00081115CCF81E08093720284EA8093BC002C
:1022D0001092710226CF85EC8093BC00109271029F
:1022E00080916F02803230F4E0916F02F0E0E15BA8
:1022F000FD4F108260916F0270E0E0914D02F0910D
:102300004E028FE492E0099510926F020ACF10926C
:10231000700234CF1092AD021092AC0288EE93E0BE
:10232000A0E0B0E08093AE029093AF02A093B00221
:10233000B093B10226E331E03093AB022093AA02BE
:1023400025EC30E03093B7022093B60224EC30E065
:102350003093B9022093B80220EC30E03093BB02F6
:102360002093BA0221EC30E03093BD022093BC02EE
:1023700022EC30E03093BF022093BE0226EC30E026
:102380003093C1022093C0021092C3021092C40283
:102390001092C5021092C60210924A03109249038D
:1023A00080934B0390934C03A0934D03B0934E0343
:1023B00088E491E0909348038093470310926B0365
:1023C00010926C03109254031092550310928103E3
:1023D000109282031092840310928303109286035A
:1023E00010928503109288031092870310928A033B
:1023F000109289038AE591E090938C0380938B037C
:102400008FEF80938D039FE790938E0380938F03CC
:10241000EFE8F4E080E993E01292DF01A150BF4FB2
:102420001C928E179F07C1F78EE895E090938F0757
:1024300080938E0790939107809390071092920754
:1024400086E691E090939407809393071092950706
:10245000109296071092970710929807109299077A
:1024600010929B0710929A0788E791E090939D073E
:1024700080939C078FEF80939E0710929F07109286
:10248000A0071092A1071092A2071092A407109221
:10249000A30728EA36E13093A8072093A70790E620
:1024A0009093A90790E59093AA071092AB0710921A
:1024B000AC071092AD071092AE071092AF071092C2
:1024C000B0071092B1071092B2071092B3071092A2
:1024D000B4071092B5071092B6071092B807109281
:1024E000B7078093B9071092BA078093BB07109281
:1024F000BC071092BD071092BE071092BF07109242
:10250000C0071092C1071092C2071092C307109221
:10251000C4071092DA071092DB071092DC071092C2
:10252000DD071092DE078093DF071092E00710921C
:10253000E1071092E2071092E3071092E40710926D
:10254000E5071092E6072BE833E03093A6072093C7
:10255000A5071092C5071092C6071092C7071092E0
:10256000C8071092C9071092CB071092CA071092A1
:10257000CC0723E937E03093CE072093CD07809333
:10258000CF071092D0071092D1071092D207109265
:10259000D3071092D5071092D4071092D6078CE972
:1025A00097E09093D8078093D7071092D9070895A2
:1025B000CF93DF9300D01F92CDB7DEB7789484B568
:1025C000826084BD84B5816084BD85B5826085BD2F
:1025D00085B5816085BD80916E00816080936E00BD
:1025E00010928100809181008260809381008091AF
:1025F0008100816080938100809180008160809360
:1026000080008091B10084608093B1008091B0001F
:1026100081608093B00080917A00846080937A001A
:1026200080917A00826080937A0080917A00816044
:1026300080937A0080917A00806880937A0010926B
:10264000C10061E08DE00E940F0221E020930301B0
:1026500010928103109282038BE090E090938403A8
:10266000809383038AE090E09093880380938703AC
:102670008DE090E090938603809385038EE090E058
:1026800090938A038093890361E08BE00E940F029C
:1026900061E0809187030E940F0261E080918503D1
:1026A0000E940F0261E0809187030E94E10160E0D7
:1026B000809185030E94E10160E0809183030E9484
:1026C000E10162E08CE00E940F0262E089E00E947A
:1026D0000F0262E082E00E940F0262E083E00E944B
:1026E0000F0262E084E00E940F0262E084E00E9438
:1026F0000F0262E085E00E940F0262E086E00E9425
:102700000F0262E087E00E940F0262E088E00E9410
:102710000F0264E670E080E090E00E94650285E0D0
:102720000E94B801892B09F04AC184E00E94B801D7
:10273000019709F08DC185E00E94B801892B09F04D
:1027400071C188E08093000189E00E94B80101977F
:10275000A9F5E091BA02F091BB0282E08083E0919A
:10276000B602F091B7021082E091B802F091B9027E
:1027700080E180831092C202E091BE02F091BF021C
:1027800086E08083E091BC02F091BD02808180618F
:102790008083E091BC02F091BD02808188608083DB
:1027A000E091BC02F091BD02808180688083E0915D
:1027B000BC02F091BD0280818F7D808380E00E9409
:1027C000880380917A00846080937A0080917A00F7
:1027D0008D7F80937A0080917A008E7F80937A003B
:1027E00088E090E00E94A60F8632954309F051C11F
:1027F00090E080E00E94A60F9093A8078093A7071F
:1028000082E090E00E94A60F8093A90784E090E008
:102810000E94A60F8093AA0781E893E00E94670DAB
:102820006091A7077091A80781E893E00E94F00DDE
:102830000E9440026093C1077093C2078093C30750
:102840009093C40784E1282E312C412C512C0FEF9A
:102850000E9497026B017C018091A6029091A702D1
:10286000A091A802B091A9028C159D05AE05BF05E7
:1028700008F0C2C18091030110E0823008F026C147
:1028800081E893E00E94920D282FB701A60181E80C
:1028900093E00E94930A682EE0910101F0910201F9
:1028A000FB83EA838FB7F8941091A502F12FF071A2
:1028B0007F2EF093A5028FBFAA80BB8025ECA21AC1
:1028C0002BEFB20AD501BC91B98310FF5FC08FB75F
:1028D000F894EA81FB81EA5DFB4F808091808FBF95
:1028E000B4018A819B810E94F00D21E0F5012083D3
:1028F00011FF4CC0B40190E080E00E94BA0FEA8161
:10290000FB81E65DFB4F1082EA81FB81EF5CFB4FB0
:102910001082EA81FB81E85CFB4F0083EA81FB8146
:10292000E75CFB4F1082EA81FB81E65CFB4F008392
:10293000EA81FB81EC5BFB4F1082EA81FB81E55B66
:10294000FB4F1082EA81FB81E45BFB4F8081918128
:10295000DC01ED91FC910284F385E02D0995EA817B
:10296000FB81E25BFB4F0083EA81FB81EB5AFB4F6B
:102970001082EA81FB81EA5AFB4F80819181DC0160
:10298000ED91FC910284F385E02D0995F50180819C
:10299000811104C015FF02C021E020838091A402B0
:1029A000882309F404C1772009F4B0C0C092A002C2
:1029B000D092A102E092A202F092A302C1C086E0EE
:1029C0000E94B801892B09F4B0CE87E00E94B801BB
:1029D000892B09F4AACE88E00E94B801892B09F45A
:1029E000A4CE1092000182E00E94B801892B09F464
:1029F0004CC083E00E94B80120910001892B19F49A
:102A000022602093000184E00E94B801209100011F
:102A1000892B19F4246020930001809100018C5FC0
:102A2000880F90CE86E00E94B801892B11F48AE0CD
:102A300089CE87E00E94B801892B11F48CE082CE08
:102A400088E00E94B801892B09F07ECE8EE07ACE14
:102A500085E00E94B801892B11F480E173CE86E0F5
:102A60000E94B801892B11F482E16CCE87E00E94AC
:102A7000B801892B11F484E165CE88E00E94B80189
:102A8000892B09F061CE86E15DCE31E03093000103
:102A9000B0CF6091A7077091A80790E080E00E94F6
:102AA000BA0F6091A90770E082E090E00E94BA0F2F
:102AB0006091AA0770E084E090E00E94BA0F66E29D
:102AC00075E388E090E00E94BA0FA6CE80910301E2
:102AD0001817D0F4A6E6B4E01A9FC0011B9F900D12
:102AE00011248F579C4F9B838A830E94920D282F1D
:102AF000B701A6018A819B810E94930A0E949702D6
:102B00006B017C011F5FE2CF612CC6CE8091A002D9
:102B10009091A102A091A202B091A302A7019601F7
:102B2000281B390B4A0B5B0BDA01C9018938934129
:102B3000A105B10528F01092A40281E00E9488034B
:102B400012FF0AC0EA81FB81E85DFB4F608170E003
:102B500082E090E00E94BA0F13FF0BC08A819B8134
:102B6000875D9B4FDC016C9170E084E090E00E94F7
:102B7000BA0FB9EECB16B3E0DB06E104F10410F5B1
:102B8000E4EFCE16E1E0DE06E104F10468F1C601EF
:102B9000845F914064E670E00E942A166D7F81E0B8
:102BA0006130710509F080E00E9474031DC0498105
:102BB000442331F215FFC4CF16FDC2CF51E050932C
:102BC000A402F4CEC701B601A20191010E943E16F3
:102BD000672B51F481E06110E7CF7720A9F081E005
:102BE0000E9474031092A502C092A602D092A7027E
:102BF000E092A802F092A9020E94F600882309F44C
:102C000027CE0E94D60824CEC701B60120ED37E0BA
:102C100040E050E00E943E1621E0672B682B692BB4
:102C200009F020E0822FC0CFF999FECF92BD81BD7F
:102C3000F89A992780B50895262FF999FECF1FBAE3
:102C400092BD81BD20BD0FB6F894FA9AF99A0FBED5
:102C50000196089597FB072E16F4009407D077FD90
:102C600009D00E94601607FC05D03EF4909581952E
:102C70009F4F0895709561957F4F0895A1E21A2E98
:102C8000AA1BBB1BFD010DC0AA1FBB1FEE1FFF1F10
:102C9000A217B307E407F50720F0A21BB30BE40B60
:102CA000F50B661F771F881F991F1A9469F76095A7
:102CB0007095809590959B01AC01BD01CF01089561
:102CC000AA1BBB1B51E107C0AA1FBB1FA617B70752
:102CD00010F0A61BB70B881F991F5A95A9F780956E
:102CE0009095BC01CD010895EE0FFF1F0590F49162
:102CF000E02D0994F894FFCF0681030102FFFFFF46
:102D0000FFFFFFFFFFFFFFFFFFFFFFFFFFFFFFFFD3
:102D1000FFFFFFFFFFFFFFFFFFFFFFFF0101FFFFBF
:102D2000FFFFFF010101FFFFFF0100000000220182
:102D30008C00B9006F01EA00C800DC000000000050
:102D40006003550371032B034E033B032C03000068
:102D50000000FA0965095B09510900000000540FE1
:102D60004D0F1F0FBE0E1C0F1C0FB10E00000000F8
:102D7000150F0E0FE00EBE0EBA0EBA0EB10E46497A
:102D8000524D574152455F56455253494F4E3A2096
:102D9000312E312E32004649524D574152455F4245
:102DA00055494C44444154453A204D6172203237D4
:102DB0002032303231004649524D574152455F4230
:102DC00055494C4454494D453A2031323A35373A09
:102DD0003531004649524D574152455F50524F439D
:0E2DE000545950453A2041726475696E6F0077
:107800000C94343C0C94513C0C94513C0C94513CE1
:107810000C94513C0C94513C0C94513C0C94513CB4
:107820000C94513C0C94513C0C94513C0C94513CA4
:107830000C94513C0C94513C0C94513C0C94513C94
:107840000C94513C0C94513C0C94513C0C94513C84
:107850000C94513C0C94513C0C94513C0C94513C74
:107860000C94513C0C94513C11241FBECFEFD8E036
:10787000DEBFCDBF11E0A0E0B1E0ECE9FFE702C060
:1078800005900D92A230B107D9F712E0A2E0B1E065
:1078900001C01D92AD30B107E1F70E942D3D0C945F
:1078A000CC3F0C94003C982F959595959595959582
:1078B000905D8F708A307CF0282F295A8091C0000B
:1078C00085FFFCCF9093C6008091C00085FFFCCF60
:1078D0002093C6000895282F205DF0CF982F809127
:1078E000C00085FFFCCF9093C6000895EF92FF92F1
:1078F0000F931F93EE24FF2487018091C00087FD22
:1079000017C00894E11CF11C011D111D81E4E8164B
:1079100082E4F8068FE0080780E0180770F3E09132
:107920000401F091050109958091C00087FFE9CF1E
:107930008091C6001F910F91FF90EF9008950E94D3
:10794000763C982F8091C00085FFFCCF9093C600B5
:1079500091362CF490330CF09053892F089597555D
:10796000892F08951F930E949F3C182F0E949F3CCF
:107970001295107F810F1F9108951F93182F882350
:1079800021F00E94763C1150E1F71F9108951F935A
:10799000182F0E94763C803249F0809103018F5F5E
:1079A000809303018530C1F01F9108958091C0003C
:1079B00085FFFCCF84E18093C6008091C00085FFE5
:1079C000FCCF1093C6008091C00085FFFCCF80E102
:1079D0008093C6001F910895E0910401F091050184
:1079E00009951F9108950E94763C803241F0809164
:1079F00003018F5F80930301853081F008958091AA
:107A0000C00085FFFCCF84E18093C6008091C00058
:107A100085FFFCCF80E18093C6000895E0910401CA
:107A2000F09105010995089540E951E08823A1F0FE
:107A30002D9A28EE33E0FA013197F1F721503040CA
:107A4000D1F72D9828EE33E0FA013197F1F7215064
:107A50003040D1F7815061F708953F924F925F9285
:107A60006F927F928F929F92AF92BF92CF92DF924E
:107A7000EF92FF920F931F93CF93DF93000080E16B
:107A80008093C4001092C50088E18093C10086E015
:107A90008093C2005098589A259A81E00E94143D24
:107AA00024E1F22E9EE1E92E85E9D82E0FE0C02ECA
:107AB00010E1B12EAA24A394B1E49B2EA6E58A2E50
:107AC000F2E57F2EE0E26E2E79E4572E63E5462E36
:107AD00050E5352E0E94763C8033B1F18133B9F107
:107AE000803409F46FC0813409F476C0823409F41B
:107AF00085C0853409F488C0803531F1823521F1A3
:107B0000813511F1853509F485C0863509F48DC0BC
:107B1000843609F496C0843709F403C1853709F423
:107B200072C1863709F466C0809103018F5F80932C
:107B30000301853079F6E0910401F0910501099582
:107B40000E94763C803351F60E94F33CC3CF0E94E2
:107B5000763C803249F78091C00085FFFCCFF092DF
:107B6000C6008091C00085FFFCCF9092C600809136
:107B7000C00085FFFCCF8092C6008091C00085FFC9
:107B8000FCCF7092C6008091C00085FFFCCF609250
:107B9000C6008091C00085FFFCCF5092C600809146
:107BA000C00085FFFCCF4092C6008091C00085FFD9
:107BB000FCCF3092C6008091C00085FFFCCFB09210
:107BC000C60088CF0E94763C863808F4BDCF0E945C
:107BD000763C0E94F33C7ECF0E94763C803809F4CC
:107BE0009CC0813809F40BC1823809F43CC1883942
:107BF00009F48FC080E00E94C73C6CCF84E10E94F2
:107C0000BD3C0E94F33C66CF85E00E94BD3C0E94D3
:107C1000F33C60CF0E94763C809306010E94763C44
:107C2000809307010E94F33C55CF0E94763C80333D
:107C300009F41DC183E00E94BD3C80E00E94C73C66
:107C400049CF0E94763C809309020E94763C809343
:107C5000080280910C028E7F80930C020E94763C79
:107C6000853409F415C18091080290910902892B8D
:107C700089F000E010E00E94763CF801E85FFE4FDA
:107C800080830F5F1F4F80910802909109020817AF
:107C9000190788F30E94763C803209F045CF809125
:107CA0000C0280FF01C16091060170910701660F0F
:107CB000771F7093070160930601A0910802B091AD
:107CC00009021097C9F0E8E0F1E09B01AD014E0F09
:107CD0005F1FF999FECF32BD21BD819180BDFA9A17
:107CE000F99A2F5F3F4FE417F50799F76A0F7B1F4B
:107CF00070930701609306018091C00085FFFCCF5F
:107D0000F092C6008091C00085FFFCCFB092C60003
:107D1000E1CE83E00E94C73CDDCE82E00E94C73CFA
:107D2000D9CE0E94763C809309020E94763C8093D3
:107D300008028091060190910701880F991F909386
:107D40000701809306010E94763C853409F4A6C0A1
:107D500080910C028E7F80930C020E94763C8032D0
:107D600009F0B8CE8091C00085FFFCCFF092C6002C
:107D7000609108027091090261157105B9F140E046
:107D800050E080910C02A82FA170B82FB27011C0E2
:107D9000BB2309F45CC0E0910601F0910701319624
:107DA000F0930701E09306014F5F5F4F46175707B7
:107DB000E8F4AA2369F3F999FECF209106013091E6
:107DC000070132BD21BDF89A90B58091C00085FFB2
:107DD000FCCF9093C6002F5F3F4F30930701209355
:107DE00006014F5F5F4F4617570718F38091C00099
:107DF00085FDE5CE8091C00085FFF8CFE0CE81E023
:107E00000E94C73C67CE0E94763C803209F08CCE3F
:107E10008091C00085FFFCCFF092C6008091C00029
:107E200085FFFCCFE092C6008091C00085FFFCCFAB
:107E3000D092C6008091C00085FFFCCFC092C600E2
:107E40008091C00085FFFCCFB092C60043CEE09188
:107E50000601F091070194918091C00085FFFCCF4D
:107E60009093C6009CCF80E10E94C73C33CE0E9415
:107E7000763C0E94763C182F0E94763C112309F430
:107E800083C0113009F484C08FE00E94C73C22CE29
:107E900080910C02816080930C02E5CE80910C02EF
:107EA000816080930C0259CF809107018823880F4D
:107EB000880B8A2180930B02809106019091070123
:107EC000880F991F90930701809306018091080203
:107ED00080FF09C080910802909109020196909359
:107EE000090280930802F894F999FECF1127E091D6
:107EF0000601F0910701C8E0D1E08091080290915D
:107F00000902103091F40091570001700130D9F34B
:107F100003E000935700E89500915700017001308D
:107F2000D9F301E100935700E89509901990009169
:107F3000570001700130D9F301E000935700E89534
:107F40001395103498F011270091570001700130FB
:107F5000D9F305E000935700E895009157000170B0
:107F60000130D9F301E100935700E895329602976A
:107F700009F0C7CF103011F00296E5CF112480919F
:107F8000C00085FFB9CEBCCE8EE10E94C73CA2CD19
:0E7F900085E90E94C73C9ECDF894FFCF80008B
:00000001FF
