:100000000C9462000C948A000C948A000C948A0070
:100010000C948A000C948A000C948A000C948A0038
:100020000C948A000C948A000C948A000C948A0028
:100030000C948A000C948A000C948A000C948A0018
:100040000C94EF080C948A000C94BD080C9497084B
:100050000C948A000C948A000C948A000C948A00F8
:100060000C9439090C948A00000000002400270039
:100070002A0000000000250028002B0000000000DE
:1000800023002600290004040404040404040202DA
:100090000202020203030303030301020408102007
:1000A0004080010204081020010204081020000012
:1000B0000008000201000003040700000000000027
:1000C0000000580A11241FBECFEFD8E0DEBFCDBF1D
:1000D00011E0A0E0B1E0E8E3FFE102C005900D927D
:1000E000A239B107D9F727E0A2E9B1E001C01D921A
:1000F000A531B207E1F710E0C2E6D0E004C02197D5
:10010000FE010E94940FC136D107C9F70E94990AD7
:100110000C949A0F0C940000AF92BF92CF92DF9292
:10012000EF92FF920F931F93CF93DF936C017B01AC
:100130008B01040F151FEB015E01AE18BF08C0173D
:10014000D10759F06991D601ED91FC910190F081B0
:10015000E02DC6010995892B79F7C501DF91CF9173
:100160001F910F91FF90EF90DF90CF90BF90AF90D5
:100170000895FC01538D448D252F30E0842F90E0AD
:10018000821B930B541710F0CF9608950197089592
:10019000FC01918D828D981761F0A28DAE0FBF2F5B
:1001A000B11D5D968C91928D9F5F9F73928F90E0B1
:1001B00008958FEF9FEF0895FC01918D828D981720
:1001C00031F0828DE80FF11D858D90E008958FEF5D
:1001D0009FEF0895FC01918D228D892F90E0805C26
:1001E0009F4F821B91098F73992708958EE396E0A4
:1001F0000E94EA0021E0892B09F420E0822F089573
:10020000FC01A48DA80FB92FB11DA35ABF4F2C918B
:10021000848D90E001968F739927848FA689B78982
:100220002C93A089B1898C91837080648C93938D79
:10023000848D981306C00288F389E02D80818F7D1C
:1002400080830895EF92FF920F931F93CF93DF93D4
:10025000EC0181E0888F9B8D8C8D98131AC0E88902
:10026000F989808185FF15C09FB7F894EE89FF89D1
:100270006083E889F98980818370806480839FBF6F
:1002800081E090E0DF91CF911F910F91FF90EF906F
:100290000895F62E0B8D10E00F5F1F4F0F7311277F
:1002A000E02E8C8D8E110CC00FB607FCFACFE889BA
:1002B000F989808185FFF5CFCE010E940001F1CF41
:1002C000EB8DEC0FFD2FF11DE35AFF4FF0829FB72E
:1002D000F8940B8FEA89FB8980818062CFCFCF931E
:1002E000DF93EC01888D8823B9F0AA89BB89E8895E
:1002F000F9898C9185FD03C0808186FD0DC00FB604
:1003000007FCF7CF8C9185FFF2CF808185FFEDCF81
:10031000CE010E940001E9CFDF91CF910895833093
:1003200081F028F4813099F08230A9F00895873067
:10033000A9F08830C9F08430B1F4809180008F7DBD
:1003400003C0809180008F7780938000089584B5EA
:100350008F7784BD089584B58F7DFBCF8091B000E9
:100360008F778093B00008958091B0008F7DF9CF92
:10037000CF93DF93282F30E0F901E255FF4F8491AE
:10038000F901E656FF4FD491F901EA57FF4FC491A6
:10039000CC23A1F081110E948F01EC2FF0E0EE0F31
:1003A000FF1FE458FF4FA591B491EC91ED2381E03C
:1003B00090E009F480E0DF91CF91089580E090E033
:1003C000FACF1F93CF93DF93282F30E0F901E25546
:1003D000FF4F8491F901E656FF4FD491F901EA5796
:1003E000FF4FC491CC23A9F0162F81110E948F01D9
:1003F000EC2FF0E0EE0FFF1FEE58FF4FA591B491E8
:100400008FB7F894EC91111108C0D095DE23DC93DE
:100410008FBFDF91CF911F910895DE2BF8CFCF933F
:10042000DF9390E0FC01E656FF4F24918A579F4FDF
:10043000FC0184918823D1F090E0880F991FFC0182
:10044000E859FF4FA591B491FC01EE58FF4FC591BB
:10045000D491623071F49FB7F8943C91822F8095CB
:1004600083238C93E8812E2B28839FBFDF91CF912C
:1004700008958FB7F894EC912E2B2C938FBFF6CF65
:100480003FB7F89480912A0290912B02A0912C0200
:10049000B0912D0226B5A89B05C02F3F19F00196FB
:1004A000A11DB11D3FBFBA2FA92F982F8827BC01CE
:1004B000CD01620F711D811D911D42E0660F771FF6
:1004C000881F991F4A95D1F708958F929F92AF92F6
:1004D000BF92CF92DF92EF92FF924B015C010E949C
:1004E00040026B017C010E9440026C197D098E095B
:1004F0009F09683E734081059105A8F321E0821AA7
:100500009108A108B10888EEC80E83E0D81EE11C4E
:10051000F11C81149104A104B10429F7FF90EF901C
:10052000DF90CF90BF90AF909F908F90089585ED12
:100530008093BC008091BC0084FDFCCF109203022C
:1005400008952091DD01260F3327331F2132310515
:10055000ECF420910302FC0190E080E0243069F08B
:1005600082E00895A091DD012191AC0145545E4FD8
:10057000A40FB52FB11D2C930196861798F3809187
:10058000DD01680F6093DD0180E0089581E008954A
:10059000E091B901F091BA01309729F01092B801B9
:1005A0001092B70109940895CF93DF93AC01E091C5
:1005B000B501F091B6013097F1F09091B4018091BE
:1005C000B3019817C0F090E0292F30E026173707C5
:1005D00054F4D901AD56BE4F240F351FE9012881CF
:1005E0002C939F5FF1CF1092B4016093B301CB01C4
:1005F000DF91CF910994DF91CF9108950895E09113
:10060000B4018091B301E81730F4F0E0ED56FE4FED
:10061000808190E008958FEF9FEF08959091B4014D
:100620008091B3012FEF3FEF981748F4E92FF0E0E6
:10063000ED56FE4F208130E09F5F9093B401C901D9
:1006400008958091B3019091B401891B990B08958D
:10065000CF93DF93CB01EA01642F0E94A102CE0168
:10066000DF91CF910895CF93DF931F92CDB7DEB77F
:10067000698361E0CE0101960E94A10281E090E0D1
:100680000F90DF91CF91089590E080E008952FB70B
:10069000F894EBE2F1E08781A0E0B1E08C93408533
:1006A0005185628573858485958596958795480FD4
:1006B000591F611D711D11964D935D936D937C9330
:1006C0001497868515968C93159716968C91169788
:1006D0008F5F16968C932FBF108217828FEF8687BD
:1006E0000895FC01ABE2B1E011968C9111978083E3
:1006F00013968D919D910D90BC91A02D8183928335
:10070000A383B48316821582089590911E019923C4
:1007100091F02FB7F89490911F019F3F69F487E003
:10072000E7E1F1E0AFE1B1E001900D928A95E1F7E8
:1007300010921E012FBF08958823E1F390911701B5
:1007400080911F01981758F39091170180911F0114
:100750009813EECF8091180190911901A0911A0180
:10076000B0911B01E0911C01F0911D01409120010D
:100770005091210160912201709123018E0F9F1FE2
:10078000841B950B9093250180932401D1CF9091E8
:100790000F01992391F02FB7F894909110019111C6
:1007A0000DC087E0E8E0F1E0A0E1B1E001900D923A
:1007B0008A95E1F710920F012FBF08958823E1F386
:1007C0009091080180911001891758F390910801C8
:1007D000809110019813EECF8091090190910A0148
:1007E000A0910B01B0910C01E0910D01F0910E016F
:1007F0004091110150911201609113017091140107
:100800008E0F9F1F841B950B9093160180931501EB
:10081000D1CF90919201882349F091110DC081E0D0
:100820008093920161E08DE00C94E101992321F025
:100830001092920160E0F7CF0895CF93C82F81E026
:100840000E9409048091BC008A7B8093BC0060E018
:1008500082E10E94E10160E083E10E94E101CC239A
:1008600031F06AEF70E080E090E00E94650280E085
:100870000E940904C09107011092B4011092B301C3
:100880001092B8011092B7011092030281E0809398
:1008900005021092040261E082E10E94E10161E040
:1008A00083E10E94E1018091B9008E7F8093B900BD
:1008B0008091B9008D7F8093B90088E48093B8005F
:1008C00085E48093BC0088EC92E09093DC018093F7
:1008D000DB0184ED92E09093E0018093DF01CC0F87
:1008E000C093BA0080E198E09093B6018093B5017F
:1008F00086E297E09093BA018093B9018091070155
:10090000880F81608093BA00CF910895CF93DF93D1
:10091000CBE8D1E0CE010197F1F761E08AE00E94D7
:10092000E1012197F1F7DF91CF910895CF93DF9304
:10093000CBE8D1E0CE010197F1F760E08AE00E94B8
:10094000E1012197F1F7DF91CF910895CF93DF93E4
:1009500060E08DE00E94E101CBEAD4E0CE01019796
:10096000F1F760E08BE00E94E101CE010197F1F721
:1009700061E08DE00E94E101CE010197F1F760E0B6
:100980008DE00E94E1012197F1F7DF91CF91089569
:10099000CF93DF9360E08DE00E94E101CBEAD4E0E9
:1009A000CE010197F1F761E08BE00E94E101CE01F9
:1009B0000197F1F761E08DE00E94E101CE0101971E
:1009C000F1F760E08DE00E94E1012197F1F7DF91FE
:1009D000CF9108951F93CF93DF938F5D9140EC01EA
:1009E000D695C795CF71DD2736E0969587953A95D0
:1009F000E1F79695982F882797958795C80FD91F67
:100A00000E94860462E070E080E090E00E9465024F
:100A10000E9496040E94A6040E94A6040E94A604B6
:100A20000E94C8040E94A60414E10E94A60411506A
:100A3000E1F70E94860462E070E080E090E00E94AE
:100A400065020E9496040E9486040E9496040E94F9
:100A5000C8040E94A6040E94A6040E94A6040E9444
:100A6000C80410E1C0FF25C00E94C804D695C795F0
:100A70001150C1F70E94A6040E94A6040E94A60479
:100A80000E94A6040E94860462E070E080E090E08C
:100A90000E94650260E08AE00E94E10160E08DE072
:100AA0000E94E10160E08BE0DF91CF911F910C94F7
:100AB000E1010E94A604DACFDC011196EC911197B6
:100AC000AE0FB11D12967C9322E02E0FDC01119621
:100AD0002C93EF5FE80FF92FF11D628308954F9279
:100AE0005F926F927F92BF92CF92DF92EF92FF92CE
:100AF0000F931F93CF93DF93EC01B62E1A82888158
:100B0000833209F488C140F5833009F462C0C0F42F
:100B1000882309F458C08A81882309F488C1AE016A
:100B20004D5F5F4FFA0190E0282F30E0BF01641B5A
:100B3000750B621773070CF073C16191960FF6CFB6
:100B4000853009F44BC066E175E2823221F7CE01AF
:100B500001960E945C05FDC0813309F456C128F45A
:100B60008432C9F680913B0130C0823309F450C110
:100B7000833389F62FB7F89480912E0290912F023B
:100B8000A0913002B09131022FBF4A819E01240F03
:100B9000311DF901B38321E0240F2C0F3D2F311DAE
:100BA000F901A38322E0240F2C0F3D2F311DF90101
:100BB000938324E0240F2A83E3E0E40FEC0FFD2F5E
:100BC000F11D8383C6C08091070191E09A838B83D6
:100BD000C0C06091270170912801B9CF8FB7F894F8
:100BE000C0902E02D0902F02E0903002F09031029F
:100BF0008FBF809106018E010F5F1F4FEA8191E048
:100C00009E0F9A83EC0FFD2FF11D838380910101CC
:100C100090910201A0910301B0910401B601681BFB
:100C2000790BC8010E945C0520912C01EA8131E01A
:100C30003E0F3A83CE018E0F911DDC0113962C934B
:100C400080913A01DE01A30FB11D13968C93809120
:100C5000000193E09E0F9A83EE5FEC0FFD2FF11DD4
:100C6000838360913D0170913E0180913F0190919D
:100C70004001C8010E945C0590912B0180911001F8
:100C80008823D1F080911F018F3FA9F0409011017E
:100C90005090120160901301709014014091200156
:100CA0005091210160912201709123014416550653
:100CB0006606770608F492608A81FE01E80FF11D4E
:100CC000938320910501A2E0A80FAA83E1E0E80F39
:100CD000EC0FFD2FF11D238320913B01E3E0E80F92
:100CE000EA83AC0FBD2FB11D13962C938C5FEC0FD4
:100CF000FD2FF11D91FF35C0909110018A839383E0
:100D00008091110190911201A0911301B0911401F1
:100D1000B601681B790BC8010E945C054091110166
:100D2000509112016091130170911401809115018D
:100D300090911601B601641B750B681B790BC801F5
:100D40000E945C05109210018091390680628093A8
:100D5000390680913906B11061C0806180933906EF
:100D6000DACE90911F019F3FC9F090911001992315
:100D700011F140902001509021016090220170906B
:100D80002301409111015091120160911301709162
:100D90001401441655066606770668F08A831382A6
:100DA00070E060E0C8010E945C0570E060E0C8018E
:100DB0000E945C05C9CF90911F018A839383809123
:100DC000200190912101A0912201B0912301B6014F
:100DD000681B790BC8010E945C054091200150916D
:100DE0002101609122017091230180912401909151
:100DF0002501B601641B750B681B790BC8010E94A5
:100E00005C058FEF80931F019FCF80912901DDCE7C
:100E100080912A01DACE80913A01D7CE80659ECFAB
:100E20008F5F8A832C0F3D1FD90113969C931882E4
:100E3000DF91CF911F910F91FF90EF90DF90CF90B6
:100E4000BF907F906F905F904F90089560E08EEF1D
:100E500096E00E946F0540910007442349F050E05E
:100E600061E077E08BED96E00E9428031092000786
:100E700008951F93CF93DF93EC01162F1982888179
:100E8000823709F452C050F48135C1F0813709F43A
:100E90003FC01882DF91CF911F910895883709F4E0
:100EA00051C08937B1F781E089838B81882309F4A8
:100EB0004CC062E08CE00E940F0222C08B8192E065
:100EC00099839C818927982789279C012456310979
:100ED0002C3A3642A8F42091270130912801281796
:100EE000390749F020913906909328018093270112
:100EF00022602093390680913906816080933906FB
:100F00008091390611112AC0806180933906C1CFC2
:100F100081E089839B8180912901891789F38091E0
:100F20003906909329018460E9CF81E089839B8110
:100F300080912A01891721F38091390690932A0123
:100F40008860DCCF0E944703DBCF61E08CE00E9429
:100F50000F0260E08CE00E94E101D2CF8065D5CF26
:100F60008EE396E00E94C800E091E906E11129C0F5
:100F70008093E706813590F08155893268F4E82F37
:100F8000F0E0EB5BFE4F80818823D1F01092E80601
:100F90008F5F8093E90608958FEFF8CF61E087EEC9
:100FA00096E00E946F054091E906442349F050E025
:100FB0006AEE76E08EE396E00E948C001092E906DD
:100FC00008952091E80691E0920F9093E80630E0B2
:100FD000D901A951B94F13968C93E913F1CFA7EE1C
:100FE000B6E080E0AD01475E56404217530734F447
:100FF00013969C911397890F1196F4CFF0E0E95165
:10100000F94F92819813DACF61E087EE96E00E9463
:101010003907D4CF0E94F60081110C94B0070895CF
:10102000CF93DF93892B09F44DC08BED96E00E949E
:101030000E038093FE06813508F447C0815589323E
:10104000E8F4E82FF0E0EB5BFE4FC081CC23C1F168
:1010500010920007E0910007CE1790F4AEEFB6E0D3
:1010600020E0D0E0AD014E5F56404C175D07ECF438
:1010700013963C911397230F1196F4CFCFEFE8CF3F
:101080009091B3018091B4019817D1F08BED96E067
:101090000E940E0390910007E92FF0E0E250F94F13
:1010A00083839F5F90930007D5CFF0E0E250F94F24
:1010B0008281821305C060E08EEF96E00E943907BE
:1010C00010920007DF91CF910895C091B3018091F4
:1010D000B401C817B9F38091B401C81799F38BED27
:1010E00096E00E940E03F7CF1F93CF93DF93EC019E
:1010F0000E94340F182FCE0101960E94340F90E009
:10110000982F8827810F911DDF91CF911F9108950E
:101110001F93CF93DF93EC01172F0E943C0F612F99
:10112000CE010196DF91CF911F910C943C0F1F923D
:101130000F920FB60F9211242F933F934F935F930B
:101140006F937F938F939F93AF93BF93EF93FF938F
:101150008EE396E00E940001FF91EF91BF91AF9165
:101160009F918F917F916F915F914F913F912F91BF
:101170000F900FBE0F901F9018951F920F920FB6F1
:101180000F9211242F938F939F93EF93FF93E091EE
:101190004E06F0914F068081E0915406F09155067D
:1011A00082FD1BC09081809157068F5F8F732091C5
:1011B0005806821741F0E0915706F0E0E25CF94FE3
:1011C000958F80935706FF91EF919F918F912F916B
:1011D0000F900FBE0F901F9018958081F4CF1F9233
:1011E0000F920FB60F9211242F933F938F939F93DB
:1011F000AF93BF9380912E0290912F02A091300265
:10120000B09131023091290223E0230F2D3758F598
:101210000196A11DB11D2093290280932E02909367
:101220002F02A0933002B093310280912A02909154
:101230002B02A0912C02B0912D020196A11DB11D8F
:1012400080932A0290932B02A0932C02B0932D023C
:10125000BF91AF919F918F913F912F910F900FBEB2
:101260000F901F90189526E8230F0296A11DB11D1F
:10127000D2CF1F920F920FB60F9211242F933F934C
:101280004F935F936F937F938F939F93AF93BF938E
:10129000EF93FF938091B900887F803609F44AC0AC
:1012A000F0F5883209F4A7C018F5803109F49BC025
:1012B000B8F4882309F4F9C0883009F494C0FF9188
:1012C000EF91BF91AF919F918F917F916F915F91BE
:1012D0004F913F912F910F900FBE0F901F90189537
:1012E000883109F488C0803251F78093020214C01B
:1012F000803409F49DC040F48033B9F38833F9F6A3
:101300008093020285ECB0C0803509F485C0883531
:1013100009F496C0883499F60E949702D0CF883994
:1013200009F48CC038F5883729F050F4883611F06C
:10133000803729F683E0809303021092010257C0A0
:10134000883809F47BC0803919F0803809F0B7CFAC
:1013500080910102803208F071C0E091010281E0C9
:101360008E0F809301028091BB00F0E0EF51FE4FA1
:1013700080833DC0803B39F0E0F4803A09F479C0C5
:10138000883A09F09CCF84E0809303021092DE013A
:101390001092DD01E091DB01F091DC010995809173
:1013A000DD0181110FC081E08093DD011092BB014E
:1013B00009C0803C09F4A6CF883C09F4A3CF883B40
:1013C00009F07DCFE091DE0181E08E0F8093DE0198
:1013D000F0E0E554FE4F80818093BB009091DE01E8
:1013E0008091DD0129C0809128028093BB0085ECAB
:1013F0008093BC0064CF90912702809126029817B9
:1014000058F5E091270281E08E0F80932702F0E0EB
:10141000EA5FFD4F8081E9CFE091270281E08E0FE6
:10142000809327028091BB00F0E0EA5FFD4F80834C
:1014300090912702809126029817C8F285E8D8CFAC
:10144000E091270281E08E0F809327028091BB00FC
:10145000F0E0EA5FFD4F80838091050281115CCF4F
:1014600081E08093040284EA8093BC00109203021E
:1014700026CF85EC8093BC0010920302809101027C
:10148000803230F4E0910102F0E0EF51FE4F108223
:101490006091010270E0E091DF01F091E00181EEE6
:1014A00091E00995109201020ACF1092020234CF06
:1014B000EEE3F6E01382128288EE93E0A0E0B0E063
:1014C00084839583A683B78322E731E03183208329
:1014D00025EC30E03587248724EC30E037872687F9
:1014E00020EC30E0318B208B21EC30E0338B228BF1
:1014F00022EC30E0358B248B26EC30E0378B268BCA
:10150000118E128E138E148EEBEDF6E01382128282
:1015100084839583A683B78384E891E09183808355
:10152000EEEFF6E011821282E7EEF6E0118212820F
:101530000895789484B5826084BD84B5816084BD4B
:1015400085B5826085BD85B5816085BD80916E0061
:10155000816080936E001092810080918100826092
:1015600080938100809181008160809381008091CF
:1015700080008160809380008091B10084608093BE
:10158000B1008091B00081608093B00080917A00BA
:10159000846080937A0080917A00826080937A00E0
:1015A00080917A00816080937A0080917A008068CF
:1015B00080937A001092C10062E08CE00E940F02DA
:1015C00062E089E00E940F0262E082E00E940F0266
:1015D00062E083E00E940F0262E084E00E940F025A
:1015E00062E084E00E940F0262E085E00E940F0248
:1015F00062E086E00E940F0262E087E00E940F0234
:1016000062E088E00E940F0285E00E94B801892B09
:1016100009F02BC184E00E94B801019709F06EC166
:1016200085E00E94B801892B09F052C188E08093BF
:10163000070161E08AE00E940F0261E08BE00E94F6
:101640000F0261E08DE00E940F0261E08AE00E94DB
:10165000E10189E00E94B8010197A9F5E0914E06E9
:10166000F0914F0682E08083E0914A06F0914B06AC
:101670001082E0914C06F0914D0680E1808310923B
:101680005606E0915206F091530686E08083E09181
:101690005006F0915106808180618083E091500670
:1016A000F0915106808188608083E0915006F0912E
:1016B0005106808180688083E0915006F091510648
:1016C00080818F7D808380E00E941D0480917A005C
:1016D000846080937A0080917A008D7F80937A0075
:1016E00080917A008E7F80937A0088E090E00E945B
:1016F00074088632954309F022C190E080E00E9490
:101700007408909328018093270182E090E00E9462
:1017100074088093290184E090E00E94740880930B
:101720002A0180912701909128010E94EA048FEFFD
:10173000809333049FE79093340480933504E5E36A
:10174000F5E086E394E01292DF01A150BF4F1C92B6
:101750008E179F07C1F70E9440026093410170936A
:101760004201809343019093440190ED492E97E00C
:10177000592E612C712C24E6222E312C11E00FEF12
:101780008FB7F894C0902E02D0902F02E0903002D4
:10179000F09031028FBF80913A0690913B06A09164
:1017A0003C06B0913D068C159D05AE05BF0508F0C1
:1017B00045C330E430937C0080917A00806480934C
:1017C0007A0080917A0086FDFCCF8091780040916C
:1017D0007900542F482F411582E0580714F04FEF3D
:1017E00051E055954795342F80913504882319F0A1
:1017F00081508093350480913304811102C000939D
:101800003304E0913304E150E0933304F0E0ED5C05
:10181000FB4F6381361709F4BEC04383E4E3F6E06F
:101820002FEF21508291681711F02111FACF822FEA
:1018300090E0FC01EB5CFA4F4083631708F09CC01A
:10184000E1E0E20FF0E0EB5CFA4F2E3F09F4A3C0B9
:10185000A22FB0E0AB5CBA4F8C919081981708F042
:101860009AC09C9381932F5FF0CF86E00E94B801CD
:10187000892B09F4CFCE87E00E94B801892B09F4A7
:10188000C9CE88E00E94B801892B09F4C3CE10921A
:10189000070182E00E94B801892B09F44CC083E063
:1018A0000E94B80120910701892B19F4226020932E
:1018B000070184E00E94B80120910701892B19F4E7
:1018C000246020930701809107018C5F880FAFCEC1
:1018D00086E00E94B801892B11F48AE0A8CE87E047
:1018E0000E94B801892B11F48CE0A1CE88E00E94FF
:1018F000B801892B09F09DCE8EE099CE85E00E943B
:10190000B801892B11F480E192CE86E00E94B801E3
:10191000892B11F482E18BCE87E00E94B801892BDC
:1019200011F484E184CE88E00E94B801892B09F08B
:1019300080CE86E17CCE81E080930701B0CF6091BC
:1019400027017091280190E080E00E948808609152
:10195000290170E082E090E00E94880860912A01ED
:1019600070E084E090E00E94880866E275E388E019
:1019700090E00E948808D5CEFC01EC5CFA4F95E01F
:10198000E433F90741F080819181981720F4908326
:1019900081833197F4CF8091320424E0829FF0015B
:1019A0001124EE5CFD4FC082D182E282F3828F5F10
:1019B00087FD45C08093320480913504811191C028
:1019C00080913C01882309F48CC020912C01209344
:1019D0002D01E0913404F0E0EB5CFA4F80818093BC
:1019E0002C01E091320434E0E39FF0011124EE5C1D
:1019F000FD4F80819181A281B38180932E019093CC
:101A00002F01A0933001B0933101C0912C01C21B72
:101A1000DD0B1C161D06B4F481E00E94C70388E0AC
:101A200091E00E94710380912601181614F0109322
:101A30001E01C038D105D4F0CFE7D0E017C0109216
:101A40003204BACF209709F4BAC081E00E9485031E
:101A500087E191E00E9471038091260187FF109336
:101A60000F01C1384FEFD40724F7C1E8C093260116
:101A700080E00E94C70380E00E94850390912C01C2
:101A800080913A01891720F480912C0180933A01CA
:101A900090912C0180913B01981720F480912C01AA
:101AA00080933B0180912B01811107C090912C0103
:101AB00080912901981708F006C180912B018111AE
:101AC00005C180912B0190912C01882309F445C117
:101AD00080913201891708F003C182E391E00E94EE
:101AE00071030E9440028090410190904201A090B9
:101AF0004301B09044019B01AC01281939094A09FE
:101B00005B0949015A0180923D0190923E01A092E9
:101B10003F01B09240016093410170934201809374
:101B200043019093440180902B018FB7F894C091AA
:101B30003906DC2FD071D09339068FBF90903C01CD
:101B4000C0FF25C08FB7F894A0902701B09028015E
:101B50008FBFC5010E94EA0410933C01C1FF17C06A
:101B6000B50190E080E00E94880810922B0110924D
:101B700032010093390110923A0100933B01109217
:101B80000F011092100110921E0100931F0180910D
:101B90003C01811103C0C5FD10933C0180913806C2
:101BA000882309F426C1DD2309F4E3C0C09234067A
:101BB000D0923506E0923606F0923706F4C03091A6
:101BC0002C012091080132133DC040910901509130
:101BD0000A0160910B0170910C0140910901509133
:101BE0000A0160910B0170910C014C015D01841A96
:101BF000950AA60AB70AB501A4014115510561402D
:101C00007105E8F44091090150910A0160910B01BE
:101C100070910C01841B950B90930E0180930D0124
:101C200080910D0190910E01019609F002CF81E0A3
:101C30000E94C70388E091E00E947103FACE8FEF03
:101C40009FEFEACF30912C01209117013213F1CE92
:101C5000409118015091190160911A0170911B0176
:101C6000409118015091190160911A0170911B0166
:101C70004C015D01841A950AA60AB70AB501A401B0
:101C80004115510561407105D8F4409118015091FA
:101C9000190160911A0170911B01841B950B90939F
:101CA0001D0180931C0180911C0190911D010196E2
:101CB00009F0BFCE81E00E94850387E191E0BCCFAF
:101CC0008FEF9FEFECCF10932B01FBCE90912C0167
:101CD00080912A01981708F0F4CE0E944703F1CEB4
:101CE00090912C01809132019813FBCE80913301A9
:101CF00090913401A0913501B091360180912E016F
:101D000090912F01A0913001B091310140913301A8
:101D10005091340160913501709136014C015D01A3
:101D2000841A950AA60AB70AB501A40141155105FE
:101D30006140710578F44091330150913401609114
:101D4000350170913601841B950B90933801809377
:101D50003701C7CE8FEF9FEFF8CF809139019817E9
:101D600028F480912C0180933901BBCE80913901F8
:101D7000FACF8091340690913506A0913606B09145
:101D80003706A7019601281B390B4A0B5B0BDA01BA
:101D9000C90189389341A105B10528F01092380690
:101DA00081E00E941D04C2FF07C06091290170E01C
:101DB00082E090E00E948808C3FF07C060912A017A
:101DC00070E084E090E00E94880849EEC41643E089
:101DD000D406E104F104B0F4C601B1010E944A0F37
:101DE0006B7F81E06330710509F480E00E94090493
:101DF0001DC09920C1F2C5FFD6CFC6FDD4CF109328
:101E00003806D4CEC701B60124E130E040E050E00E
:101E10000E945E0F672B51F481E08110E7CFDD2334
:101E2000A9F081E00E94090410923906C0923A0696
:101E3000D0923B06E0923C06F0923D060E94F600EE
:101E4000882309F49DCC0E94B00798CCC701B60145
:101E5000A30192010E945E0F21E0672B682B692B82
:101E600009F020E0822FC2CFF999FECF92BD81BD4B
:101E7000F89A992780B50895262FF999FECF1FBAB1
:101E800092BD81BD20BD0FB6F894FA9AF99A0FBEA3
:101E90000196089597FB072E16F4009407D077FD5E
:101EA00009D00E94800F07FC05D03EF490958195E3
:101EB0009F4F0895709561957F4F0895A1E21A2E66
:101EC000AA1BBB1BFD010DC0AA1FBB1FEE1FFF1FDE
:101ED000A217B307E407F50720F0A21BB30BE40B2E
:101EE000F50B661F771F881F991F1A9469F7609575
:101EF0007095809590959B01AC01BD01CF0108952F
:101F0000AA1BBB1B51E107C0AA1FBB1FA617B7071F
:101F100010F0A61BB70B881F991F5A95A9F780953B
:101F20009095BC01CD010895EE0FFF1F0590F4912F
:081F3000E02D0994F894FFCFA5
:101F38000000000000FF0006000000000000000094
:101F480000000000000000FF00000000000000FF8B
:101F580000000000000000A816605000000000000B
:101F6800000000000000000000FF00FF000000006B
:101F7800000000000002FFFFFFFFFFFFFFFFFFFF61
:101F8800FFFFFFFFFFFFFFFFFFFFFFFFFFFFFFFF59
:101F9800FFFFFFFFFF0101FFFFFFFFFF010100003F
:101FA800000022018C00B9006F01EA00C800DC00C3
:101FB80000000000330328034403FE0221030E033C
:021FC800FF0216
:107800000C94343C0C94513C0C94513C0C94513CE1
:107810000C94513C0C94513C0C94513C0C94513CB4
:107820000C94513C0C94513C0C94513C0C94513CA4
:107830000C94513C0C94513C0C94513C0C94513C94
:107840000C94513C0C94513C0C94513C0C94513C84
:107850000C94513C0C94513C0C94513C0C94513C74
:107860000C94513C0C94513C11241FBECFEFD8E036
:10787000DEBFCDBF11E0A0E0B1E0ECE9FFE702C060
:1078800005900D92A230B107D9F712E0A2E0B1E065
:1078900001C01D92AD30B107E1F70E942D3D0C945F
:1078A000CC3F0C94003C982F959595959595959582
:1078B000905D8F708A307CF0282F295A8091C0000B
:1078C00085FFFCCF9093C6008091C00085FFFCCF60
:1078D0002093C6000895282F205DF0CF982F809127
:1078E000C00085FFFCCF9093C6000895EF92FF92F1
:1078F0000F931F93EE24FF2487018091C00087FD22
:1079000017C00894E11CF11C011D111D81E4E8164B
:1079100082E4F8068FE0080780E0180770F3E09132
:107920000401F091050109958091C00087FFE9CF1E
:107930008091C6001F910F91FF90EF9008950E94D3
:10794000763C982F8091C00085FFFCCF9093C600B5
:1079500091362CF490330CF09053892F089597555D
:10796000892F08951F930E949F3C182F0E949F3CCF
:107970001295107F810F1F9108951F93182F882350
:1079800021F00E94763C1150E1F71F9108951F935A
:10799000182F0E94763C803249F0809103018F5F5E
:1079A000809303018530C1F01F9108958091C0003C
:1079B00085FFFCCF84E18093C6008091C00085FFE5
:1079C000FCCF1093C6008091C00085FFFCCF80E102
:1079D0008093C6001F910895E0910401F091050184
:1079E00009951F9108950E94763C803241F0809164
:1079F00003018F5F80930301853081F008958091AA
:107A0000C00085FFFCCF84E18093C6008091C00058
:107A100085FFFCCF80E18093C6000895E0910401CA
:107A2000F09105010995089540E951E08823A1F0FE
:107A30002D9A28EE33E0FA013197F1F721503040CA
:107A4000D1F72D9828EE33E0FA013197F1F7215064
:107A50003040D1F7815061F708953F924F925F9285
:107A60006F927F928F929F92AF92BF92CF92DF924E
:107A7000EF92FF920F931F93CF93DF93000080E16B
:107A80008093C4001092C50088E18093C10086E015
:107A90008093C2005098589A259A81E00E94143D24
:107AA00024E1F22E9EE1E92E85E9D82E0FE0C02ECA
:107AB00010E1B12EAA24A394B1E49B2EA6E58A2E50
:107AC000F2E57F2EE0E26E2E79E4572E63E5462E36
:107AD00050E5352E0E94763C8033B1F18133B9F107
:107AE000803409F46FC0813409F476C0823409F41B
:107AF00085C0853409F488C0803531F1823521F1A3
:107B0000813511F1853509F485C0863509F48DC0BC
:107B1000843609F496C0843709F403C1853709F423
:107B200072C1863709F466C0809103018F5F80932C
:107B30000301853079F6E0910401F0910501099582
:107B40000E94763C803351F60E94F33CC3CF0E94E2
:107B5000763C803249F78091C00085FFFCCFF092DF
:107B6000C6008091C00085FFFCCF9092C600809136
:107B7000C00085FFFCCF8092C6008091C00085FFC9
:107B8000FCCF7092C6008091C00085FFFCCF609250
:107B9000C6008091C00085FFFCCF5092C600809146
:107BA000C00085FFFCCF4092C6008091C00085FFD9
:107BB000FCCF3092C6008091C00085FFFCCFB09210
:107BC000C60088CF0E94763C863808F4BDCF0E945C
:107BD000763C0E94F33C7ECF0E94763C803809F4CC
:107BE0009CC0813809F40BC1823809F43CC1883942
:107BF00009F48FC080E00E94C73C6CCF84E10E94F2
:107C0000BD3C0E94F33C66CF85E00E94BD3C0E94D3
:107C1000F33C60CF0E94763C809306010E94763C44
:107C2000809307010E94F33C55CF0E94763C80333D
:107C300009F41DC183E00E94BD3C80E00E94C73C66
:107C400049CF0E94763C809309020E94763C809343
:107C5000080280910C028E7F80930C020E94763C79
:107C6000853409F415C18091080290910902892B8D
:107C700089F000E010E00E94763CF801E85FFE4FDA
:107C800080830F5F1F4F80910802909109020817AF
:107C9000190788F30E94763C803209F045CF809125
:107CA0000C0280FF01C16091060170910701660F0F
:107CB000771F7093070160930601A0910802B091AD
:107CC00009021097C9F0E8E0F1E09B01AD014E0F09
:107CD0005F1FF999FECF32BD21BD819180BDFA9A17
:107CE000F99A2F5F3F4FE417F50799F76A0F7B1F4B
:107CF00070930701609306018091C00085FFFCCF5F
:107D0000F092C6008091C00085FFFCCFB092C60003
:107D1000E1CE83E00E94C73CDDCE82E00E94C73CFA
:107D2000D9CE0E94763C809309020E94763C8093D3
:107D300008028091060190910701880F991F909386
:107D40000701809306010E94763C853409F4A6C0A1
:107D500080910C028E7F80930C020E94763C8032D0
:107D600009F0B8CE8091C00085FFFCCFF092C6002C
:107D7000609108027091090261157105B9F140E046
:107D800050E080910C02A82FA170B82FB27011C0E2
:107D9000BB2309F45CC0E0910601F0910701319624
:107DA000F0930701E09306014F5F5F4F46175707B7
:107DB000E8F4AA2369F3F999FECF209106013091E6
:107DC000070132BD21BDF89A90B58091C00085FFB2
:107DD000FCCF9093C6002F5F3F4F30930701209355
:107DE00006014F5F5F4F4617570718F38091C00099
:107DF00085FDE5CE8091C00085FFF8CFE0CE81E023
:107E00000E94C73C67CE0E94763C803209F08CCE3F
:107E10008091C00085FFFCCFF092C6008091C00029
:107E200085FFFCCFE092C6008091C00085FFFCCFAB
:107E3000D092C6008091C00085FFFCCFC092C600E2
:107E40008091C00085FFFCCFB092C60043CEE09188
:107E50000601F091070194918091C00085FFFCCF4D
:107E60009093C6009CCF80E10E94C73C33CE0E9415
:107E7000763C0E94763C182F0E94763C112309F430
:107E800083C0113009F484C08FE00E94C73C22CE29
:107E900080910C02816080930C02E5CE80910C02EF
:107EA000816080930C0259CF809107018823880F4D
:107EB000880B8A2180930B02809106019091070123
:107EC000880F991F90930701809306018091080203
:107ED00080FF09C080910802909109020196909359
:107EE000090280930802F894F999FECF1127E091D6
:107EF0000601F0910701C8E0D1E08091080290915D
:107F00000902103091F40091570001700130D9F34B
:107F100003E000935700E89500915700017001308D
:107F2000D9F301E100935700E89509901990009169
:107F3000570001700130D9F301E000935700E89534
:107F40001395103498F011270091570001700130FB
:107F5000D9F305E000935700E895009157000170B0
:107F60000130D9F301E100935700E895329602976A
:107F700009F0C7CF103011F00296E5CF112480919F
:107F8000C00085FFB9CEBCCE8EE10E94C73CA2CD19
:0C7F900085E90E94C73C9ECDF894FFCF0D
:027F9C00800063
:040000030000780081
:00000001FF
