:100000000C9462000C948A000C948A000C948A0070
:100010000C948A000C948A000C948A000C948A0038
:100020000C948A000C948A000C948A000C948A0028
:100030000C948A000C948A000C948A000C948A0018
:100040000C94D5080C948A000C94A3080C947D0899
:100050000C948A000C948A000C948A000C948A00F8
:100060000C941F090C948A00000000002400270053
:100070002A0000000000250028002B0000000000DE
:1000800023002600290004040404040404040202DA
:100090000202020203030303030301020408102007
:1000A0004080010204081020010204081020000012
:1000B0000008000201000003040700000000000027
:1000C00000003E0A11241FBECFEFD8E0DEBFCDBF37
:1000D00011E0A0E0B1E0EEEEFDE102C005900D926E
:1000E000AA36B107D9F726E0AAE6B1E001C01D9211
:1000F000AD3EB207E1F710E0C2E6D0E004C02197C0
:10010000FE010E94EF0EC136D107C9F70E947F0A97
:100110000C94F50E0C940000AF92BF92CF92DF9238
:10012000EF92FF920F931F93CF93DF936C017B01AC
:100130008B01040F151FEB015E01AE18BF08C0173D
:10014000D10759F06991D601ED91FC910190F081B0
:10015000E02DC6010995892B79F7C501DF91CF9173
:100160001F910F91FF90EF90DF90CF90BF90AF90D5
:100170000895FC01538D448D252F30E0842F90E0AD
:10018000821B930B541710F0CF9608950197089592
:10019000FC01918D828D981761F0A28DAE0FBF2F5B
:1001A000B11D5D968C91928D9F5F9F73928F90E0B1
:1001B00008958FEF9FEF0895FC01918D828D981720
:1001C00031F0828DE80FF11D858D90E008958FEF5D
:1001D0009FEF0895FC01918D228D892F90E0805C26
:1001E0009F4F821B91098F739927089586E196E0AE
:1001F0000E94EA0021E0892B09F420E0822F089573
:10020000FC01A48DA80FB92FB11DA35ABF4F2C918B
:10021000848D90E001968F739927848FA689B78982
:100220002C93A089B1898C91837080648C93938D79
:10023000848D981306C00288F389E02D80818F7D1C
:1002400080830895EF92FF920F931F93CF93DF93D4
:10025000EC0181E0888F9B8D8C8D98131AC0E88902
:10026000F989808185FF15C09FB7F894EE89FF89D1
:100270006083E889F98980818370806480839FBF6F
:1002800081E090E0DF91CF911F910F91FF90EF906F
:100290000895F62E0B8D10E00F5F1F4F0F7311277F
:1002A000E02E8C8D8E110CC00FB607FCFACFE889BA
:1002B000F989808185FFF5CFCE010E940001F1CF41
:1002C000EB8DEC0FFD2FF11DE35AFF4FF0829FB72E
:1002D000F8940B8FEA89FB8980818062CFCFCF931E
:1002E000DF93EC01888D8823B9F0AA89BB89E8895E
:1002F000F9898C9185FD03C0808186FD0DC00FB604
:1003000007FCF7CF8C9185FFF2CF808185FFEDCF81
:10031000CE010E940001E9CFDF91CF910895833093
:1003200081F028F4813099F08230A9F00895873067
:10033000A9F08830C9F08430B1F4809180008F7DBD
:1003400003C0809180008F7780938000089584B5EA
:100350008F7784BD089584B58F7DFBCF8091B000E9
:100360008F778093B00008958091B0008F7DF9CF92
:10037000CF93DF93282F30E0F901E255FF4F8491AE
:10038000F901E656FF4FD491F901EA57FF4FC491A6
:10039000CC23A1F081110E948F01EC2FF0E0EE0F31
:1003A000FF1FE458FF4FA591B491EC91ED2381E03C
:1003B00090E009F480E0DF91CF91089580E090E033
:1003C000FACF1F93CF93DF93282F30E0F901E25546
:1003D000FF4F8491F901E656FF4FD491F901EA5796
:1003E000FF4FC491CC23A9F0162F81110E948F01D9
:1003F000EC2FF0E0EE0FFF1FEE58FF4FA591B491E8
:100400008FB7F894EC91111108C0D095DE23DC93DE
:100410008FBFDF91CF911F910895DE2BF8CFCF933F
:10042000DF9390E0FC01E656FF4F24918A579F4FDF
:10043000FC0184918823D1F090E0880F991FFC0182
:10044000E859FF4FA591B491FC01EE58FF4FC591BB
:10045000D491623071F49FB7F8943C91822F8095CB
:1004600083238C93E8812E2B28839FBFDF91CF912C
:1004700008958FB7F894EC912E2B2C938FBFF6CF65
:100480003FB7F8948091020290910302A091040278
:10049000B091050226B5A89B05C02F3F19F0019623
:1004A000A11DB11D3FBFBA2FA92F982F8827BC01CE
:1004B000CD01620F711D811D911D42E0660F771FF6
:1004C000881F991F4A95D1F708958F929F92AF92F6
:1004D000BF92CF92DF92EF92FF924B015C010E949C
:1004E00040026B017C010E9440026C197D098E095B
:1004F0009F09683E734081059105A8F321E0821AA7
:100500009108A108B10888EEC80E83E0D81EE11C4E
:10051000F11C81149104A104B10429F7FF90EF901C
:10052000DF90CF90BF90AF909F908F90089585ED12
:100530008093BC008091BC0084FDFCCF1092DB0155
:1005400008952091B501260F3327331F213231053D
:10055000ECF42091DB01FC0190E080E0243069F0B4
:1005600082E00895A091B5012191AC014D565E4FF6
:10057000A40FB52FB11D2C930196861798F3809187
:10058000B501680F6093B50180E0089581E008959A
:10059000E0919101F0919201309729F01092900131
:1005A00010928F0109940895CF93DF93AC01E091ED
:1005B0008D01F0918E013097F1F090918C01809136
:1005C0008B019817C0F090E0292F30E026173707ED
:1005D00054F4D901A559BE4F240F351FE9012881D4
:1005E0002C939F5FF1CF10928C0160938B01CB0114
:1005F000DF91CF910994DF91CF9108950895E09113
:100600008C0180918B01E81730F4F0E0E559FE4F42
:10061000808190E008958FEF9FEF089590918C0175
:1006200080918B012FEF3FEF981748F4E92FF0E00E
:10063000E559FE4F208130E09F5F90938C01C90106
:10064000089580918B0190918C01891B990B0895DD
:10065000CF93DF93CB01EA01642F0E94A102CE0168
:10066000DF91CF910895CF93DF931F92CDB7DEB77F
:10067000698361E0CE0101960E94A10281E090E0D1
:100680000F90DF91CF91089590E080E008952FB70B
:10069000F894EBE2F1E08781A0E0B1E08C93408533
:1006A0005185628573858485958596958795480FD4
:1006B000591F611D711D11964D935D936D937C9330
:1006C0001497868515968C93159716968C91169788
:1006D0008F5F16968C932FBF108217828FEF8687BD
:1006E0000895FC01ABE2B1E011968C9111978083E3
:1006F00013968D919D910D90BC91A02D8183928335
:10070000A383B48316821582089590911E019923C4
:1007100091F02FB7F89490911F019F3F69F487E003
:10072000E7E1F1E0AFE1B1E001900D928A95E1F7E8
:1007300010921E012FBF08958823E1F390911701B5
:1007400080911F01981758F39091170180911F0114
:100750009813EECF8091180190911901A0911A0180
:10076000B0911B01E0911C01F0911D01409120010D
:100770005091210160912201709123018E0F9F1FE2
:10078000841B950B9093250180932401D1CF9091E8
:100790000F01992391F02FB7F894909110019111C6
:1007A0000DC087E0E8E0F1E0A0E1B1E001900D923A
:1007B0008A95E1F710920F012FBF08958823E1F386
:1007C0009091080180911001891758F390910801C8
:1007D000809110019813EECF8091090190910A0148
:1007E000A0910B01B0910C01E0910D01F0910E016F
:1007F0004091110150911201609113017091140107
:100800008E0F9F1F841B950B9093160180931501EB
:10081000D1CF90916A01882349F091110DC081E0F8
:1008200080936A0161E08DE00C94E101992321F04D
:1008300010926A0160E0F7CF0895CF93C82F81E04E
:100840000E9409048091BC008A7B8093BC0060E018
:1008500082E10E94E10160E083E10E94E101CC239A
:1008600031F06AEF70E080E090E00E94650280E085
:100870000E940904C091070110928C0110928B0113
:100880001092900110928F011092DB0181E0809311
:10089000DD011092DC0161E082E10E94E10161E092
:1008A00083E10E94E1018091B9008E7F8093B900BD
:1008B0008091B9008D7F8093B90088E48093B8005F
:1008C00085E48093BC0088EC92E09093B40180931F
:1008D000B30184ED92E09093B8018093B701CC0FFF
:1008E000C093BA008DEF97E090938E0180938D01B5
:1008F00086E297E0909392018093910180910701A5
:10090000880F81608093BA00CF910895CF93DF93D1
:10091000CBE8D1E0CE010197F1F761E08AE00E94D7
:10092000E1012197F1F7DF91CF910895CF93DF9304
:10093000CBE8D1E0CE010197F1F760E08AE00E94B8
:10094000E1012197F1F7DF91CF910895CF93DF93E4
:1009500060E08DE00E94E101CBEAD4E0CE01019796
:10096000F1F760E08BE00E94E101CE010197F1F721
:1009700061E08DE00E94E101CE010197F1F760E0B6
:100980008DE00E94E1012197F1F7DF91CF91089569
:10099000CF93DF9360E08DE00E94E101CBEAD4E0E9
:1009A000CE010197F1F761E08BE00E94E101CE01F9
:1009B0000197F1F761E08DE00E94E101CE0101971E
:1009C000F1F760E08DE00E94E1012197F1F7DF91FE
:1009D000CF9108951F93CF93DF938F5D9140EC01EA
:1009E000D695C795CF71DD2736E0969587953A95D0
:1009F000E1F79695982F882797958795C80FD91F67
:100A00000E94860462E070E080E090E00E9465024F
:100A10000E9496040E94A6040E94A6040E94A604B6
:100A20000E94C8040E94A60414E10E94A60411506A
:100A3000E1F70E94860462E070E080E090E00E94AE
:100A400065020E9496040E9486040E9496040E94F9
:100A5000C8040E94A6040E94A6040E94A6040E9444
:100A6000C80410E1C0FF25C00E94C804D695C795F0
:100A70001150C1F70E94A6040E94A6040E94A60479
:100A80000E94A6040E94860462E070E080E090E08C
:100A90000E94650260E08AE00E94E10160E08DE072
:100AA0000E94E10160E08BE0DF91CF911F910C94F7
:100AB000E1010E94A604DACFDC011196EC911197B6
:100AC000AE0FB11D12967C9322E02E0FDC01119621
:100AD0002C93EF5FE80FF92FF11D628308954F9279
:100AE0005F926F927F92BF92CF92DF92EF92FF92CE
:100AF0000F931F93CF93DF93EC01B62E1A82888158
:100B0000833209F488C140F5833009F462C0C0F42F
:100B1000882309F458C08A81882309F488C1AE016A
:100B20004D5F5F4FFA0190E0282F30E0BF01641B5A
:100B3000750B621773070CF073C16191960FF6CFB6
:100B4000853009F44BC066E175E2823221F7CE01AF
:100B500001960E945C05FDC0813309F456C128F45A
:100B60008432C9F680913B0130C0823309F450C110
:100B7000833389F62FB7F89480910602909107028B
:100B8000A0910802B09109022FBF4A819E01240F53
:100B9000311DF901B38321E0240F2C0F3D2F311DAE
:100BA000F901A38322E0240F2C0F3D2F311DF90101
:100BB000938324E0240F2A83E3E0E40FEC0FFD2F5E
:100BC000F11D8383C6C08091070191E09A838B83D6
:100BD000C0C06091270170912801B9CF8FB7F894F8
:100BE000C0900602D0900702E0900802F09009023F
:100BF0008FBF809106018E010F5F1F4FEA8191E048
:100C00009E0F9A83EC0FFD2FF11D838380910101CC
:100C100090910201A0910301B0910401B601681BFB
:100C2000790BC8010E945C0520912C01EA8131E01A
:100C30003E0F3A83CE018E0F911DDC0113962C934B
:100C400080913A01DE01A30FB11D13968C93809120
:100C5000000193E09E0F9A83EE5FEC0FFD2FF11DD4
:100C6000838360913D0170913E0180913F0190919D
:100C70004001C8010E945C0590912B0180911001F8
:100C80008823D1F080911F018F3FA9F0409011017E
:100C90005090120160901301709014014091200156
:100CA0005091210160912201709123014416550653
:100CB0006606770608F492608A81FE01E80FF11D4E
:100CC000938320910501A2E0A80FAA83E1E0E80F39
:100CD000EC0FFD2FF11D238320913B01E3E0E80F92
:100CE000EA83AC0FBD2FB11D13962C938C5FEC0FD4
:100CF000FD2FF11D91FF35C0909110018A839383E0
:100D00008091110190911201A0911301B0911401F1
:100D1000B601681B790BC8010E945C054091110166
:100D2000509112016091130170911401809115018D
:100D300090911601B601641B750B681B790BC801F5
:100D40000E945C05109210018091110680628093D0
:100D5000110680911106B11061C080618093110667
:100D6000DACE90911F019F3FC9F090911001992315
:100D700011F140902001509021016090220170906B
:100D80002301409111015091120160911301709162
:100D90001401441655066606770668F08A831382A6
:100DA00070E060E0C8010E945C0570E060E0C8018E
:100DB0000E945C05C9CF90911F018A839383809123
:100DC000200190912101A0912201B0912301B6014F
:100DD000681B790BC8010E945C054091200150916D
:100DE0002101609122017091230180912401909151
:100DF0002501B601641B750B681B790BC8010E94A5
:100E00005C058FEF80931F019FCF80912901DDCE7C
:100E100080912A01DACE80913A01D7CE80659ECFAB
:100E20008F5F8A832C0F3D1FD90113969C931882E4
:100E3000DF91CF911F910F91FF90EF90DF90CF90B6
:100E4000BF907F906F905F904F90089560E086ED27
:100E500096E00E946F054091D806442349F050E087
:100E600069ED76E083EB96E00E9428031092D806A5
:100E700008951F93CF93DF93EC01162F1982888179
:100E80008137C9F138F4813561F01882DF91CF9153
:100E90001F9108958237E1F18837B9F70E9447031F
:100EA00022C08B8192E099839C818927982789278A
:100EB0009C01245631092C3A3642A8F4209127018E
:100EC000309128012817390749F020911106909395
:100ED000280180932701226020931106809111063A
:100EE0008160809311068091110611111EC08061EE
:100EF00080931106CACF81E089839B81809129016B
:100F0000891789F380911106909329018460E9CFB4
:100F100081E089839B8180912A01891721F3809147
:100F2000110690932A018860DCCF8065E1CF83377A
:100F300030F4813730F4813531F08FEF0895883700
:100F4000E1F781E0089582E0089586E196E00E944D
:100F5000C800E091C106E11121C08093BF06813530
:100F600050F00E9497078823C1F01092C0068F5F4F
:100F70008093C106089561E08FEB96E00E946F05B3
:100F80004091C106442349F050E062EC76E086E1EE
:100F900096E00E948C001092C10608952091C00630
:100FA00091E0920F9093C00630E0D901A154B94F5F
:100FB00013968C93E913F1CFAFEBB6E080E0AD016F
:100FC0004F5B56404217530734F413969C91139786
:100FD000890F1196F4CFF0E0E154F94F9281981304
:100FE000DACF61E08FEB96E00E943907D4CF0E9400
:100FF000F60081110C94A5070895CF93DF93892BF8
:1010000009F446C083EB96E00E940E038093D60657
:10101000813508F440C00E949707C82F8823B1F19A
:101020001092D806E091D806CE1780F4A6EDB6E06F
:1010300020E0D0E0AD01465D56404C175D07DCF482
:1010400013963C911397230F1196F4CF90918B0137
:1010500080918C019817D1F083EB96E00E940E03EB
:101060009091D806E92FF0E0EA52F94F83839F5F11
:101070009093D806D7CFF0E0EA52F94F82818213DD
:1010800005C060E086ED96E00E9439071092D80610
:10109000DF91CF910895C0918B0180918C01C81789
:1010A000B9F380918C01C81799F383EB96E00E9405
:1010B0000E03F7CF1F93CF93DF93EC010E948F0EA7
:1010C000182FCE0101960E948F0E90E0982F88274E
:1010D000810F911DDF91CF911F9108951F93CF93A1
:1010E000DF93EC01172F0E94970E612FCE0101961E
:1010F000DF91CF911F910C94970E1F920F920FB614
:101100000F9211242F933F934F935F936F937F938D
:101110008F939F93AF93BF93EF93FF9386E196E0F6
:101120000E940001FF91EF91BF91AF919F918F912C
:101130007F916F915F914F913F912F910F900FBED3
:101140000F901F9018951F920F920FB60F921124B7
:101150002F938F939F93EF93FF93E0912606F09147
:1011600027068081E0912C06F0912D0682FD1BC0A0
:10117000908180912F068F5F8F73209130068217A8
:1011800041F0E0912F06F0E0EA5EF94F958F8093F1
:101190002F06FF91EF919F918F912F910F900FBE8E
:1011A0000F901F9018958081F4CF1F920F920FB669
:1011B0000F9211242F933F938F939F93AF93BF93DD
:1011C0008091060290910702A0910802B091090255
:1011D0003091010223E0230F2D3758F50196A11D10
:1011E000B11D209301028093060290930702A09301
:1011F0000802B09309028091020290910302A0912B
:101200000402B09105020196A11DB11D8093020256
:1012100090930302A0930402B0930502BF91AF9193
:101220009F918F913F912F910F900FBE0F901F9024
:10123000189526E8230F0296A11DB11DD2CF1F924B
:101240000F920FB60F9211242F933F934F935F93FA
:101250006F937F938F939F93AF93BF93EF93FF937E
:101260008091B900887F803609F44AC0F0F5883251
:1012700009F4A7C018F5803109F49BC0B8F488239D
:1012800009F4F9C0883009F494C0FF91EF91BF913F
:10129000AF919F918F917F916F915F914F913F910E
:1012A0002F910F900FBE0F901F901895883109F461
:1012B00088C0803251F78093DA0114C0803409F479
:1012C0009DC040F48033B9F38833F9F68093DA0196
:1012D00085ECB0C0803509F485C0883509F496C026
:1012E000883499F60E949702D0CF883909F48CC0CF
:1012F00038F5883729F050F4883611F0803729F610
:1013000083E08093DB011092D90157C0883809F43B
:101310007BC0803919F0803809F0B7CF8091D901AE
:10132000803208F071C0E091D90181E08E0F809386
:10133000D9018091BB00F0E0E754FE4F80833DC0AF
:10134000803B39F0E0F4803A09F479C0883A09F03A
:101350009CCF84E08093DB011092B6011092B5011E
:10136000E091B301F091B40109958091B50181112B
:101370000FC081E08093B5011092930109C0803CB9
:1013800009F4A6CF883C09F4A3CF883B09F07DCFB0
:10139000E091B60181E08E0F8093B601F0E0ED564A
:1013A000FE4F80818093BB009091B6018091B50182
:1013B00029C0809100028093BB0085EC8093BC0023
:1013C00064CF9091FF018091FE01981758F5E0914C
:1013D000FF0181E08E0F8093FF01F0E0E252FE4FAB
:1013E0008081E9CFE091FF0181E08E0F8093FF01C2
:1013F0008091BB00F0E0E252FE4F80839091FF01AC
:101400008091FE019817C8F285E8D8CFE091FF01DE
:1014100081E08E0F8093FF018091BB00F0E0E252EB
:10142000FE4F80838091DD0181115CCF81E080934C
:10143000DC0184EA8093BC001092DB0126CF85ECAE
:101440008093BC001092DB018091D901803230F48E
:10145000E091D901F0E0E754FE4F10826091D9018C
:1014600070E0E091B701F091B80189EB91E0099546
:101470001092D9010ACF1092DA0134CFE6E1F6E0FA
:101480001382128288EE93E0A0E0B0E0848395831B
:10149000A683B78329E431E03183208325EC30E053
:1014A0003587248724EC30E03787268720EC30E02E
:1014B000318B208B21EC30E0338B228B22EC30E01F
:1014C000358B248B26EC30E0378B268B118E128ED9
:1014D000138E148EE3EBF6E01382128284839583DD
:1014E000A683B7838BE591E091838083E6EDF6E0F8
:1014F00011821282EFEBF6E0118212820895789445
:1015000084B5826084BD84B5816084BD85B5826008
:1015100085BD85B5816085BD80916E0081608093B9
:101520006E00109281008091810082608093810022
:101530008091810081608093810080918000816032
:10154000809380008091B10084608093B10080918D
:10155000B00081608093B00080917A0084608093B5
:101560007A0080917A00826080937A0080917A007C
:10157000816080937A0080917A00806880937A00FD
:101580001092C10062E084E00E940F0262E085E0F8
:101590000E940F0262E086E00E940F0262E087E094
:1015A0000E940F0262E088E00E940F0284E00E9425
:1015B000B801019709F001C185E00E94B801892BAB
:1015C00009F0E5C088E08093070161E08AE00E94AD
:1015D0000F0261E08BE00E940F0261E08DE00E944B
:1015E0000F0261E08AE00E94E10180E00E941D0498
:1015F00080917A00846080937A0080917A008D7F58
:1016000080937A0080917A008E7F80937A0088E0C0
:1016100090E00E945A088632954309F0EBC090E0B2
:1016200080E00E945A08909328018093270182E06D
:1016300090E00E945A088093290184E090E00E9483
:101640005A0880932A0180912701909128010E94D5
:10165000EA048FEF80930B049FE790930C04809330
:101660000D04EDE0F5E08EE094E01292DF01A15070
:10167000BF4F1C928E179F07C1F70E9440026093D4
:10168000410170934201809343019093440190ED96
:10169000492E97E0592E612C712C24E6222E312CF4
:1016A00011E00FEF8FB7F894C0900602D0900702B8
:1016B000E0900802F09009028FBF8091120690918D
:1016C0001306A0911406B09115068C159D05AE0564
:1016D000BF0508F00EC330E430937C0080917A009F
:1016E000806480937A0080917A0086FDFCCF80919F
:1016F000780040917900542F482F411582E0580717
:1017000014F04FEF51E055954795342F80910D041B
:10171000882319F0815080930D0480910B0481116E
:1017200002C000930B04E0910B04E150E0930B0422
:10173000F0E0E55FFB4F6381361709F487C0438310
:10174000ECE0F6E02FEF21508291681711F02111A3
:10175000FACF822F90E0FC01E35FFA4F40836317DA
:1017600008F065C0E1E0E20FF0E0E35FFA4F2E3FE2
:1017700009F46CC0A22FB0E0A35FBA4F8C919081A6
:10178000981708F063C09C9381932F5FF0CF86E099
:101790000E94B801892B11F48AE015CF87E00E94DE
:1017A000B801892B11F48CE00ECF88E00E94B801BB
:1017B000892B09F00ACF8EE006CF85E00E94B801A0
:1017C000892B11F480E1FFCE86E00E94B801892BBD
:1017D00011F482E1F8CE87E00E94B801892B11F460
:1017E00084E1F1CE88E00E94B801892B09F0EDCEAA
:1017F00086E1E9CE609127017091280190E080E0B8
:101800000E946E086091290170E082E090E00E94E1
:101810006E0860912A0170E084E090E00E946E08FA
:1018200066E275E388E090E00E946E080CCFFC0150
:10183000E45FFA4F95E0EC30F90741F08081918147
:10184000981720F4908381833197F4CF80910A0414
:1018500024E0829FF0011124E65FFD4FC082D18217
:10186000E282F3828F5F87FD45C080930A048091F6
:101870000D04811191C080913C01882309F48CC032
:1018800020912C0120932D01E0910C04F0E0E35F06
:10189000FA4F808180932C01E0910A0434E0E39FA9
:1018A000F0011124E65FFD4F80819181A281B38117
:1018B00080932E0190932F01A0933001B0933101BA
:1018C000C0912C01C21BDD0B1C161D06B4F481E077
:1018D0000E94C70388E091E00E9471038091260175
:1018E000181614F010931E01C038D105D4F0CFE7BC
:1018F000D0E017C010920A04BACF209709F4BAC0FA
:1019000081E00E94850387E191E00E94710380914C
:10191000260187FF10930F01C1384FEFD40724F73A
:10192000C1E8C093260180E00E94C70380E00E94C6
:10193000850390912C0180913A01891720F48091C0
:101940002C0180933A0190912C0180913B019817D2
:1019500020F480912C0180933B0180912B01811117
:1019600007C090912C0180912901981708F006C1B9
:1019700080912B01811105C180912B0190912C0147
:10198000882309F445C180913201891708F003C109
:1019900082E391E00E9471030E9440028090410125
:1019A00090904201A0904301B09044019B01AC0192
:1019B000281939094A095B0949015A0180923D01F8
:1019C00090923E01A0923F01B0924001609341018C
:1019D00070934201809343019093440180902B01C6
:1019E0008FB7F894C0911106DC2FD071D0931106F7
:1019F0008FBF90903C01C0FF25C08FB7F894A09096
:101A00002701B09028018FBFC5010E94EA041093FE
:101A10003C01C1FF17C0B50190E080E00E946E0854
:101A200010922B01109232010093390110923A0169
:101A300000933B0110920F011092100110921E01B1
:101A400000931F0180913C01811103C0C5FD1093DB
:101A50003C0180911006882309F426C1DD2309F496
:101A6000E3C0C0920C06D0920D06E0920E06F092F2
:101A70000F06F4C030912C012091080132133DC0B3
:101A80004091090150910A0160910B0170910C0184
:101A90004091090150910A0160910B0170910C0174
:101AA0004C015D01841A950AA60AB70AB501A40182
:101AB0004115510561407105E8F4409109015091CB
:101AC0000A0160910B0170910C01841B950B90939E
:101AD0000E0180930D0180910D0190910E010196F0
:101AE00009F002CF81E00E94C70388E091E00E94E4
:101AF0007103FACE8FEF9FEFEACF30912C01209146
:101B000017013213F1CE40911801509119016091E3
:101B10001A0170911B0140911801509119016091B7
:101B20001A0170911B014C015D01841A950AA60AE5
:101B3000B70AB501A4014115510561407105D8F4FA
:101B4000409118015091190160911A0170911B0187
:101B5000841B950B90931D0180931C0180911C01A7
:101B600090911D01019609F0BFCE81E00E9485038E
:101B700087E191E0BCCF8FEF9FEFECCF10932B016B
:101B8000FBCE90912C0180912A01981708F0F4CE99
:101B90000E944703F1CE90912C018091320198135D
:101BA000FBCE8091330190913401A0913501B09129
:101BB000360180912E0190912F01A0913001B091BA
:101BC00031014091330150913401609135017091A0
:101BD00036014C015D01841A950AA60AB70AB501BF
:101BE000A401411551056140710578F4409133011C
:101BF000509134016091350170913601841B950B31
:101C00009093380180933701C7CE8FEF9FEFF8CFC5
:101C100080913901981728F480912C018093390123
:101C2000BBCE80913901FACF80910C0690910D06C0
:101C3000A0910E06B0910F06A7019601281B390B43
:101C40004A0B5B0BDA01C90189389341A105B10543
:101C500028F01092100681E00E941D04C2FF07C008
:101C60006091290170E082E090E00E946E08C3FF5D
:101C700007C060912A0170E084E090E00E946E0845
:101C800049EEC41643E0D406E104F104B0F4C60101
:101C9000B1010E94A50E6B7F81E06330710509F4EC
:101CA00080E00E9409041DC09920C1F2C5FFD6CF73
:101CB000C6FDD4CF10931006D4CEC701B60124E1DF
:101CC00030E040E050E00E94B90E672B51F481E013
:101CD0008110E7CFDD23A9F081E00E940904109272
:101CE0001106C0921206D0921306E0921406F092EA
:101CF00015060E94F600882309F4D4CC0E94A5079B
:101D0000CFCCC701B601A30192010E94B90E21E018
:101D1000672B682B692B09F020E0822FC2CFF9993D
:101D2000FECF92BD81BDF89A992780B50895262FE0
:101D3000F999FECF1FBA92BD81BD20BD0FB6F894B0
:101D4000FA9AF99A0FBE0196089597FB072E16F49A
:101D5000009407D077FD09D00E94DB0E07FC05D068
:101D60003EF4909581959F4F0895709561957F4FB2
:101D70000895A1E21A2EAA1BBB1BFD010DC0AA1FCC
:101D8000BB1FEE1FFF1FA217B307E407F50720F0E4
:101D9000A21BB30BE40BF50B661F771F881F991F5F
:101DA0001A9469F760957095809590959B01AC01A8
:101DB000BD01CF010895AA1BBB1B51E107C0AA1F9B
:101DC000BB1FA617B70710F0A61BB70B881F991FDC
:101DD0005A95A9F780959095BC01CD010895EE0F15
:0E1DE000FF1F0590F491E02D0994F894FFCFB9
:101DEE000000000000FF00060000000000000000E0
:101DFE0000000000000000FF00000000000000FFD7
:101E0E0000000000000000A8166050000000000056
:101E1E00000000000000000000FF00FF00000000B6
:101E2E0000000000000000000022018C00B9006FCD
:101E3E0001EA00C800DC0000000000330328034460
:0A1E4E0003FE0221030E03FF020051
:107800000C94343C0C94513C0C94513C0C94513CE1
:107810000C94513C0C94513C0C94513C0C94513CB4
:107820000C94513C0C94513C0C94513C0C94513CA4
:107830000C94513C0C94513C0C94513C0C94513C94
:107840000C94513C0C94513C0C94513C0C94513C84
:107850000C94513C0C94513C0C94513C0C94513C74
:107860000C94513C0C94513C11241FBECFEFD8E036
:10787000DEBFCDBF11E0A0E0B1E0ECE9FFE702C060
:1078800005900D92A230B107D9F712E0A2E0B1E065
:1078900001C01D92AD30B107E1F70E942D3D0C945F
:1078A000CC3F0C94003C982F959595959595959582
:1078B000905D8F708A307CF0282F295A8091C0000B
:1078C00085FFFCCF9093C6008091C00085FFFCCF60
:1078D0002093C6000895282F205DF0CF982F809127
:1078E000C00085FFFCCF9093C6000895EF92FF92F1
:1078F0000F931F93EE24FF2487018091C00087FD22
:1079000017C00894E11CF11C011D111D81E4E8164B
:1079100082E4F8068FE0080780E0180770F3E09132
:107920000401F091050109958091C00087FFE9CF1E
:107930008091C6001F910F91FF90EF9008950E94D3
:10794000763C982F8091C00085FFFCCF9093C600B5
:1079500091362CF490330CF09053892F089597555D
:10796000892F08951F930E949F3C182F0E949F3CCF
:107970001295107F810F1F9108951F93182F882350
:1079800021F00E94763C1150E1F71F9108951F935A
:10799000182F0E94763C803249F0809103018F5F5E
:1079A000809303018530C1F01F9108958091C0003C
:1079B00085FFFCCF84E18093C6008091C00085FFE5
:1079C000FCCF1093C6008091C00085FFFCCF80E102
:1079D0008093C6001F910895E0910401F091050184
:1079E00009951F9108950E94763C803241F0809164
:1079F00003018F5F80930301853081F008958091AA
:107A0000C00085FFFCCF84E18093C6008091C00058
:107A100085FFFCCF80E18093C6000895E0910401CA
:107A2000F09105010995089540E951E08823A1F0FE
:107A30002D9A28EE33E0FA013197F1F721503040CA
:107A4000D1F72D9828EE33E0FA013197F1F7215064
:107A50003040D1F7815061F708953F924F925F9285
:107A60006F927F928F929F92AF92BF92CF92DF924E
:107A7000EF92FF920F931F93CF93DF93000080E16B
:107A80008093C4001092C50088E18093C10086E015
:107A90008093C2005098589A259A81E00E94143D24
:107AA00024E1F22E9EE1E92E85E9D82E0FE0C02ECA
:107AB00010E1B12EAA24A394B1E49B2EA6E58A2E50
:107AC000F2E57F2EE0E26E2E79E4572E63E5462E36
:107AD00050E5352E0E94763C8033B1F18133B9F107
:107AE000803409F46FC0813409F476C0823409F41B
:107AF00085C0853409F488C0803531F1823521F1A3
:107B0000813511F1853509F485C0863509F48DC0BC
:107B1000843609F496C0843709F403C1853709F423
:107B200072C1863709F466C0809103018F5F80932C
:107B30000301853079F6E0910401F0910501099582
:107B40000E94763C803351F60E94F33CC3CF0E94E2
:107B5000763C803249F78091C00085FFFCCFF092DF
:107B6000C6008091C00085FFFCCF9092C600809136
:107B7000C00085FFFCCF8092C6008091C00085FFC9
:107B8000FCCF7092C6008091C00085FFFCCF609250
:107B9000C6008091C00085FFFCCF5092C600809146
:107BA000C00085FFFCCF4092C6008091C00085FFD9
:107BB000FCCF3092C6008091C00085FFFCCFB09210
:107BC000C60088CF0E94763C863808F4BDCF0E945C
:107BD000763C0E94F33C7ECF0E94763C803809F4CC
:107BE0009CC0813809F40BC1823809F43CC1883942
:107BF00009F48FC080E00E94C73C6CCF84E10E94F2
:107C0000BD3C0E94F33C66CF85E00E94BD3C0E94D3
:107C1000F33C60CF0E94763C809306010E94763C44
:107C2000809307010E94F33C55CF0E94763C80333D
:107C300009F41DC183E00E94BD3C80E00E94C73C66
:107C400049CF0E94763C809309020E94763C809343
:107C5000080280910C028E7F80930C020E94763C79
:107C6000853409F415C18091080290910902892B8D
:107C700089F000E010E00E94763CF801E85FFE4FDA
:107C800080830F5F1F4F80910802909109020817AF
:107C9000190788F30E94763C803209F045CF809125
:107CA0000C0280FF01C16091060170910701660F0F
:107CB000771F7093070160930601A0910802B091AD
:107CC00009021097C9F0E8E0F1E09B01AD014E0F09
:107CD0005F1FF999FECF32BD21BD819180BDFA9A17
:107CE000F99A2F5F3F4FE417F50799F76A0F7B1F4B
:107CF00070930701609306018091C00085FFFCCF5F
:107D0000F092C6008091C00085FFFCCFB092C60003
:107D1000E1CE83E00E94C73CDDCE82E00E94C73CFA
:107D2000D9CE0E94763C809309020E94763C8093D3
:107D300008028091060190910701880F991F909386
:107D40000701809306010E94763C853409F4A6C0A1
:107D500080910C028E7F80930C020E94763C8032D0
:107D600009F0B8CE8091C00085FFFCCFF092C6002C
:107D7000609108027091090261157105B9F140E046
:107D800050E080910C02A82FA170B82FB27011C0E2
:107D9000BB2309F45CC0E0910601F0910701319624
:107DA000F0930701E09306014F5F5F4F46175707B7
:107DB000E8F4AA2369F3F999FECF209106013091E6
:107DC000070132BD21BDF89A90B58091C00085FFB2
:107DD000FCCF9093C6002F5F3F4F30930701209355
:107DE00006014F5F5F4F4617570718F38091C00099
:107DF00085FDE5CE8091C00085FFF8CFE0CE81E023
:107E00000E94C73C67CE0E94763C803209F08CCE3F
:107E10008091C00085FFFCCFF092C6008091C00029
:107E200085FFFCCFE092C6008091C00085FFFCCFAB
:107E3000D092C6008091C00085FFFCCFC092C600E2
:107E40008091C00085FFFCCFB092C60043CEE09188
:107E50000601F091070194918091C00085FFFCCF4D
:107E60009093C6009CCF80E10E94C73C33CE0E9415
:107E7000763C0E94763C182F0E94763C112309F430
:107E800083C0113009F484C08FE00E94C73C22CE29
:107E900080910C02816080930C02E5CE80910C02EF
:107EA000816080930C0259CF809107018823880F4D
:107EB000880B8A2180930B02809106019091070123
:107EC000880F991F90930701809306018091080203
:107ED00080FF09C080910802909109020196909359
:107EE000090280930802F894F999FECF1127E091D6
:107EF0000601F0910701C8E0D1E08091080290915D
:107F00000902103091F40091570001700130D9F34B
:107F100003E000935700E89500915700017001308D
:107F2000D9F301E100935700E89509901990009169
:107F3000570001700130D9F301E000935700E89534
:107F40001395103498F011270091570001700130FB
:107F5000D9F305E000935700E895009157000170B0
:107F60000130D9F301E100935700E895329602976A
:107F700009F0C7CF103011F00296E5CF112480919F
:107F8000C00085FFB9CEBCCE8EE10E94C73CA2CD19
:0C7F900085E90E94C73C9ECDF894FFCF0D
:027F9C00800063
:040000030000780081
:00000001FF
