:020000040000FA
:100000000C9462000C948A000C948A000C948A0070
:100010000C948A000C948A000C948A000C948A0038
:100020000C948A000C948A000C948A000C948A0028
:100030000C948A000C948A000C948A000C948A0018
:100040000C94810B0C948A000C944F0B0C94290B8C
:100050000C948A000C948A000C948A000C948A00F8
:100060000C94CB0B0C948A000000000024002700A5
:100070002A0000000000250028002B0000000000DE
:1000800023002600290004040404040404040202DA
:100090000202020203030303030301020408102007
:1000A0004080010204081020010204081020000012
:1000B0000008000201000003040700000000000027
:1000C0000000EA0C11241FBECFEFD8E0DEBFCDBF89
:1000D00011E0A0E0B1E0E2E9F4E202C005900D9287
:1000E000AA3CB107D9F727E0AAECB1E001C01D9204
:1000F000AA35B207E1F710E0C2E6D0E004C02197CC
:10010000FE010E944112C136D107C9F70E946C0D51
:100110000C9447120C940000AF92BF92CF92DF92E2
:10012000EF92FF920F931F93CF93DF936C017B01AC
:100130008B01040F151FEB015E01AE18BF08C0173D
:10014000D10759F06991D601ED91FC910190F081B0
:10015000E02DC6010995892B79F7C501DF91CF9173
:100160001F910F91FF90EF90DF90CF90BF90AF90D5
:100170000895FC01538D448D252F30E0842F90E0AD
:10018000821B930B541710F0CF9608950197089592
:10019000FC01918D828D981761F0A28DAE0FBF2F5B
:1001A000B11D5D968C91928D9F5F9F73928F90E0B1
:1001B00008958FEF9FEF0895FC01918D828D981720
:1001C00031F0828DE80FF11D858D90E008958FEF5D
:1001D0009FEF0895FC01918D228D892F90E0805C26
:1001E0009F4F821B91098F73992708958BE792E0A7
:1001F0000E94EA0021E0892B09F420E0822F089573
:10020000FC01A48DA80FB92FB11DA35ABF4F2C918B
:10021000848D90E001968F739927848FA689B78982
:100220002C93A089B1898C91837080648C93938D79
:10023000848D981306C00288F389E02D80818F7D1C
:1002400080830895EF92FF920F931F93CF93DF93D4
:10025000EC0181E0888F9B8D8C8D98131AC0E88902
:10026000F989808185FF15C09FB7F894EE89FF89D1
:100270006083E889F98980818370806480839FBF6F
:1002800081E090E0DF91CF911F910F91FF90EF906F
:100290000895F62E0B8D10E00F5F1F4F0F7311277F
:1002A000E02E8C8D8E110CC00FB607FCFACFE889BA
:1002B000F989808185FFF5CFCE010E940001F1CF41
:1002C000EB8DEC0FFD2FF11DE35AFF4FF0829FB72E
:1002D000F8940B8FEA89FB8980818062CFCFCF931E
:1002E000DF93EC01888D8823B9F0AA89BB89E8895E
:1002F000F9898C9185FD03C0808186FD0DC00FB604
:1003000007FCF7CF8C9185FFF2CF808185FFEDCF81
:10031000CE010E940001E9CFDF91CF910895833093
:1003200081F028F4813099F08230A9F00895873067
:10033000A9F08830C9F08430B1F4809180008F7DBD
:1003400003C0809180008F7780938000089584B5EA
:100350008F7784BD089584B58F7DFBCF8091B000E9
:100360008F778093B00008958091B0008F7DF9CF92
:10037000CF93DF93282F30E0F901E255FF4F8491AE
:10038000F901E656FF4FD491F901EA57FF4FC491A6
:10039000CC23A1F081110E948F01EC2FF0E0EE0F31
:1003A000FF1FE458FF4FA591B491EC91ED2381E03C
:1003B00090E009F480E0DF91CF91089580E090E033
:1003C000FACF1F93CF93DF93282F30E0F901E25546
:1003D000FF4F8491F901E656FF4FD491F901EA5796
:1003E000FF4FC491CC23A9F0162F81110E948F01D9
:1003F000EC2FF0E0EE0FFF1FEE58FF4FA591B491E8
:100400008FB7F894EC91111108C0D095DE23DC93DE
:100410008FBFDF91CF911F910895DE2BF8CFCF933F
:10042000DF9390E0FC01E656FF4F24918A579F4FDF
:10043000FC0184918823D1F090E0880F991FFC0182
:10044000E859FF4FA591B491FC01EE58FF4FC591BB
:10045000D491623071F49FB7F8943C91822F8095CB
:1004600083238C93E8812E2B28839FBFDF91CF912C
:1004700008958FB7F894EC912E2B2C938FBFF6CF65
:100480003FB7F8948091680290916902A0916A0246
:10049000B0916B0226B5A89B05C02F3F19F00196BD
:1004A000A11DB11D3FBFBA2FA92F982F8827BC01CE
:1004B000CD01620F711D811D911D42E0660F771FF6
:1004C000881F991F4A95D1F708958F929F92AF92F6
:1004D000BF92CF92DF92EF92FF924B015C010E949C
:1004E00040026B017C010E9440026C197D098E095B
:1004F0009F09683E734081059105A8F321E0821AA7
:100500009108A108B10888EEC80E83E0D81EE11C4E
:10051000F11C81149104A104B10429F7FF90EF901C
:10052000DF90CF90BF90AF909F908F9008952091D3
:100530001B02260F3327331F21323105ECF42091A3
:100540004102FC0190E080E0243069F082E00895EF
:10055000A0911B022191AC0147505E4FA40FB52F13
:10056000B11D2C930196861798F380911B02680F9A
:1005700060931B0280E0089581E00895ECEBF0E0C9
:1005800080818A7B808360E082E10E94E10160E0FB
:1005900083E10C94E1011092410281E080934302D7
:1005A0001092420261E082E10E94E10161E083E198
:1005B0000E94E101E9EBF0E080818E7F8083808101
:1005C0008D7F808388E48093B80085E48093BC00AD
:1005D0000895E091F101F091F201309729F0109225
:1005E000F0011092EF0109940895CF93DF93AC01CD
:1005F000E091ED01F091EE013097F1F09091EC0176
:100600008091EB019817C0F090E0292F30E0261779
:10061000370754F4D901A553BE4F240F351FE90104
:1006200028812C939F5FF1CF1092EC016093EB0136
:10063000CB01DF91CF910994DF91CF910895089577
:10064000E091EC018091EB01E81730F4F0E0E55324
:10065000FE4F808190E008958FEF9FEF0895909175
:10066000EC018091EB012FEF3FEF981748F4E92F51
:10067000F0E0E553FE4F208130E09F5F9093EC0166
:10068000C90108958091EB019091EC01891B990BB0
:100690000895CF93DF93CB01EA01642F0E94970264
:1006A000CE01DF91CF910895CF93DF931F92CDB705
:1006B000DEB7698361E0CE0101960E94970281E076
:1006C00090E00F90DF91CF91089590E080E0089541
:1006D0008D5F9B4FDC01ED91FC9160817181828186
:1006E00093810895DC011396EC91E80FF92FF11D29
:1006F000EC5FFE4F808108950F931F93CF93DF939C
:10070000FC018481882311F08150848382818111CE
:1007100002C08FEF8283A281A150A283AE0FBF2FB0
:10072000B11D15969C9115978F010D5F1D4F2917CF
:1007300009F440C015962C93D8018FEF81503E915B
:10074000931711F08111FACFA82FB0E0EF01CA0F73
:10075000DB1FCC5FDE4F28839217B0F4A1E0A80F17
:10076000B0E0AC5FBE4FAE0FBF1F8E3F19F1EF017F
:10077000C80FD11DCC5FDE4F98812C912917D0F482
:1007800028839D938F5FF1CFAD5FBE4FAE0FBF1F2C
:100790009F012D5F3E4FA217B30761F08C91119618
:1007A0009C911197981730F49C9311968C93119704
:1007B0001197F1CFEF01CB5FDB4F888199810496D0
:1007C000DF01AD5FBB4F8A179B07E1F099838883F8
:1007D0000990D881C02D488359836A837B83E95F60
:1007E000FB4F80818038A1F48D919C9111970496E4
:1007F000A817B90751F08D939C93DF91CF911F916A
:100800000F91089519830883E3CF0D931C93F5CFBF
:10081000808191E0980F90838111EFCFCD93DC938D
:10082000ECCF21E0FC018481811120E0822F08952A
:100830000F931F93CF93DF93EC018B01E881F98134
:100840000280F381E02D099581110EC0E881F981C4
:100850000484F585E02DB801CE01099581E0DF9192
:10086000CF911F910F91089580E0F9CF2FB7F894A1
:10087000E3E3F1E08781A2E1B1E08C93408551850B
:10088000628573858485958596958795480F591F50
:10089000611D711D11964D935D936D937C9314971B
:1008A000868515968C93159716968C9116978F5F63
:1008B00016968C932FBF108217828FEF868708952C
:1008C000FC01A3E3B1E011968C91119780831396FC
:1008D0008D919D910D90BC91A02D81839283A383D6
:1008E000B483168215820895CF93DF9390912B01E4
:1008F000992381F0C82FDFB7F89464E271E080910A
:100900002C0190912D010E941804882331F010923F
:100910002B01DFBFDF91CF910895CC23D1F38091DC
:100920002C0190912D01DC01ED91FC910480F58169
:10093000E02D64E271E00995EACFCF93DF939091C7
:100940002101992381F0C82FDFB7F8946AE171E0A3
:1009500080912201909123010E941804882331F094
:1009600010922101DFBFDF91CF910895CC23D1F305
:100970008091220190912301DC01ED91FC91048092
:10098000F581E02D6AE171E00995EACF27E0FB01EE
:10099000DC01129601900D922A95E1F708952FEF50
:1009A000FC0122830895CF93DF9300D000D000D0C4
:1009B0001F92CDB7DEB727E0FC013296DE0111961B
:1009C00001900D922A95E1F729813A814B815C8152
:1009D0006D817E818F8190E027960FB6F894DEBFFF
:1009E0000FBECDBFDF91CF9108950F931F93DC0110
:1009F000FB01908112968C911297981748F487E02A
:100A0000129601900D928A95E1F71F910F9108952A
:100A1000908112968C9112979813F7CF4181528151
:100A2000638174818581968113960D911D912D911D
:100A30003C911697401B510B480F591F18965C9319
:100A40004E931797E2CFFC01928181E09F3F09F41A
:100A500080E00895FC01928181E09F3F09F080E0F1
:100A60000895FC01128208950F931F93DC01FB018E
:100A7000908112968C911297891748F487E012960C
:100A800001900D928A95E1F71F910F910895908141
:100A900012968C9112979813F7CF418152816381FE
:100AA00074818581968113960D911D912D913C91B4
:100AB0001697401B510B480F591F18965C934E9385
:100AC0001797E2CFFC01928181E0911101C080E093
:100AD0000895FC01928181E0911180E00895909148
:100AE000CA01882349F091110DC081E08093CA01A9
:100AF00061E08DE00C94E101992321F01092CA018C
:100B000060E0F7CF0895CF93C82F81E00E946F0572
:100B10000E94BE02CC2331F06AEF70E080E090E0EA
:100B20000E94650280E00E946F05C0911901109239
:100B3000EC011092EB011092F0011092EF010E9473
:100B4000CB0289EE92E090931A028093190285EF0E
:100B500092E090931E0280931D02CC0FC093BA00C6
:100B60008BE097E09093EE018093ED0187EA9AE0A5
:100B70009093F2018093F10180911901880F8160B7
:100B80008093BA00CF91089561E08AE00E94E1016C
:100B90008BE193E00197F1F7089560E08AE00E940D
:100BA000E1018BE193E00197F1F70895CF93DF9393
:100BB00060E08BE00E94E101CBEAD4E0CE01019736
:100BC000F1F761E08DE00E94E101CE010197F1F7BC
:100BD00060E08DE00E94E1012197F1F7DF91CF9174
:100BE0000895CF93DF9361E08BE00E94E101CBEAAF
:100BF000D4E0CE010197F1F761E08DE00E94E101C0
:100C0000CE010197F1F760E08DE00E94E1012197AC
:100C1000F1F7DF91CF910895CF92DF92EF92FF929B
:100C2000CF936B017C010E94C4050E94CD050E94F8
:100C3000D6050E94F1050E94D6050E94F1050E948A
:100C4000F105C4E1C0FE13C00E94F105F694E794DB
:100C5000D794C794C150B1F70E94C40560E08BE0FF
:100C6000CF91FF90EF90DF90CF900C94E1010E9424
:100C7000D605ECCFCF930E94C4050E94CD050E94FB
:100C8000F1050E94F1050E94F1050E94F1050E9404
:100C9000F105C4E10E94D605C150E1F70E94C405E8
:100CA00063EF7DE08DE090E0CF910C940C061F93F4
:100CB000CF93DF938F5D9140EC01D695C795CF71AF
:100CC000DD2736E0969587953A95E1F79695982F2A
:100CD000882797958795C80FD91F0E94C4050E9441
:100CE000CD050E94F1050E94D6050E94D6050E94FE
:100CF000D6050E94F10510E1C0FF13C00E94F10566
:100D0000D695C7951150C1F70E94D6050E94D60509
:100D10000E94D6050E94D605DF91CF911F910C94B9
:100D2000C4050E94D605ECCF1F93CF93DF93EC014F
:100D3000162F19828881823709F452C050F4813508
:100D4000C1F0813709F43FC01882DF91CF911F9124
:100D50000895883709F451C08937B1F781E0898354
:100D60008B81882309F44CC062E08CE00E940F0262
:100D700022C08B8192E099839C81892798278927BB
:100D80009C01245631092C3A3642A8F420912F01B7
:100D9000309130012817390749F02091760290935D
:100DA000300180932F012260209376028091760299
:100DB0008160809376028091760211112AC0806151
:100DC00080937602C1CF81E089839B81809131013C
:100DD000891789F380917602909331018460E9CF7D
:100DE00081E089839B8180913201891721F3809171
:100DF0007602909332018860DCCF0E943604DBCF0C
:100E000061E08CE00E940F0260E08CE00E94E10152
:100E1000D2CF8065D5CFCF93DF93892B09F44DC016
:100E200088E193E00E942F0380934307813508F403
:100E300047C081558932E8F4E82FF0E0EF58FE4FC3
:100E4000C081CC23C1F110924507E0914507CE1730
:100E500090F4A3E4B7E020E0D0E0AD014354574064
:100E60004C175D07ECF413963C911397230F1196E2
:100E7000F4CFCFEFE8CF9091EB018091EC01981780
:100E8000D1F088E193E00E942F0390914507E92F6C
:100E9000F0E0ED5BF84F83839F5F90934507D5CFDC
:100EA000F0E0ED5BF84F8281821305C060E083E4DF
:100EB00097E00E94940610924507DF91CF91089524
:100EC000C091EB018091EC01C817B9F38091EC015E
:100ED000C81799F388E193E00E942F03F7CFDC0154
:100EE0001196EC911197AE0FB11D12967C9322E0F2
:100EF0002E0FDC0111962C93EF5FE80FF92FF11DF7
:100F0000628308954F925F926F927F928F929F9229
:100F1000AF92BF92CF92DF92EF92FF920F931F9307
:100F2000CF93DF93CDB7DEB7E1970FB6F894DEBF6E
:100F30000FBECDBF8C01962EDC0112961C9212972B
:100F40008C91833209F47DC248F5833009F465C081
:100F5000C8F4882309F45AC0D80112968C918823CA
:100F600009F47CC2F801339650E040E090E0282F6D
:100F700030E0421753070CF069C26191960F4F5F42
:100F80005F4FF7CF853009F44DC069E175E28232D9
:100F900019F7C80101960E946F073AC1813309F41D
:100FA00043C228F48432C1F68091430142C28233A5
:100FB00009F43DC2833381F62FB7F89480916C0217
:100FC00090916D02A0916E02B0916F022FBFF80157
:100FD00042819801240F311DF901B38321E0240FD0
:100FE000200F312F311DF901A38322E0240F200FA0
:100FF000312F311DF901938324E0240FF80122835E
:10100000E3E0E40FE00FF12FF11D05C0809119011D
:1010100091E0F80192838383FBC060912F0170916E
:101020003001B7CF8FB7F894C0906C02D0906D02AA
:10103000E0906E02F0906F028FBF5801FFEFAF1A81
:10104000BF0A809118011296EC91129791E09E0FC1
:1010500012969C93E00FF12FF11D83838091130171
:1010600090911401A0911501B0911601B601681B71
:10107000790BC5010E946F0720913401D8011296A7
:10108000EC91129731E03E0F12963C93C8018E0FFF
:10109000911DDC0113962C9380914201D801A30F7E
:1010A000B11D13968C938091120193E09E0FD8018D
:1010B00012969C93EE5FE00FF12FF11D83836091F8
:1010C0004501709146018091470190914801C50109
:1010D0000E946F078090330180912201909123013B
:1010E000DC01ED91FC910190F081E02D09958111D9
:1010F00010C080912C0190912D01DC01ED91FC91AB
:101100000190F081E02D0995882309F489C0689445
:1011100081F8F8018281E80FF11D83829091170117
:10112000E2E0E80FD8011296EC93A1E0A80FA00F1F
:10113000B12FB11D13969C93909143018D5FD801FF
:1011400012968C93E00FF12FF11D93838091220171
:1011500090912301DC01ED91FC910190F081E02D53
:1011600009958111C2C080912C0190912D01DC0163
:10117000ED91FC910190F081E02D0995882309F40F
:1011800082C08091220190912301DC01ED91FC91BC
:101190000680F781E02D099529833A834B835C8390
:1011A0006D837E838F838981D8011296EC9112978B
:1011B00091E09E0F12969C93E00FF12FF11D838317
:1011C0008A819B81AC81BD81B601681B790BC50109
:1011D0000E946F074A815B816C817D818E819F8136
:1011E000B601641B750B681B790BC5010E946F0764
:1011F0008091220190912301DC01ED91FC9100840A
:10120000F185E02D099580917602806280937602C7
:1012100080917602911018C18061809376029CCEF5
:101220008091220190912301DC01ED91FC910680D7
:10123000F781E02D09952BA73CA74DA75EA76FA7C7
:1012400078AB89AB4CA45DA46EA47FA480912C01E3
:1012500090912D01DC01ED91FC910680F781E02D4C
:1012600009952CA33DA34EA35FA368A779A78AA7DE
:101270008DA19EA1AFA1B8A5481659066A067B06A6
:1012800008F445CF46CF8091220190912301DC01E3
:10129000ED91FC910680F781E02D09952D8F3E8F11
:1012A0004F8F58A369A37AA38BA34E8C5F8C68A041
:1012B00079A080912C0190912D01DC01ED91FC91A0
:1012C0000680F781E02D09952E8B3F8B488F598F33
:1012D0006A8F7B8F8C8F8F89988DA98DBA8D4816D8
:1012E00059066A067B0608F44CCF80912C01909138
:1012F0002D01DC01ED91FC910190F081E02D09952B
:1013000081117BC08091220190912301DC01ED913C
:10131000FC910190F081E02D09958823E1F1809105
:101320002C0190912D01DC01ED91FC910680F7815B
:10133000E02D099529833A834B835C836D837E83FB
:101340008F838981D8011296EC91129791E09E0FBC
:1013500012969C93E00FF12FF11D83838A819B816C
:10136000AC81BD81B601681B790BC5010E946F0776
:101370004A815B816C817D818E819F81B601641B76
:10138000750B681B790BC5010E946F0780912C01BA
:1013900090912D0131CF80912C0190912D01DC0194
:1013A000ED91FC910680F781E02D09952F87388B10
:1013B000498B5A8B6B8B7C8B8D8B488859886A88BC
:1013C0007B888091220190912301DC01ED91FC91B9
:1013D0000680F781E02D0995288739874A875B8742
:1013E0006C877D878E8789859A85AB85BC854816F5
:1013F00059066A067B0608F492CFD8011296EC9142
:10140000129781E08E0F12968C93E00FF12FF11D51
:10141000138270E060E0C5010E946F0770E060E039
:10142000C5010E946F07EFCE80913101F1CD80910F
:10143000320191E0D80112969C93129713968C93E7
:10144000E7CE80914201E4CD8065E7CE8F5FF80161
:101450008283200F311FD90113969C93F8011082CB
:10146000E1960FB6F894DEBF0FBECDBFDF91CF91EE
:101470001F910F91FF90EF90DF90CF90BF90AF90B2
:101480009F908F907F906F905F904F9008958BE723
:1014900092E00E94C800E0912E07E11129C08093DC
:1014A0002C07813590F08155893268F4E82FF0E0FF
:1014B000EF58FE4F80818823D1F010922D078F5F67
:1014C00080932E0708958FEFF8CF61E08CE297E0CC
:1014D0000E94820740912E07442349F050E06FE2BA
:1014E00077E08BE792E00E948C0010922E0708951F
:1014F00020912D0791E0920F90932D0730E0D901B4
:10150000A45DB84F13968C93E913F1CFACE2B7E02A
:1015100080E0AD014C5257404217530734F4139604
:101520009C911397890F1196F4CFF0E0E45DF84F8A
:1015300092819813DACF61E08CE297E00E949406E2
:10154000D4CF0E94F60081110C94470A089560E000
:1015500083E497E00E94820740914507442349F0C5
:1015600050E066E477E088E193E00E94490310923E
:1015700045070895CF93DF9385ED8093BC0080915C
:10158000F5019091F601A091F701B091F80107964D
:10159000A11DB11D23E0B695A795979587952A952E
:1015A000D1F72091BC0024FD03C0109241022BC052
:1015B0004091F5015091F6016091F7017091F801A9
:1015C000452B462B472B69F30097A105B10541F048
:1015D00025E32A95F1F700000197A109B109E1CFB0
:1015E0008091F40191E09093F301882361F0C09120
:1015F000B800D091BA000E94BE020E94CB02D093E4
:10160000BA00C093B800DF91CF9108951F93CF9394
:10161000DF93EC010E94E111182FCE0101960E9488
:10162000E11190E0982F8827810F911DDF91CF91D4
:101630001F9108951F93CF93DF93EC01172F0E9402
:10164000E911612FCE010196DF91CF911F910C948A
:10165000E9111F920F920FB60F9211242F933F930F
:101660004F935F936F937F938F939F93AF93BF93AA
:10167000EF93FF938BE792E00E940001FF91EF91BF
:10168000BF91AF919F918F917F916F915F914F919A
:101690003F912F910F900FBE0F901F9018951F92A2
:1016A0000F920FB60F9211242F938F939F93EF9366
:1016B000FF93E0918B02F0918C028081E091910286
:1016C000F091920282FD1BC09081809194028F5F05
:1016D0008F7320919502821741F0E0919402F0E01F
:1016E000E558FD4F958F80939402FF91EF919F9164
:1016F0008F912F910F900FBE0F901F9018958081A2
:10170000F4CF1F920F920FB60F9211242F933F9395
:101710008F939F93AF93BF9380916C0290916D02D2
:10172000A0916E02B0916F023091670223E0230F07
:101730002D3758F50196A11DB11D209367028093A6
:101740006C0290936D02A0936E02B0936F02809131
:10175000680290916902A0916A02B0916B020196B1
:10176000A11DB11D8093680290936902A0936A0243
:10177000B0936B02BF91AF919F918F913F912F9149
:101780000F900FBE0F901F90189526E8230F02961A
:10179000A11DB11DD2CF1F920F920FB60F9211242F
:1017A0002F933F934F935F936F937F938F939F9369
:1017B000AF93BF93EF93FF938091B900887F8036FA
:1017C00009F44AC0F0F5883209F4A7C018F5803151
:1017D00009F49BC0B8F4882309F4F9C0883009F4EF
:1017E00094C0FF91EF91BF91AF919F918F917F91A5
:1017F0006F915F914F913F912F910F900FBE0F907E
:101800001F901895883109F488C0803251F7809371
:10181000400214C0803409F49DC040F48033B9F311
:101820008833F9F68093400285ECB0C0803509F426
:1018300085C0883509F496C0883499F60E94BA0AA2
:10184000D0CF883909F48CC038F5883729F050F4A6
:10185000883611F0803729F683E080934102109298
:101860003F0257C0883809F47BC0803919F08038AE
:1018700009F0B7CF80913F02803208F071C0E0914B
:101880003F0281E08E0F80933F028091BB00F0E029
:10189000E15EFD4F80833DC0803B39F0E0F4803A4B
:1018A00009F479C0883A09F09CCF84E08093410222
:1018B00010921C0210921B02E0911902F0911A0280
:1018C000099580911B0281110FC081E080931B025A
:1018D0001092F90109C0803C09F4A6CF883C09F4B4
:1018E000A3CF883B09F07DCFE0911C0281E08E0FF1
:1018F00080931C02F0E0E750FE4F80818093BB0094
:1019000090911C0280911B0229C0809166028093F5
:10191000BB0085EC8093BC0064CF90916502809100
:101920006402981758F5E091650281E08E0F80936C
:101930006502F0E0EC5BFD4F8081E9CFE09165024C
:1019400081E08E0F809365028091BB00F0E0EC5B3C
:10195000FD4F808390916502809164029817C8F2D0
:1019600085E8D8CFE091650281E08E0F8093650213
:101970008091BB00F0E0EC5BFD4F808380914302DF
:1019800081115CCF81E08093420284EA8093BC00A5
:101990001092410226CF85EC8093BC001092410248
:1019A00080913F02803230F4E0913F02F0E0E15E4E
:1019B000FD4F108260913F0270E0E0911D02F091B6
:1019C0001E028FE192E0099510923F020ACF109219
:1019D000400234CF10927E0210927D0288EE93E096
:1019E000A0E0B0E080937F0290938002A0938102F8
:1019F000B09382022EE931E030937C0220937B0287
:101A000025EC30E0309388022093870224EC30E00C
:101A100030938A022093890220EC30E030938C02CC
:101A200020938B0221EC30E030938E0220938D02C4
:101A300022EC30E03093900220938F0226EC30E0CD
:101A40003093920220939102109294021092950288
:101A5000109296021092970210921B0310921A0392
:101A600080931C0390931D03A0931E03B0931F0348
:101A700080EB91E0909319038093180382EC91E03E
:101A800090932503809324038FEF809326039FE791
:101A90009093270380932803E8E2F4E01292DF0199
:101AA000A150BF4F1C9283E0E932F807B9F787E2F3
:101AB00095E0909328078093270790932A078093B7
:101AC000290710922B071092440710924507109295
:101AD0002D0710922E070895789484B5826084BDF6
:101AE00084B5816084BD85B5826085BD85B5816022
:101AF00085BD80916E00816080936E0010928100A0
:101B0000809181008260809381008091810081605A
:101B1000809381008091800081608093800080911B
:101B2000B10084608093B1008091B00081608093A7
:101B3000B00080917A00846080937A0080917A006E
:101B4000826080937A0080917A00816080937A002D
:101B500080917A00806880937A001092C10061E0E1
:101B60008AE00E940F0261E08BE00E940F0261E0B8
:101B70008DE00E940F0261E08AE00E94E10160E0D6
:101B80008BE00E94E10160E08DE00E94E10162E0F3
:101B90008CE00E940F0262E089E00E940F0262E086
:101BA00082E00E940F0262E083E00E940F0262E086
:101BB00084E00E940F0262E084E00E940F0262E073
:101BC00085E00E940F0262E086E00E940F0262E060
:101BD00087E00E940F0262E088E00E940F0264E644
:101BE00070E080E090E00E94650285E00E94B8010C
:101BF000892B09F016C184E00E94B801019709F011
:101C000059C185E00E94B801892B09F03DC188E0E7
:101C10008093190189E00E94B8010197A9F5E0912C
:101C20008B02F0918C0282E08083E0918702F09138
:101C300088021082E0918902F0918A0280E180831B
:101C400010929302E0918F02F091900286E08083DF
:101C5000E0918D02F0918E02808180618083E0911D
:101C60008D02F0918E02808188608083E0918D02E8
:101C7000F0918E02808180688083E0918D02F091E6
:101C80008E0280818F7D808380E00E948305809119
:101C90007A00846080937A0080917A008D7F8093AF
:101CA0007A0080917A008E7F80937A0088E090E0BD
:101CB0000E94060B8632954309F01DC190E080E03A
:101CC0000E94060B9093300180932F0182E090E0F8
:101CD0000E94060B8093310184E090E00E94060B85
:101CE000809332010E943A0680912F019091300139
:101CF0008735944009F01CC16FEF7FEF8FE090E0D3
:101D00000E940C0681E0809375020E94400260935D
:101D1000490170934A0180934B0190934C0190EDDF
:101D2000492E97E0592E612C712C24E6222E312C5D
:101D300011E00FEF8FB7F894C0906C02D0906D0255
:101D4000E0906E02F0906F028FBF809177029091C9
:101D50007802A0917902B0917A028C159D05AE05AA
:101D6000BF0508F018C340E440937C0080917A00DE
:101D7000806480937A0080917A0086FDFCCF809108
:101D8000780020917900322F282F211552E0350755
:101D900014F02FEF31E035952795B701A60184E2C5
:101DA00093E00E947C0384E293E00E941104882364
:101DB00009F415C180914401882309F410C1D09120
:101DC0003401D093350184E293E00E947203809342
:101DD000340184E293E00E946803609336017093BB
:101DE00037018093380190933901C0913401CD1BA4
:101DF000DD0B1C161D060CF0A2C081E00E949D04A4
:101E00008AE191E00E94600480912E01181614F07E
:101E100010932B01C038D1050CF4A6C0CFE7D0E059
:101E2000A3C086E00E94B801892B09F4E4CE87E0C4
:101E30000E94B801892B09F4DECE88E00E94B80127
:101E4000892B09F4D8CE1092190182E00E94B801C2
:101E5000892B09F44CC083E00E94B801209119013C
:101E6000892B19F422602093190184E00E94B801A3
:101E700020911901892B19F4246020931901809174
:101E800019018C5F880FC4CE86E00E94B801892BAF
:101E900011F48AE0BDCE87E00E94B801892B11F4CD
:101EA0008CE0B6CE88E00E94B801892B09F0B2CE52
:101EB0008EE0AECE85E00E94B801892B11F480E15E
:101EC000A7CE86E00E94B801892B11F482E1A0CE52
:101ED00087E00E94B801892B11F484E199CE88E053
:101EE0000E94B801892B09F095CE86E191CE81E060
:101EF00080931901B0CF60912F017091300190E073
:101F000080E00E941A0B6091310170E082E090E065
:101F10000E941A0B6091320170E084E090E00E9410
:101F20001A0B66E275E388E090E00E941A0BDACEA5
:101F300080912F01909130010E945706E6CE2097A4
:101F400009F4DCC081E00E94740484E291E00E9404
:101F5000600480912E0187FF10932101C1385FEF4B
:101F6000D5070CF057CFC1E8C0932E0180E00E9446
:101F70009D0480E00E94740490913401809142019C
:101F8000891720F4809134018093420190913401AB
:101F900080914301981720F480913401809343018C
:101FA00080913301811107C09091340180913101FA
:101FB000981708F029C180913301811128C18091BF
:101FC000330190913401882309F468C180913A016A
:101FD000891708F026C18AE391E00E9460040E94FC
:101FE00040028090490190904A01A0904B01B0902E
:101FF0004C019B01AC01281939094A095B094901C7
:102000005A018092450190924601A0924701B092F8
:1020100048016093490170934A0180934B0190936A
:102020004C01809033018FB7F894C0917602DC2F79
:10203000D071D09376028FBF90904401C0FF46C00C
:102040008FB7F894A0902F01B09030018FBF37E583
:10205000A31634E0B30609F02DC16FEF7FEF8FE0D8
:1020600090E00E940C061093750210934401C1FF8A
:102070002DC0B50190E080E00E941A0B1092330150
:1020800010923A01009341011092420100934301E2
:1020900010921A0110922101809122019091230146
:1020A000DC01ED91FC910284F385E02D099500930C
:1020B000240110922B0180912C0190912D01DC01C3
:1020C000ED91FC910284F385E02D09958091440106
:1020D000811103C0C5FD10934401809174028823CF
:1020E00009F434C1DD2309F4F1C0C0927002D0922A
:1020F0007102E0927202F092730202C130913401D7
:1021000020911A0132133EC080901B0190901C0157
:10211000A0901D01B0901E0180901B0190901C01A9
:10212000A0901D01B0901E019B01AC012819390936
:102130004A095B0949015A018114910431E0A3065F
:10214000B104E8F480901B0190901C01A0901D0147
:10215000B0901E01681979097093200160931F01E6
:1021600080911F0190912001019609F053CE81E0EA
:102170000E949D048AE191E00E9460044BCE6FEFC3
:102180007FEFEACF3091340120912401321342CE07
:102190008090250190902601A0902701B090280101
:1021A0008090250190902601A0902701B0902801F1
:1021B0009B01AC01281939094A095B0949015A01F7
:1021C0008114910431E0A306B104D8F48090250174
:1021D00090902601A0902701B090280168197909F4
:1021E00070932A01609329018091290190912A011D
:1021F000019609F00FCE81E00E94740484E291E020
:10220000BBCF6FEF7FEFECCF10933301D8CE90911F
:10221000340180913201981708F0D1CE0E94360423
:10222000CECE9091340180913A019813D8CE80910E
:102230003B0190913C01A0913D01B0913E01809104
:10224000360190913701A0913801B0913901409148
:102250003B0150913C0160913D0170913E014C0168
:102260005D01841A950AA60AB70AB501A4014115B1
:1022700051056140710578F440913B0150913C015A
:1022800060913D0170913E01841B950B909340013C
:1022900080933F01A4CE8FEF9FEFF8CF8091410153
:1022A000981728F4809134018093410198CE809151
:1022B0004101FACF80917502882321F00E943A06ED
:1022C00010927502C5010E945706CFCE8091700210
:1022D00090917102A0917202B0917302A7019601D0
:1022E000281B390B4A0B5B0BDA01C9018938934172
:1022F000A105B10528F01092740281E00E948305C7
:10230000C2FF07C06091310170E082E090E00E945E
:102310001A0BC3FF07C06091320170E084E090E0C7
:102320000E941A0B49EEC41643E0D406E104F104FE
:10233000B0F4C601B1010E94F7116B7F81E06330F8
:10234000710509F480E00E946F051DC09920C1F25B
:10235000C5FFD6CFC6FDD4CF10937402C6CEC70139
:10236000B60124E130E040E050E00E940B12672B00
:1023700051F481E08110E7CFDD23A9F081E00E94D4
:102380006F0510927602C0927702D0927802E092A6
:102390007902F0927A020E94F600882309F4CACCEE
:1023A0000E94470AC5CCC701B601A30192010E9451
:1023B0000B1221E0672B682B692B09F020E0822F9C
:1023C000C2CFF999FECF92BD81BDF89A992780B509
:1023D0000895262FF999FECF1FBA92BD81BD20BD69
:1023E0000FB6F894FA9AF99A0FBE0196089597FBE2
:1023F000072E16F4009407D077FD09D00E942D1205
:1024000007FC05D03EF4909581959F4F08957095F7
:1024100061957F4F0895A1E21A2EAA1BBB1BFD01F7
:102420000DC0AA1FBB1FEE1FFF1FA217B307E407B3
:10243000F50720F0A21BB30BE40BF50B661F771F0B
:10244000881F991F1A9469F76095709580959095EB
:102450009B01AC01BD01CF010895AA1BBB1B51E13B
:1024600007C0AA1FBB1FA617B70710F0A61BB70B04
:10247000881F991F5A95A9F780959095BC01CD01A9
:102480000895EE0FFF1F0590F491E02D0994F89444
:10249000FFCF5101FF0000000000006301000000B9
:1024A000000000000000000000FF00060000000027
:1024B000000000000901FF00000000000000000112
:1024C00000A816605000000000000000000000009E
:1024D000000000FF00FF00000000000000000000FE
:1024E0000000002A052305F504D304CF04CF04C659
:1024F0000400000000690562053405D3043105318C
:1025000005C60402FFFFFFFFFFFFFFFFFFFFFFFF06
:10251000FFFFFFFFFFFFFFFFFFFFFFFFFFFFFFFFCB
:10252000FFFFFF0101FFFFFFFFFF010100000000AF
:1025300022018C00B9006F01EA00C800DC00000035
:1025400000005403490365031F0342032F032003C4
:0C2550000000000011047C03720368030B
:107E0000112484B714BE81FFF0D085E080938100F7
:107E100082E08093C00088E18093C10086E0809377
:107E2000C20080E18093C4008EE0C9D0259A86E02C
:107E300020E33CEF91E0309385002093840096BBD3
:107E4000B09BFECF1D9AA8958150A9F7CC24DD24C4
:107E500088248394B5E0AB2EA1E19A2EF3E0BF2EE7
:107E6000A2D0813461F49FD0082FAFD0023811F036
:107E7000013811F484E001C083E08DD089C08234E0
:107E800011F484E103C0853419F485E0A6D080C0E4
:107E9000853579F488D0E82EFF2485D0082F10E0AE
:107EA000102F00270E291F29000F111F8ED06801E7
:107EB0006FC0863521F484E090D080E0DECF843638
:107EC00009F040C070D06FD0082F6DD080E0C81688
:107ED00080E7D80618F4F601B7BEE895C0E0D1E017
:107EE00062D089930C17E1F7F0E0CF16F0E7DF06D8
:107EF00018F0F601B7BEE89568D007B600FCFDCFD4
:107F0000A601A0E0B1E02C9130E011968C91119780
:107F100090E0982F8827822B932B1296FA010C0160
:107F200087BEE89511244E5F5F4FF1E0A038BF0790
:107F300051F7F601A7BEE89507B600FCFDCF97BE46
:107F4000E89526C08437B1F42ED02DD0F82E2BD052
:107F50003CD0F601EF2C8F010F5F1F4F84911BD097
:107F6000EA94F801C1F70894C11CD11CFA94CF0C13
:107F7000D11C0EC0853739F428D08EE10CD085E9AC
:107F80000AD08FE07ACF813511F488E018D01DD067
:107F900080E101D065CF982F8091C00085FFFCCF94
:107FA0009093C60008958091C00087FFFCCF809118
:107FB000C00084FD01C0A8958091C6000895E0E648
:107FC000F0E098E1908380830895EDDF803219F02E
:107FD00088E0F5DFFFCF84E1DECF1F93182FE3DFCA
:107FE0001150E9F7F2DF1F91089580E0E8DFEE27F6
:047FF000FF270994CA
:027FFE00040479
:00000001FF
