:100000000C9462000C948A000C948A000C948A0070
:100010000C948A000C948A000C948A000C948A0038
:100020000C948A000C948A000C948A000C948A0028
:100030000C948A000C948A000C948A000C948A0018
:100040000C943C0B0C948A000C940A0B0C94E40A5C
:100050000C948A000C948A000C948A000C948A00F8
:100060000C94860B0C948A000000000024002700EA
:100070002A0000000000250028002B0000000000DE
:1000800023002600290004040404040404040202DA
:100090000202020203030303030301020408102007
:1000A0004080010204081020010204081020000012
:1000B0000008000201000003040700000000000027
:1000C0000000A50C11241FBECFEFD8E0DEBFCDBFCE
:1000D00011E0A0E0B1E0E8E0F4E202C005900D928A
:1000E000AA3CB107D9F727E0AAECB1E001C01D9204
:1000F000A435B207E1F710E0C2E6D0E004C02197D2
:10010000FE010E94FC11C136D107C9F70E94270DDC
:100110000C9402120C940000AF92BF92CF92DF9227
:10012000EF92FF920F931F93CF93DF936C017B01AC
:100130008B01040F151FEB015E01AE18BF08C0173D
:10014000D10759F06991D601ED91FC910190F081B0
:10015000E02DC6010995892B79F7C501DF91CF9173
:100160001F910F91FF90EF90DF90CF90BF90AF90D5
:100170000895FC01538D448D252F30E0842F90E0AD
:10018000821B930B541710F0CF9608950197089592
:10019000FC01918D828D981761F0A28DAE0FBF2F5B
:1001A000B11D5D968C91928D9F5F9F73928F90E0B1
:1001B00008958FEF9FEF0895FC01918D828D981720
:1001C00031F0828DE80FF11D858D90E008958FEF5D
:1001D0009FEF0895FC01918D228D892F90E0805C26
:1001E0009F4F821B91098F739927089585E792E0AD
:1001F0000E94EA0021E0892B09F420E0822F089573
:10020000FC01A48DA80FB92FB11DA35ABF4F2C918B
:10021000848D90E001968F739927848FA689B78982
:100220002C93A089B1898C91837080648C93938D79
:10023000848D981306C00288F389E02D80818F7D1C
:1002400080830895EF92FF920F931F93CF93DF93D4
:10025000EC0181E0888F9B8D8C8D98131AC0E88902
:10026000F989808185FF15C09FB7F894EE89FF89D1
:100270006083E889F98980818370806480839FBF6F
:1002800081E090E0DF91CF911F910F91FF90EF906F
:100290000895F62E0B8D10E00F5F1F4F0F7311277F
:1002A000E02E8C8D8E110CC00FB607FCFACFE889BA
:1002B000F989808185FFF5CFCE010E940001F1CF41
:1002C000EB8DEC0FFD2FF11DE35AFF4FF0829FB72E
:1002D000F8940B8FEA89FB8980818062CFCFCF931E
:1002E000DF93EC01888D8823B9F0AA89BB89E8895E
:1002F000F9898C9185FD03C0808186FD0DC00FB604
:1003000007FCF7CF8C9185FFF2CF808185FFEDCF81
:10031000CE010E940001E9CFDF91CF910895833093
:1003200081F028F4813099F08230A9F00895873067
:10033000A9F08830C9F08430B1F4809180008F7DBD
:1003400003C0809180008F7780938000089584B5EA
:100350008F7784BD089584B58F7DFBCF8091B000E9
:100360008F778093B00008958091B0008F7DF9CF92
:10037000CF93DF93282F30E0F901E255FF4F8491AE
:10038000F901E656FF4FD491F901EA57FF4FC491A6
:10039000CC23A1F081110E948F01EC2FF0E0EE0F31
:1003A000FF1FE458FF4FA591B491EC91ED2381E03C
:1003B00090E009F480E0DF91CF91089580E090E033
:1003C000FACF1F93CF93DF93282F30E0F901E25546
:1003D000FF4F8491F901E656FF4FD491F901EA5796
:1003E000FF4FC491CC23A9F0162F81110E948F01D9
:1003F000EC2FF0E0EE0FFF1FEE58FF4FA591B491E8
:100400008FB7F894EC91111108C0D095DE23DC93DE
:100410008FBFDF91CF911F910895DE2BF8CFCF933F
:10042000DF9390E0FC01E656FF4F24918A579F4FDF
:10043000FC0184918823D1F090E0880F991FFC0182
:10044000E859FF4FA591B491FC01EE58FF4FC591BB
:10045000D491623071F49FB7F8943C91822F8095CB
:1004600083238C93E8812E2B28839FBFDF91CF912C
:1004700008958FB7F894EC912E2B2C938FBFF6CF65
:100480003FB7F8948091620290916302A091640258
:10049000B091650226B5A89B05C02F3F19F00196C3
:1004A000A11DB11D3FBFBA2FA92F982F8827BC01CE
:1004B000CD01620F711D811D911D42E0660F771FF6
:1004C000881F991F4A95D1F708958F929F92AF92F6
:1004D000BF92CF92DF92EF92FF924B015C010E949C
:1004E00040026B017C010E9440026C197D098E095B
:1004F0009F09683E734081059105A8F321E0821AA7
:100500009108A108B10888EEC80E83E0D81EE11C4E
:10051000F11C81149104A104B10429F7FF90EF901C
:10052000DF90CF90BF90AF909F908F90089585ED12
:100530008093BC008091BC0084FDFCCF10923B02F4
:10054000089520911502260F3327331F21323105DC
:10055000ECF420913B02FC0190E080E0243069F053
:1005600082E00895A09115022191AC014D505E4F9B
:10057000A40FB52FB11D2C930196861798F3809187
:100580001502680F6093150280E0089581E00895D8
:10059000E091F101F091F201309729F01092F00111
:1005A0001092EF0109940895CF93DF93AC01E0918D
:1005B000ED01F091EE013097F1F09091EC01809116
:1005C000EB019817C0F090E0292F30E0261737078D
:1005D00054F4D901A553BE4F240F351FE9012881DA
:1005E0002C939F5FF1CF1092EC016093EB01CB0154
:1005F000DF91CF910994DF91CF9108950895E09113
:10060000EC018091EB01E81730F4F0E0E553FE4F88
:10061000808190E008958FEF9FEF08959091EC0115
:100620008091EB012FEF3FEF981748F4E92FF0E0AE
:10063000E553FE4F208130E09F5F9093EC01C901AC
:1006400008958091EB019091EC01891B990B08951D
:10065000CF93DF93CB01EA01642F0E94A102CE0168
:10066000DF91CF910895CF93DF931F92CDB7DEB77F
:10067000698361E0CE0101960E94A10281E090E0D1
:100680000F90DF91CF91089590E080E008958D5F05
:100690009B4FDC01ED91FC9160817181828193819E
:1006A0000895DC011396EC91E80FF92FF11DEC5F32
:1006B000FE4F808108950F931F93CF93DF93FC012A
:1006C0008481882311F0815084838281811102C04A
:1006D0008FEF8283A281A150A283AE0FBF2FB11DE5
:1006E00015969C9115978F010D5F1D4F291709F4E1
:1006F00040C015962C93D8018FEF81503E919317EF
:1007000011F08111FACFA82FB0E0EF01CA0FDB1F63
:10071000CC5FDE4F28839217B0F4A1E0A80FB0E0C1
:10072000AC5FBE4FAE0FBF1F8E3F19F1EF01C80F78
:10073000D11DCC5FDE4F98812C912917D0F42883EE
:100740009D938F5FF1CFAD5FBE4FAE0FBF1F9F0177
:100750002D5F3E4FA217B30761F08C9111969C91CB
:100760001197981730F49C9311968C9311971197C9
:10077000F1CFEF01CB5FDB4F888199810496DF01D8
:10078000AD5FBB4F8A179B07E1F09983888309907F
:10079000D881C02D488359836A837B83E95FFB4FEF
:1007A00080818038A1F48D919C9111970496A817AF
:1007B000B90751F08D939C93DF91CF911F910F91C9
:1007C000089519830883E3CF0D931C93F5CF80819F
:1007D00091E0980F90838111EFCFCD93DC93ECCF14
:1007E00021E0FC018481811120E0822F08950F9384
:1007F0001F93CF93DF93EC018B01E881F981028095
:10080000F381E02D099581110EC0E881F9810484FE
:10081000F585E02DB801CE01099581E0DF91CF91FA
:100820001F910F91089580E0F9CF2FB7F894E3E37B
:10083000F1E08781A2E1B1E08C934085518562852A
:1008400073858485958596958795480F591F611DF9
:10085000711D11964D935D936D937C9314978685CE
:1008600015968C93159716968C9116978F5F169602
:100870008C932FBF108217828FEF86870895FC011B
:10088000A3E3B1E011968C911197808313968D911B
:100890009D910D90BC91A02D81839283A383B483FD
:1008A000168215820895CF93DF9390912B0199239F
:1008B00081F0C82FDFB7F89464E271E080912C01D9
:1008C00090912D010E94F703882331F010922B01A3
:1008D000DFBFDF91CF910895CC23D1F380912C011C
:1008E00090912D01DC01ED91FC910480F581E02DCA
:1008F00064E271E00995EACFCF93DF9390912101F3
:10090000992381F0C82FDFB7F8946AE171E08091F4
:100910002201909123010E94F703882331F0109265
:100920002101DFBFDF91CF910895CC23D1F38091D6
:10093000220190912301DC01ED91FC910480F5816D
:10094000E02D6AE171E00995EACF27E0FB01DC01C7
:10095000129601900D922A95E1F708952FEFFC0170
:1009600022830895CF93DF9300D000D000D01F9250
:10097000CDB7DEB727E0FC013296DE01119601907B
:100980000D922A95E1F729813A814B815C816D8135
:100990007E818F8190E027960FB6F894DEBF0FBE60
:1009A000CDBFDF91CF9108950F931F93DC01FB0121
:1009B000908112968C911297981748F487E01296BE
:1009C00001900D928A95E1F71F910F910895908102
:1009D00012968C9112979813F7CF418152816381BF
:1009E00074818581968113960D911D912D913C9175
:1009F0001697401B510B480F591F18965C934E9346
:100A00001797E2CFFC01928181E09F3F09F480E0DB
:100A10000895FC01928181E09F3F09F080E00895F4
:100A2000FC01128208950F931F93DC01FB0190815A
:100A300012968C911297891748F487E012960190CC
:100A40000D928A95E1F71F910F910895908112966A
:100A50008C9112979813F7CF4181528163817481F1
:100A60008581968113960D911D912D913C9116973C
:100A7000401B510B480F591F18965C934E931797C4
:100A8000E2CFFC01928181E0911101C080E00895E4
:100A9000FC01928181E0911180E008959091CA015A
:100AA000882349F091110DC081E08093CA0161E073
:100AB0008DE00C94E101992321F01092CA0160E0CD
:100AC000F7CF0895CF93C82F81E00E944E05809103
:100AD000BC008A7B8093BC0060E082E10E94E1015F
:100AE00060E083E10E94E101CC2331F06AEF70E025
:100AF00080E090E00E94650280E00E944E05C09177
:100B000019011092EC011092EB011092F001109279
:100B1000EF0110923B0281E080933D0210923C0273
:100B200061E082E10E94E10161E083E10E94E10174
:100B30008091B9008E7F8093B9008091B9008D7F3C
:100B40008093B90088E48093B80085E48093BC006A
:100B500088EC92E0909314028093130284ED92E06B
:100B60009093180280931702CC0FC093BA0082E1D1
:100B700097E09093EE018093ED018EEA9AE09093D6
:100B8000F2018093F10180911901880F81608093B7
:100B9000BA00CF91089561E08AE00E94E1018BE103
:100BA00093E00197F1F7089560E08AE00E94E10187
:100BB0008BE193E00197F1F70895CF93DF9360E025
:100BC0008BE00E94E101CBEAD4E0CE010197F1F77E
:100BD00061E08DE00E94E101CE010197F1F760E054
:100BE0008DE00E94E1012197F1F7DF91CF91089507
:100BF000CF93DF9361E08BE00E94E101CBEAD4E088
:100C0000CE010197F1F761E08DE00E94E101CE0194
:100C10000197F1F760E08DE00E94E1012197F1F783
:100C2000DF91CF910895CF92DF92EF92FF92CF9311
:100C30006B017C010E94CB050E94D4050E94DD055A
:100C40000E94F8050E94DD050E94F8050E94F80543
:100C5000C4E1C0FE13C00E94F805F694E794D7944F
:100C6000C794C150B1F70E94CB0560E08BE0CF91F3
:100C7000FF90EF90DF90CF900C94E1010E94DD0592
:100C8000ECCFCF930E94CB050E94D4050E94F805BB
:100C90000E94F8050E94F8050E94F8050E94F805D8
:100CA000C4E10E94DD05C150E1F70E94CB0563EF6E
:100CB0007DE08DE090E0CF910C9413061F93CF93CD
:100CC000DF938F5D9140EC01D695C795CF71DD27FD
:100CD00036E0969587953A95E1F79695982F88276F
:100CE00097958795C80FD91F0E94CB050E94D40500
:100CF0000E94F8050E94DD050E94DD050E94DD05C9
:100D00000E94F80510E1C0FF13C00E94F805D695B7
:100D1000C7951150C1F70E94DD050E94DD050E94B4
:100D2000DD050E94DD05DF91CF911F910C94CB056D
:100D30000E94DD05ECCF1F93CF93DF93EC01162FBC
:100D400019828881823709F452C050F48135C1F08C
:100D5000813709F43FC01882DF91CF911F91089528
:100D6000883709F451C08937B1F781E089838B81D5
:100D7000882309F44CC062E08CE00E940F0222C07C
:100D80008B8192E099839C818927982789279C01F0
:100D9000245631092C3A3642A8F420912F01309183
:100DA00030012817390749F02091700290933001E3
:100DB00080932F01226020937002809170028160E5
:100DC000809370028091700211112AC0806180931B
:100DD0007002C1CF81E089839B81809131018917A5
:100DE00089F380917002909331018460E9CF81E0B2
:100DF00089839B8180913201891721F38091700250
:100E0000909332018860DCCF0E941504DBCF61E053
:100E10008CE00E940F0260E08CE00E94E101D2CFE2
:100E20008065D5CFCF93DF93892B09F44DC082E144
:100E300093E00E940E0380933D07813508F447C07C
:100E400081558932E8F4E82FF0E0EF58FE4FC08179
:100E5000CC23C1F110923F07E0913F07CE1790F4E9
:100E6000ADE3B7E020E0D0E0AD014D5357404C1763
:100E70005D07ECF413963C911397230F1196F4CF72
:100E8000CFEFE8CF9091EB018091EC019817D1F072
:100E900082E193E00E940E0390913F07E92FF0E07A
:100EA000E35CF84F83839F5F90933F07D5CFF0E0DB
:100EB000E35CF84F8281821305C060E08DE397E028
:100EC0000E949B0610923F07DF91CF910895C09139
:100ED000EB018091EC01C817B9F38091EC01C817C0
:100EE00099F382E193E00E940E03F7CFDC011196A3
:100EF000EC911197AE0FB11D12967C9322E02E0F4C
:100F0000DC0111962C93EF5FE80FF92FF11D62833E
:100F100008954F925F926F927F928F929F92AF92BD
:100F2000BF92CF92DF92EF92FF920F931F93CF93D6
:100F3000DF93CDB7DEB7E1970FB6F894DEBF0FBEF3
:100F4000CDBF8C01962EDC0112961C9212978C91CB
:100F5000833209F47DC248F5833009F465C0C8F4D2
:100F6000882309F45AC0D80112968C91882309F479
:100F70007CC2F801339650E040E090E0282F30E04A
:100F8000421753070CF069C26191960F4F5F5F4F94
:100F9000F7CF853009F44DC069E175E2823219F767
:100FA000C80101960E9476073AC1813309F443C211
:100FB00028F48432C1F68091430142C2823309F49D
:100FC0003DC2833381F62FB7F894809166029091E9
:100FD0006702A0916802B09169022FBFF8014281B7
:100FE0009801240F311DF901B38321E0240F200F54
:100FF000312F311DF901A38322E0240F200F312F5F
:10100000311DF901938324E0240FF8012283E3E0EA
:10101000E40FE00FF12FF11D05C08091190191E05F
:10102000F80192838383FBC060912F01709130019E
:10103000B7CF8FB7F894C0906602D0906702E09067
:101040006802F09069028FBF5801FFEFAF1ABF0A24
:10105000809118011296EC91129791E09E0F1296D2
:101060009C93E00FF12FF11D8383809113019091E8
:101070001401A0911501B0911601B601681B790BFE
:10108000C5010E94760720913401D8011296EC9197
:10109000129731E03E0F12963C93C8018E0F911DBE
:1010A000DC0113962C9380914201D801A30FB11D4E
:1010B00013968C938091120193E09E0FD8011296A3
:1010C0009C93EE5FE00FF12FF11D8383609145014A
:1010D000709146018091470190914801C5010E949D
:1010E0007607809033018091220190912301DC01E9
:1010F000ED91FC910190F081E02D0995811110C0D6
:1011000080912C0190912D01DC01ED91FC910190D9
:10111000F081E02D0995882309F489C0689481F84D
:10112000F8018281E80FF11D838290911701E2E0BE
:10113000E80FD8011296EC93A1E0A80FA00FB12FF1
:10114000B11D13969C93909143018D5FD801129627
:101150008C93E00FF12FF11D9383809122019091E8
:101160002301DC01ED91FC910190F081E02D0995C6
:101170008111C2C080912C0190912D01DC01ED9173
:10118000FC910190F081E02D0995882309F482C03B
:101190008091220190912301DC01ED91FC91068068
:1011A000F781E02D099529833A834B835C836D8316
:1011B0007E838F838981D8011296EC91129791E0FA
:1011C0009E0F12969C93E00FF12FF11D83838A816D
:1011D0009B81AC81BD81B601681B790BC5010E9462
:1011E00076074A815B816C817D818E819F81B6010A
:1011F000641B750B681B790BC5010E9476078091F3
:10120000220190912301DC01ED91FC910084F18594
:10121000E02D099580917002806280937002809128
:101220007002911018C18061809370029CCE8091F1
:10123000220190912301DC01ED91FC910680F78160
:10124000E02D09952BA73CA74DA75EA76FA778AB0C
:1012500089AB4CA45DA46EA47FA480912C019091D5
:101260002D01DC01ED91FC910680F781E02D0995BF
:101270002CA33DA34EA35FA368A779A78AA78DA13E
:101280009EA1AFA1B8A5481659066A067B0608F4C8
:1012900045CF46CF8091220190912301DC01ED9151
:1012A000FC910680F781E02D09952D8F3E8F4F8FA1
:1012B00058A369A37AA38BA34E8C5F8C68A079A0F6
:1012C00080912C0190912D01DC01ED91FC91068023
:1012D000F781E02D09952E8B3F8B488F598F6A8FB0
:1012E0007B8F8C8F8F89988DA98DBA8D4816590662
:1012F0006A067B0608F44CCF80912C0190912D0159
:10130000DC01ED91FC910190F081E02D09958111B6
:101310007BC08091220190912301DC01ED91FC9131
:101320000190F081E02D09958823E1F180912C0155
:1013300090912D01DC01ED91FC910680F781E02D6B
:10134000099529833A834B835C836D837E838F83E6
:101350008981D8011296EC91129791E09E0F129616
:101360009C93E00FF12FF11D83838A819B81AC81D7
:10137000BD81B601681B790BC5010E9476074A81C1
:101380005B816C817D818E819F81B601641B750BB1
:10139000681B790BC5010E94760780912C01909102
:1013A0002D0131CF80912C0190912D01DC01ED9127
:1013B000FC910680F781E02D09952F87388B498BAA
:1013C0005A8B6B8B7C8B8D8B488859886A887B887D
:1013D0008091220190912301DC01ED91FC91068026
:1013E000F781E02D0995288739874A875B876C87C5
:1013F0007D878E8789859A85AB85BC854816590679
:101400006A067B0608F492CFD8011296EC911297E7
:1014100081E08E0F12968C93E00FF12FF11D138255
:1014200070E060E0C5010E94760770E060E0C501F1
:101430000E947607EFCE80913101F1CD809132018B
:1014400091E0D80112969C93129713968C93E7CE55
:1014500080914201E4CD8065E7CE8F5FF801828301
:10146000200F311FD90113969C93F8011082E19649
:101470000FB6F894DEBF0FBECDBFDF91CF911F91A5
:101480000F91FF90EF90DF90CF90BF90AF909F9023
:101490008F907F906F905F904F90089585E792E0D6
:1014A0000E94C800E0912807E11129C08093260717
:1014B000813590F08155893268F4E82FF0E0EF58DB
:1014C000FE4F80818823D1F0109227078F5F809391
:1014D000280708958FEFF8CF61E086E297E00E9439
:1014E000890740912807442349F050E069E277E0FA
:1014F00085E792E00E948C001092280708952091C1
:10150000270791E0920F9093270730E0D901AA5D59
:10151000B84F13968C93E913F1CFA6E2B7E080E0C1
:10152000AD01465257404217530734F413969C912D
:101530001397890F1196F4CFF0E0EA5DF84F92818E
:101540009813DACF61E086E297E00E949B06D4CF41
:101550000E94F60081110C944E0A089560E08DE31C
:1015600097E00E94890740913F07442349F050E0EB
:1015700060E477E082E193E00E94280310923F0745
:1015800008951F93CF93DF93EC010E949C11182FB5
:10159000CE0101960E949C1190E0982F8827810F20
:1015A000911DDF91CF911F9108951F93CF93DF93EA
:1015B000EC01172F0E94A411612FCE010196DF913B
:1015C000CF911F910C94A4111F920F920FB60F92FE
:1015D00011242F933F934F935F936F937F938F9338
:1015E0009F93AF93BF93EF93FF9385E792E00E94A1
:1015F0000001FF91EF91BF91AF919F918F917F91EA
:101600006F915F914F913F912F910F900FBE0F906F
:101610001F9018951F920F920FB60F9211242F93BF
:101620008F939F93EF93FF93E0918502F091860251
:101630008081E0918B02F0918C0282FD1BC0908131
:1016400080918E028F5F8F7320918F02821741F0FD
:10165000E0918E02F0E0EB58FD4F958F80938E0263
:10166000FF91EF919F918F912F910F900FBE0F904F
:101670001F9018958081F4CF1F920F920FB60F9292
:1016800011242F933F938F939F93AF93BF93809198
:10169000660290916702A0916802B0916902309150
:1016A000610223E0230F2D3758F50196A11DB11DCE
:1016B000209361028093660290936702A093680270
:1016C000B09369028091620290916302A0916402DA
:1016D000B09165020196A11DB11D809362029093A5
:1016E0006302A0936402B0936502BF91AF919F9192
:1016F0008F913F912F910F900FBE0F901F901895D3
:1017000026E8230F0296A11DB11DD2CF1F920F9282
:101710000FB60F9211242F933F934F935F936F93C4
:101720007F938F939F93AF93BF93EF93FF9380919A
:10173000B900887F803609F44AC0F0F5883209F490
:10174000A7C018F5803109F49BC0B8F4882309F4C8
:10175000F9C0883009F494C0FF91EF91BF91AF9127
:101760009F918F917F916F915F914F913F912F91B9
:101770000F900FBE0F901F901895883109F488C004
:10178000803251F780933A0214C0803409F49DC02E
:1017900040F48033B9F38833F9F680933A0285EC4C
:1017A000B0C0803509F485C0883509F496C0883406
:1017B00099F60E949702D0CF883909F48CC038F589
:1017C000883729F050F4883611F0803729F683E005
:1017D00080933B021092390257C0883809F47BC0CD
:1017E000803919F0803809F0B7CF80913902803202
:1017F00008F071C0E091390281E08E0F80933902C8
:101800008091BB00F0E0E75EFD4F80833DC0803BF0
:1018100039F0E0F4803A09F479C0883A09F09CCFB5
:1018200084E080933B021092160210921502E09120
:101830001302F091140209958091150281110FC0D5
:1018400081E0809315021092F30109C0803C09F4F5
:10185000A6CF883C09F4A3CF883B09F07DCFE09167
:10186000160281E08E0F80931602F0E0ED50FE4FDD
:1018700080818093BB00909116028091150229C04F
:10188000809160028093BB0085EC8093BC0064CFA4
:1018900090915F0280915E02981758F5E0915F0287
:1018A00081E08E0F80935F02F0E0E25CFD4F80816B
:1018B000E9CFE0915F0281E08E0F80935F0280911B
:1018C000BB00F0E0E25CFD4F808390915F0280916D
:1018D0005E029817C8F285E8D8CFE0915F0281E0F8
:1018E0008E0F80935F028091BB00F0E0E25CFD4FC1
:1018F000808380913D0281115CCF81E080933C0226
:1019000084EA8093BC0010923B0226CF85EC809342
:10191000BC0010923B0280913902803230F4E09199
:101920003902F0E0E75EFD4F10826091390270E00D
:10193000E0911702F091180289E192E00995109266
:1019400039020ACF10923A0234CF109278021092E4
:10195000770288EE93E0A0E0B0E080937902909364
:101960007A02A0937B02B0937C022EE931E030939F
:1019700076022093750225EC30E0309382022093AA
:10198000810224EC30E0309384022093830220EC27
:1019900030E0309386022093850221EC30E03093D2
:1019A00088022093870222EC30E030938A02209351
:1019B000890226EC30E030938C0220938B02109247
:1019C0008E0210928F021092900210929102109249
:1019D0001503109214038093160390931703A0939A
:1019E0001803B093190380EB91E090931303809355
:1019F000120382EC91E090931F0380931E038FEFFC
:101A0000809320039FE79093210380932203E2E2D7
:101A1000F4E01292DF01A150BF4F1C9283E0E33249
:101A2000F807B9F781E295E09093220780932107A8
:101A300090932407809323071092250710923E0766
:101A400010923F0710922707109228070895789464
:101A500084B5826084BD84B5816084BD85B58260B3
:101A600085BD85B5816085BD80916E008160809364
:101A70006E001092810080918100826080938100CD
:101A800080918100816080938100809180008160DD
:101A9000809380008091B10084608093B100809138
:101AA000B00081608093B00080917A008460809360
:101AB0007A0080917A00826080937A0080917A0027
:101AC000816080937A0080917A00806880937A00A8
:101AD0001092C10061E08AE00E940F0261E08BE099
:101AE0000E940F0261E08DE00E940F0261E08AE037
:101AF0000E94E10160E08BE00E94E10160E08DE086
:101B00000E94E10162E08CE00E940F0262E089E045
:101B10000E940F0262E082E00E940F0262E083E016
:101B20000E940F0262E084E00E940F0262E084E003
:101B30000E940F0262E085E00E940F0262E086E0F0
:101B40000E940F0262E087E00E940F0262E088E0DC
:101B50000E940F0264E670E080E090E00E9465025F
:101B600085E00E94B801892B09F016C184E00E942B
:101B7000B801019709F059C185E00E94B801892B8D
:101B800009F03DC188E08093190189E00E94B80105
:101B90000197A9F5E0918502F091860282E08083A9
:101BA000E0918102F09182021082E0918302F09133
:101BB000840280E1808310928D02E0918902F0918D
:101BC0008A0286E08083E0918702F091880280811A
:101BD00080618083E0918702F09188028081886033
:101BE0008083E0918702F091880280818068808301
:101BF000E0918702F091880280818F7D808380E070
:101C00000E94620580917A00846080937A008091BE
:101C10007A008D7F80937A0080917A008E7F809306
:101C20007A0088E090E00E94C10A8632954309F06C
:101C30001DC190E080E00E94C10A90933001809322
:101C40002F0182E090E00E94C10A8093310184E07C
:101C500090E00E94C10A809332010E944106809167
:101C60002F01909130018735944009F01CC16FEF2E
:101C70007FEF8FE090E00E94130681E080936F0277
:101C80000E9440026093490170934A0180934B0186
:101C900090934C0190ED492E97E0592E612C712CB8
:101CA00024E6222E312C11E00FEF8FB7F894C0906C
:101CB0006602D0906702E0906802F09069028FBFE0
:101CC0008091710290917202A0917302B09174029E
:101CD0008C159D05AE05BF0508F018C340E4409380
:101CE0007C0080917A00806480937A0080917A00F1
:101CF00086FDFCCF8091780020917900322F282F2B
:101D0000211552E0350714F02FEF31E03595279576
:101D1000B701A6018EE193E00E945B038EE193E0A0
:101D20000E94F003882309F415C18091440188239F
:101D300009F410C1D0913401D09335018EE193E0C4
:101D40000E945103809334018EE193E00E94470387
:101D50006093360170933701809338019093390175
:101D6000C0913401CD1BDD0B1C161D060CF0A2C06A
:101D700081E00E947C048AE191E00E943F0480910E
:101D80002E01181614F010932B01C038D1050CF455
:101D9000A6C0CFE7D0E0A3C086E00E94B801892B9F
:101DA00009F4E4CE87E00E94B801892B09F4DECE65
:101DB00088E00E94B801892B09F4D8CE109219014D
:101DC00082E00E94B801892B09F44CC083E00E9494
:101DD000B80120911901892B19F42260209319016F
:101DE00084E00E94B80120911901892B19F4246024
:101DF00020931901809119018C5F880FC4CE86E071
:101E00000E94B801892B11F48AE0BDCE87E00E94C0
:101E1000B801892B11F48CE0B6CE88E00E94B8019D
:101E2000892B09F0B2CE8EE0AECE85E00E94B801DB
:101E3000892B11F480E1A7CE86E00E94B801892B9E
:101E400011F482E1A0CE87E00E94B801892B11F441
:101E500084E199CE88E00E94B801892B09F095CEE3
:101E600086E191CE81E080931901B0CF60912F017E
:101E70007091300190E080E00E94D50A60913101BC
:101E800070E082E090E00E94D50A6091320170E03B
:101E900084E090E00E94D50A66E275E388E090E075
:101EA0000E94D50ADACE80912F01909130010E94D4
:101EB0005E06E6CE209709F4DCC081E00E94530460
:101EC00084E291E00E943F0480912E0187FF1093ED
:101ED0002101C1385FEFD5070CF057CFC1E8C0939F
:101EE0002E0180E00E947C0480E00E9453049091C7
:101EF000340180914201891720F48091340180934C
:101F000042019091340180914301981720F480910F
:101F100034018093430180913301811107C0909176
:101F2000340180913101981708F029C18091330163
:101F3000811128C18091330190913401882309F4E3
:101F400068C180913A01891708F026C18AE391E0BF
:101F50000E943F040E9440028090490190904A01F3
:101F6000A0904B01B0904C019B01AC01281939099C
:101F70004A095B0949015A01809245019092460144
:101F8000A0924701B09248016093490170934A01C1
:101F900080934B0190934C01809033018FB7F8945C
:101FA000C0917002DC2FD071D09370028FBF9090DF
:101FB0004401C0FF46C08FB7F894A0902F01B090A5
:101FC00030018FBF37E5A31634E0B30609F02DC109
:101FD0006FEF7FEF8FE090E00E94130610936F0287
:101FE00010934401C1FF2DC0B50190E080E00E9434
:101FF000D50A1092330110923A01009341011092D8
:1020000042010093430110921A0110922101809124
:10201000220190912301DC01ED91FC910284F38572
:10202000E02D09950093240110922B0180912C0141
:1020300090912D01DC01ED91FC910284F385E02D5E
:10204000099580914401811103C0C5FD109344019D
:1020500080916E02882309F434C1DD2309F4F1C0B4
:10206000C0926A02D0926B02E0926C02F0926D0212
:1020700002C13091340120911A0132133EC0809088
:102080001B0190901C01A0901D01B0901E0180903A
:102090001B0190901C01A0901D01B0901E019B019E
:1020A000AC01281939094A095B0949015A0181140F
:1020B000910431E0A306B104E8F480901B019090F4
:1020C0001C01A0901D01B0901E0168197909709340
:1020D000200160931F0180911F01909120010196C2
:1020E00009F053CE81E00E947C048AE191E00E94D5
:1020F0003F044BCE6FEF7FEFEACF30913401209158
:102100002401321342CE8090250190902601A090A8
:102110002701B09028018090250190902601A09081
:102120002701B09028019B01AC01281939094A09FF
:102130005B0949015A018114910431E0A306B104FD
:10214000D8F48090250190902601A0902701B090AE
:1021500028016819790970932A01609329018091F7
:10216000290190912A01019609F00FCE81E00E9489
:10217000530484E291E0BBCF6FEF7FEFECCF10937D
:102180003301D8CE9091340180913201981708F034
:10219000D1CE0E941504CECE9091340180913A01A7
:1021A0009813D8CE80913B0190913C01A0913D01C4
:1021B000B0913E018091360190913701A091380194
:1021C000B091390140913B0150913C0160913D013A
:1021D00070913E014C015D01841A950AA60AB70A66
:1021E000B501A401411551056140710578F4409194
:1021F0003B0150913C0160913D0170913E01841B77
:10220000950B9093400180933F01A4CE8FEF9FEFF9
:10221000F8CF80914101981728F480913401809380
:10222000410198CE80914101FACF80916F028823BD
:1022300021F00E94410610926F02C5010E945E06C5
:10224000CFCE80916A0290916B02A0916C02B09106
:102250006D02A7019601281B390B4A0B5B0BDA01B3
:10226000C90189389341A105B10528F010926E0289
:1022700081E00E946205C2FF07C06091310170E0F9
:1022800082E090E00E94D50AC3FF07C0609132014E
:1022900070E084E090E00E94D50A49EEC41643E065
:1022A000D406E104F104B0F4C601B1010E94B211F8
:1022B0006B7F81E06330710509F480E00E944E0578
:1022C0001DC09920C1F2C5FFD6CFC6FDD4CF109353
:1022D0006E02C6CEC701B60124E130E040E050E016
:1022E0000E94C611672B51F481E08110E7CFDD23F6
:1022F000A9F081E00E944E0510927002C092710216
:10230000D0927202E0927302F09274020E94F60080
:10231000882309F4CACC0E944E0AC5CCC701B60175
:10232000A30192010E94C61121E0672B682B692B43
:1023300009F020E0822FC2CFF999FECF92BD81BD76
:10234000F89A992780B50895262FF999FECF1FBADC
:1023500092BD81BD20BD0FB6F894FA9AF99A0FBECE
:102360000196089597FB072E16F4009407D077FD89
:1023700009D00E94E81107FC05D03EF490958195A4
:102380009F4F0895709561957F4F0895A1E21A2E91
:10239000AA1BBB1BFD010DC0AA1FBB1FEE1FFF1F09
:1023A000A217B307E407F50720F0A21BB30BE40B59
:1023B000F50B661F771F881F991F1A9469F76095A0
:1023C0007095809590959B01AC01BD01CF0108955A
:1023D000AA1BBB1B51E107C0AA1FBB1FA617B7074B
:1023E00010F0A61BB70B881F991F5A95A9F7809567
:1023F0009095BC01CD010895EE0FFF1F0590F4915B
:08240000E02D0994F894FFCFD0
:102408005101FF000000000000630100000000000F
:1024180000000000000000FF0006000000000000AF
:1024280000000901FF00000000000000000100A8F2
:1024380016605000000000000000000000000000CE
:1024480000FF00FF00000000000000000000000086
:102458000009050205D404B204AE04AE04A50400C4
:10246800000000480541051305B20410051005A534
:102478000402FFFFFFFFFFFFFFFFFFFFFFFFFFFF5C
:10248800FFFFFFFFFFFFFFFFFFFFFFFFFFFFFFFF54
:10249800FF0101FFFFFFFFFF010100000000220113
:1024A8008C00B9006F01EA00C800DC0000000000E1
:1024B800330328034403FE0221030E03FF02000036
:0A24C8000000F0035B03510347031B
:107800000C94343C0C94513C0C94513C0C94513CE1
:107810000C94513C0C94513C0C94513C0C94513CB4
:107820000C94513C0C94513C0C94513C0C94513CA4
:107830000C94513C0C94513C0C94513C0C94513C94
:107840000C94513C0C94513C0C94513C0C94513C84
:107850000C94513C0C94513C0C94513C0C94513C74
:107860000C94513C0C94513C11241FBECFEFD8E036
:10787000DEBFCDBF11E0A0E0B1E0ECE9FFE702C060
:1078800005900D92A230B107D9F712E0A2E0B1E065
:1078900001C01D92AD30B107E1F70E942D3D0C945F
:1078A000CC3F0C94003C982F959595959595959582
:1078B000905D8F708A307CF0282F295A8091C0000B
:1078C00085FFFCCF9093C6008091C00085FFFCCF60
:1078D0002093C6000895282F205DF0CF982F809127
:1078E000C00085FFFCCF9093C6000895EF92FF92F1
:1078F0000F931F93EE24FF2487018091C00087FD22
:1079000017C00894E11CF11C011D111D81E4E8164B
:1079100082E4F8068FE0080780E0180770F3E09132
:107920000401F091050109958091C00087FFE9CF1E
:107930008091C6001F910F91FF90EF9008950E94D3
:10794000763C982F8091C00085FFFCCF9093C600B5
:1079500091362CF490330CF09053892F089597555D
:10796000892F08951F930E949F3C182F0E949F3CCF
:107970001295107F810F1F9108951F93182F882350
:1079800021F00E94763C1150E1F71F9108951F935A
:10799000182F0E94763C803249F0809103018F5F5E
:1079A000809303018530C1F01F9108958091C0003C
:1079B00085FFFCCF84E18093C6008091C00085FFE5
:1079C000FCCF1093C6008091C00085FFFCCF80E102
:1079D0008093C6001F910895E0910401F091050184
:1079E00009951F9108950E94763C803241F0809164
:1079F00003018F5F80930301853081F008958091AA
:107A0000C00085FFFCCF84E18093C6008091C00058
:107A100085FFFCCF80E18093C6000895E0910401CA
:107A2000F09105010995089540E951E08823A1F0FE
:107A30002D9A28EE33E0FA013197F1F721503040CA
:107A4000D1F72D9828EE33E0FA013197F1F7215064
:107A50003040D1F7815061F708953F924F925F9285
:107A60006F927F928F929F92AF92BF92CF92DF924E
:107A7000EF92FF920F931F93CF93DF93000080E16B
:107A80008093C4001092C50088E18093C10086E015
:107A90008093C2005098589A259A81E00E94143D24
:107AA00024E1F22E9EE1E92E85E9D82E0FE0C02ECA
:107AB00010E1B12EAA24A394B1E49B2EA6E58A2E50
:107AC000F2E57F2EE0E26E2E79E4572E63E5462E36
:107AD00050E5352E0E94763C8033B1F18133B9F107
:107AE000803409F46FC0813409F476C0823409F41B
:107AF00085C0853409F488C0803531F1823521F1A3
:107B0000813511F1853509F485C0863509F48DC0BC
:107B1000843609F496C0843709F403C1853709F423
:107B200072C1863709F466C0809103018F5F80932C
:107B30000301853079F6E0910401F0910501099582
:107B40000E94763C803351F60E94F33CC3CF0E94E2
:107B5000763C803249F78091C00085FFFCCFF092DF
:107B6000C6008091C00085FFFCCF9092C600809136
:107B7000C00085FFFCCF8092C6008091C00085FFC9
:107B8000FCCF7092C6008091C00085FFFCCF609250
:107B9000C6008091C00085FFFCCF5092C600809146
:107BA000C00085FFFCCF4092C6008091C00085FFD9
:107BB000FCCF3092C6008091C00085FFFCCFB09210
:107BC000C60088CF0E94763C863808F4BDCF0E945C
:107BD000763C0E94F33C7ECF0E94763C803809F4CC
:107BE0009CC0813809F40BC1823809F43CC1883942
:107BF00009F48FC080E00E94C73C6CCF84E10E94F2
:107C0000BD3C0E94F33C66CF85E00E94BD3C0E94D3
:107C1000F33C60CF0E94763C809306010E94763C44
:107C2000809307010E94F33C55CF0E94763C80333D
:107C300009F41DC183E00E94BD3C80E00E94C73C66
:107C400049CF0E94763C809309020E94763C809343
:107C5000080280910C028E7F80930C020E94763C79
:107C6000853409F415C18091080290910902892B8D
:107C700089F000E010E00E94763CF801E85FFE4FDA
:107C800080830F5F1F4F80910802909109020817AF
:107C9000190788F30E94763C803209F045CF809125
:107CA0000C0280FF01C16091060170910701660F0F
:107CB000771F7093070160930601A0910802B091AD
:107CC00009021097C9F0E8E0F1E09B01AD014E0F09
:107CD0005F1FF999FECF32BD21BD819180BDFA9A17
:107CE000F99A2F5F3F4FE417F50799F76A0F7B1F4B
:107CF00070930701609306018091C00085FFFCCF5F
:107D0000F092C6008091C00085FFFCCFB092C60003
:107D1000E1CE83E00E94C73CDDCE82E00E94C73CFA
:107D2000D9CE0E94763C809309020E94763C8093D3
:107D300008028091060190910701880F991F909386
:107D40000701809306010E94763C853409F4A6C0A1
:107D500080910C028E7F80930C020E94763C8032D0
:107D600009F0B8CE8091C00085FFFCCFF092C6002C
:107D7000609108027091090261157105B9F140E046
:107D800050E080910C02A82FA170B82FB27011C0E2
:107D9000BB2309F45CC0E0910601F0910701319624
:107DA000F0930701E09306014F5F5F4F46175707B7
:107DB000E8F4AA2369F3F999FECF209106013091E6
:107DC000070132BD21BDF89A90B58091C00085FFB2
:107DD000FCCF9093C6002F5F3F4F30930701209355
:107DE00006014F5F5F4F4617570718F38091C00099
:107DF00085FDE5CE8091C00085FFF8CFE0CE81E023
:107E00000E94C73C67CE0E94763C803209F08CCE3F
:107E10008091C00085FFFCCFF092C6008091C00029
:107E200085FFFCCFE092C6008091C00085FFFCCFAB
:107E3000D092C6008091C00085FFFCCFC092C600E2
:107E40008091C00085FFFCCFB092C60043CEE09188
:107E50000601F091070194918091C00085FFFCCF4D
:107E60009093C6009CCF80E10E94C73C33CE0E9415
:107E7000763C0E94763C182F0E94763C112309F430
:107E800083C0113009F484C08FE00E94C73C22CE29
:107E900080910C02816080930C02E5CE80910C02EF
:107EA000816080930C0259CF809107018823880F4D
:107EB000880B8A2180930B02809106019091070123
:107EC000880F991F90930701809306018091080203
:107ED00080FF09C080910802909109020196909359
:107EE000090280930802F894F999FECF1127E091D6
:107EF0000601F0910701C8E0D1E08091080290915D
:107F00000902103091F40091570001700130D9F34B
:107F100003E000935700E89500915700017001308D
:107F2000D9F301E100935700E89509901990009169
:107F3000570001700130D9F301E000935700E89534
:107F40001395103498F011270091570001700130FB
:107F5000D9F305E000935700E895009157000170B0
:107F60000130D9F301E100935700E895329602976A
:107F700009F0C7CF103011F00296E5CF112480919F
:107F8000C00085FFB9CEBCCE8EE10E94C73CA2CD19
:0C7F900085E90E94C73C9ECDF894FFCF0D
:027F9C00800063
:040000030000780081
:00000001FF
